{
  "_format": "hh-sol-artifact-1",
  "contractName": "LendingPool",
  "sourceName": "contracts/LendingPool.sol",
  "abi": [
    {
      "inputs": [],
      "stateMutability": "nonpayable",
      "type": "constructor"
    },
    {
      "anonymous": false,
      "inputs": [
        {
          "indexed": false,
          "internalType": "address",
          "name": "account",
          "type": "address"
        },
        {
          "indexed": false,
          "internalType": "uint256",
          "name": "balance",
          "type": "uint256"
        }
      ],
      "name": "BalanceAfterDeposit",
      "type": "event"
    },
    {
      "anonymous": false,
      "inputs": [
        {
          "indexed": false,
          "internalType": "address",
          "name": "account",
          "type": "address"
        },
        {
          "indexed": false,
          "internalType": "uint256",
          "name": "balance",
          "type": "uint256"
        }
      ],
      "name": "BalanceAfterWithdrawal",
      "type": "event"
    },
    {
      "anonymous": false,
      "inputs": [
        {
          "indexed": true,
          "internalType": "address",
          "name": "user",
          "type": "address"
        },
        {
          "indexed": false,
          "internalType": "uint256",
          "name": "amount",
          "type": "uint256"
        }
      ],
      "name": "Borrow",
      "type": "event"
    },
    {
      "anonymous": false,
      "inputs": [
        {
          "indexed": true,
          "internalType": "address",
          "name": "user",
          "type": "address"
        },
        {
          "indexed": false,
          "internalType": "uint256",
          "name": "amount",
          "type": "uint256"
        },
        {
          "indexed": false,
          "internalType": "uint256",
          "name": "tokensMinted",
          "type": "uint256"
        }
      ],
      "name": "Deposit",
      "type": "event"
    },
    {
      "anonymous": false,
      "inputs": [
        {
          "indexed": true,
          "internalType": "address",
          "name": "user",
          "type": "address"
        },
        {
          "indexed": false,
          "internalType": "uint256",
          "name": "amount",
          "type": "uint256"
        }
      ],
      "name": "Repay",
      "type": "event"
    },
    {
      "anonymous": false,
      "inputs": [
        {
          "indexed": true,
          "internalType": "address",
          "name": "user",
          "type": "address"
        },
        {
          "indexed": false,
          "internalType": "uint256",
          "name": "amount",
          "type": "uint256"
        }
      ],
      "name": "Withdraw",
      "type": "event"
    },
    {
      "inputs": [],
      "name": "MTC_price",
      "outputs": [
        {
          "internalType": "uint256",
          "name": "",
          "type": "uint256"
        }
      ],
      "stateMutability": "view",
      "type": "function"
    },
    {
      "inputs": [
        {
          "internalType": "address",
          "name": "",
          "type": "address"
        }
      ],
      "name": "borrowable_amount",
      "outputs": [
        {
          "internalType": "uint256",
          "name": "",
          "type": "uint256"
        }
      ],
      "stateMutability": "view",
      "type": "function"
    },
    {
      "inputs": [
        {
          "internalType": "address",
          "name": "",
          "type": "address"
        }
      ],
      "name": "borrowedAmounts",
      "outputs": [
        {
          "internalType": "uint256",
          "name": "",
          "type": "uint256"
        }
      ],
      "stateMutability": "view",
      "type": "function"
    },
    {
      "inputs": [
        {
          "internalType": "address",
          "name": "",
          "type": "address"
        }
      ],
      "name": "collateral",
      "outputs": [
        {
          "internalType": "uint256",
          "name": "",
          "type": "uint256"
        }
      ],
      "stateMutability": "view",
      "type": "function"
    },
    {
      "inputs": [],
      "name": "depositIBT",
      "outputs": [],
      "stateMutability": "payable",
      "type": "function"
    },
    {
      "inputs": [],
      "name": "depositMATIC",
      "outputs": [],
      "stateMutability": "payable",
      "type": "function"
    },
    {
      "inputs": [
        {
          "internalType": "address",
          "name": "",
          "type": "address"
        }
      ],
      "name": "ibt_accruedInterest",
      "outputs": [
        {
          "internalType": "uint256",
          "name": "",
          "type": "uint256"
        }
      ],
      "stateMutability": "view",
      "type": "function"
    },
    {
      "inputs": [
        {
          "internalType": "address",
          "name": "",
          "type": "address"
        }
      ],
      "name": "ibt_balances",
      "outputs": [
        {
          "internalType": "uint256",
          "name": "",
          "type": "uint256"
        }
      ],
      "stateMutability": "view",
      "type": "function"
    },
    {
      "inputs": [
        {
          "internalType": "address",
          "name": "",
          "type": "address"
        }
      ],
      "name": "ibt_deposit_timestamp",
      "outputs": [
        {
          "internalType": "uint256",
          "name": "",
          "type": "uint256"
        }
      ],
      "stateMutability": "view",
      "type": "function"
    },
    {
      "inputs": [
        {
          "internalType": "address",
          "name": "",
          "type": "address"
        }
      ],
      "name": "ibt_interest_balances",
      "outputs": [
        {
          "internalType": "uint256",
          "name": "",
          "type": "uint256"
        }
      ],
      "stateMutability": "view",
      "type": "function"
    },
    {
      "inputs": [],
      "name": "ibt_isFirstWithdraw",
      "outputs": [
        {
          "internalType": "bool",
          "name": "",
          "type": "bool"
        }
      ],
      "stateMutability": "view",
      "type": "function"
    },
    {
      "inputs": [],
      "name": "ibt_totalDeposits",
      "outputs": [
        {
          "internalType": "uint256",
          "name": "",
          "type": "uint256"
        }
      ],
      "stateMutability": "view",
      "type": "function"
    },
    {
      "inputs": [
        {
          "internalType": "address",
          "name": "",
          "type": "address"
        }
      ],
      "name": "ibt_withdrawInterest",
      "outputs": [
        {
          "internalType": "uint256",
          "name": "",
          "type": "uint256"
        }
      ],
      "stateMutability": "view",
      "type": "function"
    },
    {
      "inputs": [
        {
          "internalType": "address",
          "name": "",
          "type": "address"
        }
      ],
      "name": "isBorrower",
      "outputs": [
        {
          "internalType": "bool",
          "name": "",
          "type": "bool"
        }
      ],
      "stateMutability": "view",
      "type": "function"
    },
    {
      "inputs": [
        {
          "internalType": "address",
          "name": "",
          "type": "address"
        }
      ],
      "name": "isFirstRepay",
      "outputs": [
        {
          "internalType": "bool",
          "name": "",
          "type": "bool"
        }
      ],
      "stateMutability": "view",
      "type": "function"
    },
    {
      "inputs": [
        {
          "internalType": "address",
          "name": "",
          "type": "address"
        }
      ],
      "name": "matic_accruedInterest",
      "outputs": [
        {
          "internalType": "uint256",
          "name": "",
          "type": "uint256"
        }
      ],
      "stateMutability": "view",
      "type": "function"
    },
    {
      "inputs": [
        {
          "internalType": "address",
          "name": "",
          "type": "address"
        }
      ],
      "name": "matic_balances",
      "outputs": [
        {
          "internalType": "uint256",
          "name": "",
          "type": "uint256"
        }
      ],
      "stateMutability": "view",
      "type": "function"
    },
    {
      "inputs": [
        {
          "internalType": "address",
          "name": "",
          "type": "address"
        }
      ],
      "name": "matic_deposit_timestamp",
      "outputs": [
        {
          "internalType": "uint256",
          "name": "",
          "type": "uint256"
        }
      ],
      "stateMutability": "view",
      "type": "function"
    },
    {
      "inputs": [
        {
          "internalType": "address",
          "name": "",
          "type": "address"
        }
      ],
      "name": "matic_interest_balances",
      "outputs": [
        {
          "internalType": "uint256",
          "name": "",
          "type": "uint256"
        }
      ],
      "stateMutability": "view",
      "type": "function"
    },
    {
      "inputs": [],
      "name": "matic_isFirstWithdraw",
      "outputs": [
        {
          "internalType": "bool",
          "name": "",
          "type": "bool"
        }
      ],
      "stateMutability": "view",
      "type": "function"
    },
    {
      "inputs": [],
      "name": "matic_totalDeposits",
      "outputs": [
        {
          "internalType": "uint256",
          "name": "",
          "type": "uint256"
        }
      ],
      "stateMutability": "view",
      "type": "function"
    },
    {
      "inputs": [
        {
          "internalType": "address",
          "name": "",
          "type": "address"
        }
      ],
      "name": "matic_withdrawInterest",
      "outputs": [
        {
          "internalType": "uint256",
          "name": "",
          "type": "uint256"
        }
      ],
      "stateMutability": "view",
      "type": "function"
    },
    {
      "inputs": [],
      "name": "mytoken_address",
      "outputs": [
        {
          "internalType": "contract ERC20",
          "name": "",
          "type": "address"
        }
      ],
      "stateMutability": "view",
      "type": "function"
    },
    {
      "inputs": [
        {
          "internalType": "address",
          "name": "",
          "type": "address"
        }
      ],
      "name": "repayable_interest",
      "outputs": [
        {
          "internalType": "uint256",
          "name": "",
          "type": "uint256"
        }
      ],
      "stateMutability": "view",
      "type": "function"
    },
    {
      "inputs": [
        {
          "internalType": "address",
          "name": "",
          "type": "address"
        }
      ],
      "name": "timestamp_borrow",
      "outputs": [
        {
          "internalType": "uint256",
          "name": "",
          "type": "uint256"
        }
      ],
      "stateMutability": "view",
      "type": "function"
    },
    {
      "inputs": [],
      "name": "token",
      "outputs": [
        {
          "internalType": "contract AToken",
          "name": "",
          "type": "address"
        }
      ],
      "stateMutability": "view",
      "type": "function"
    },
    {
      "inputs": [
        {
          "internalType": "uint256",
          "name": "_amount",
          "type": "uint256"
        }
      ],
      "name": "withdrawIBT",
      "outputs": [],
      "stateMutability": "nonpayable",
      "type": "function"
    },
    {
      "inputs": [
        {
          "internalType": "uint256",
          "name": "_amount",
          "type": "uint256"
        }
      ],
      "name": "withdrawMATIC",
      "outputs": [],
      "stateMutability": "nonpayable",
      "type": "function"
    }
  ],
  "bytecode": "0x60806040523480156200001157600080fd5b506040516200002090620000d9565b604051809103906000f0801580156200003d573d6000803e3d6000fd5b50601560006101000a81548173ffffffffffffffffffffffffffffffffffffffff021916908373ffffffffffffffffffffffffffffffffffffffff16021790555073a7385b18bd0609551be8bc4be1af38d54c6c1720601660006101000a81548173ffffffffffffffffffffffffffffffffffffffff021916908373ffffffffffffffffffffffffffffffffffffffff160217905550620000e7565b61262d806200316383390190565b61306c80620000f76000396000f3fe6080604052600436106101b75760003560e01c8063818e1777116100ec578063c21c8add1161008a578063eaf6e48311610064578063eaf6e483146106bf578063f2954d6a146106fc578063f5e8ba2714610727578063fc0c546a14610731576101b7565b8063c21c8add1461061a578063e90f98ab14610645578063ea10a24514610682576101b7565b8063a02579e2116100c6578063a02579e214610526578063a5fdc5de14610563578063bc041dad146105a0578063beae4b89146105dd576101b7565b8063818e17771461049557806384bd3a04146104d257806388c564ad146104fb576101b7565b8063570aa5c511610159578063749667821161013357806374966782146103d95780637d69e5f8146104165780637e51013c14610441578063816837e31461046c576101b7565b8063570aa5c51461033457806369307fcc1461035f5780636ae8b8f61461039c576101b7565b806324427c6a1161019557806324427c6a1461024057806333352b511461027d578063478230f7146102ba57806350fc56f7146102f7576101b7565b8063062a2a5d146101bc5780631d9053e0146101f957806320ec5ea014610203575b600080fd5b3480156101c857600080fd5b506101e360048036038101906101de9190612a41565b61075c565b6040516101f09190612a87565b60405180910390f35b610201610774565b005b34801561020f57600080fd5b5061022a60048036038101906102259190612a41565b610dd4565b6040516102379190612a87565b60405180910390f35b34801561024c57600080fd5b5061026760048036038101906102629190612a41565b610dec565b6040516102749190612a87565b60405180910390f35b34801561028957600080fd5b506102a4600480360381019061029f9190612a41565b610e04565b6040516102b19190612abd565b60405180910390f35b3480156102c657600080fd5b506102e160048036038101906102dc9190612a41565b610e24565b6040516102ee9190612a87565b60405180910390f35b34801561030357600080fd5b5061031e60048036038101906103199190612a41565b610e3c565b60405161032b9190612a87565b60405180910390f35b34801561034057600080fd5b50610349610e54565b6040516103569190612b37565b60405180910390f35b34801561036b57600080fd5b5061038660048036038101906103819190612a41565b610e7a565b6040516103939190612a87565b60405180910390f35b3480156103a857600080fd5b506103c360048036038101906103be9190612a41565b610e92565b6040516103d09190612a87565b60405180910390f35b3480156103e557600080fd5b5061040060048036038101906103fb9190612a41565b610eaa565b60405161040d9190612a87565b60405180910390f35b34801561042257600080fd5b5061042b610ec2565b6040516104389190612abd565b60405180910390f35b34801561044d57600080fd5b50610456610ed5565b6040516104639190612a87565b60405180910390f35b34801561047857600080fd5b50610493600480360381019061048e9190612b7e565b610edb565b005b3480156104a157600080fd5b506104bc60048036038101906104b79190612a41565b6117ae565b6040516104c99190612a87565b60405180910390f35b3480156104de57600080fd5b506104f960048036038101906104f49190612b7e565b6117c6565b005b34801561050757600080fd5b506105106120d7565b60405161051d9190612abd565b60405180910390f35b34801561053257600080fd5b5061054d60048036038101906105489190612a41565b6120ea565b60405161055a9190612a87565b60405180910390f35b34801561056f57600080fd5b5061058a60048036038101906105859190612a41565b612102565b6040516105979190612a87565b60405180910390f35b3480156105ac57600080fd5b506105c760048036038101906105c29190612a41565b61211a565b6040516105d49190612a87565b60405180910390f35b3480156105e957600080fd5b5061060460048036038101906105ff9190612a41565b612132565b6040516106119190612a87565b60405180910390f35b34801561062657600080fd5b5061062f61214a565b60405161063c9190612a87565b60405180910390f35b34801561065157600080fd5b5061066c60048036038101906106679190612a41565b612150565b6040516106799190612a87565b60405180910390f35b34801561068e57600080fd5b506106a960048036038101906106a49190612a41565b612168565b6040516106b69190612a87565b60405180910390f35b3480156106cb57600080fd5b506106e660048036038101906106e19190612a41565b612180565b6040516106f39190612abd565b60405180910390f35b34801561070857600080fd5b506107116121a0565b60405161071e9190612a87565b60405180910390f35b61072f6121a6565b005b34801561073d57600080fd5b50610746612836565b6040516107539190612bcc565b60405180910390f35b60056020528060005260406000206000915090505481565b60003490506709fdf42f6e480000600881905550600081116107cb576040517f08c379a00000000000000000000000000000000000000000000000000000000081526004016107c290612c44565b60405180910390fd5b601560009054906101000a900473ffffffffffffffffffffffffffffffffffffffff1673ffffffffffffffffffffffffffffffffffffffff1663a4fa277433836040518363ffffffff1660e01b8152600401610828929190612c73565b600060405180830381600087803b15801561084257600080fd5b505af1158015610856573d6000803e3d6000fd5b50505050806000803373ffffffffffffffffffffffffffffffffffffffff1673ffffffffffffffffffffffffffffffffffffffff16815260200190815260200160002060008282546108a89190612ccb565b92505081905550600a60085460076000803373ffffffffffffffffffffffffffffffffffffffff1673ffffffffffffffffffffffffffffffffffffffff168152602001908152602001600020546108ff9190612cff565b6109099190612cff565b6109139190612d70565b601460003373ffffffffffffffffffffffffffffffffffffffff1673ffffffffffffffffffffffffffffffffffffffff1681526020019081526020016000208190555080600960008282546109689190612ccb565b92505081905550806000803373ffffffffffffffffffffffffffffffffffffffff1673ffffffffffffffffffffffffffffffffffffffff1681526020019081526020016000205403610aa1576001601160016101000a81548160ff02191690831515021790555042600c60003373ffffffffffffffffffffffffffffffffffffffff1673ffffffffffffffffffffffffffffffffffffffff168152602001908152602001600020819055506000600d60003373ffffffffffffffffffffffffffffffffffffffff1673ffffffffffffffffffffffffffffffffffffffff1681526020019081526020016000208190555080600b60003373ffffffffffffffffffffffffffffffffffffffff1673ffffffffffffffffffffffffffffffffffffffff16815260200190815260200160002081905550610c33565b620f42406000803373ffffffffffffffffffffffffffffffffffffffff1673ffffffffffffffffffffffffffffffffffffffff16815260200190815260200160002054600c60003373ffffffffffffffffffffffffffffffffffffffff1673ffffffffffffffffffffffffffffffffffffffff1681526020019081526020016000205442610b2f9190612da1565b610b399190612cff565b610b439190612d70565b600d60003373ffffffffffffffffffffffffffffffffffffffff1673ffffffffffffffffffffffffffffffffffffffff1681526020019081526020016000206000828254610b919190612ccb565b9250508190555042600c60003373ffffffffffffffffffffffffffffffffffffffff1673ffffffffffffffffffffffffffffffffffffffff1681526020019081526020016000208190555080600b60003373ffffffffffffffffffffffffffffffffffffffff1673ffffffffffffffffffffffffffffffffffffffff1681526020019081526020016000206000828254610c2b9190612ccb565b925050819055505b610c7a6000803373ffffffffffffffffffffffffffffffffffffffff1673ffffffffffffffffffffffffffffffffffffffff1681526020019081526020016000205461285c565b610cc2600c60003373ffffffffffffffffffffffffffffffffffffffff1673ffffffffffffffffffffffffffffffffffffffff1681526020019081526020016000205461285c565b610d0a600d60003373ffffffffffffffffffffffffffffffffffffffff1673ffffffffffffffffffffffffffffffffffffffff1681526020019081526020016000205461285c565b3373ffffffffffffffffffffffffffffffffffffffff167f90890809c654f11d6e72a28fa60149770a0d11ec6c92319d6ceb2bb0a4ea1a158283604051610d52929190612dd5565b60405180910390a27fdeaf03adaa870bd18d29c07613b960326f8b269698f66bb8c2e9efc5ae46705e336000803373ffffffffffffffffffffffffffffffffffffffff1673ffffffffffffffffffffffffffffffffffffffff16815260200190815260200160002054604051610dc9929190612c73565b60405180910390a150565b60126020528060005260406000206000915090505481565b60106020528060005260406000206000915090505481565b60066020528060005260406000206000915054906101000a900460ff1681565b60036020528060005260406000206000915090505481565b600e6020528060005260406000206000915090505481565b601660009054906101000a900473ffffffffffffffffffffffffffffffffffffffff1681565b60006020528060005260406000206000915090505481565b60146020528060005260406000206000915090505481565b60076020528060005260406000206000915090505481565b601160019054906101000a900460ff1681565b600a5481565b6000429050610f276000803373ffffffffffffffffffffffffffffffffffffffff1673ffffffffffffffffffffffffffffffffffffffff1681526020019081526020016000205461285c565b816000803373ffffffffffffffffffffffffffffffffffffffff1673ffffffffffffffffffffffffffffffffffffffff168152602001908152602001600020541015610fa8576040517f08c379a0000000000000000000000000000000000000000000000000000000008152600401610f9f90612e4a565b60405180910390fd5b601160019054906101000a900460ff161561128057620f42406000803373ffffffffffffffffffffffffffffffffffffffff1673ffffffffffffffffffffffffffffffffffffffff16815260200190815260200160002054600c60003373ffffffffffffffffffffffffffffffffffffffff1673ffffffffffffffffffffffffffffffffffffffff168152602001908152602001600020548361104b9190612da1565b6110559190612cff565b61105f9190612d70565b600d60003373ffffffffffffffffffffffffffffffffffffffff1673ffffffffffffffffffffffffffffffffffffffff168152602001908152602001600020546110a99190612ccb565b601360003373ffffffffffffffffffffffffffffffffffffffff1673ffffffffffffffffffffffffffffffffffffffff16815260200190815260200160002081905550611134601360003373ffffffffffffffffffffffffffffffffffffffff1673ffffffffffffffffffffffffffffffffffffffff1681526020019081526020016000205461285c565b3373ffffffffffffffffffffffffffffffffffffffff166108fc601360003373ffffffffffffffffffffffffffffffffffffffff1673ffffffffffffffffffffffffffffffffffffffff16815260200190815260200160002054846111999190612ccb565b9081150290604051600060405180830381858888f193505050501580156111c4573d6000803e3d6000fd5b506000601360003373ffffffffffffffffffffffffffffffffffffffff1673ffffffffffffffffffffffffffffffffffffffff1681526020019081526020016000208190555081600b60003373ffffffffffffffffffffffffffffffffffffffff1673ffffffffffffffffffffffffffffffffffffffff16815260200190815260200160002060008282546112599190612da1565b925050819055506000601160016101000a81548160ff0219169083151502179055506114ef565b601160019054906101000a900460ff166114ee57620f42406000803373ffffffffffffffffffffffffffffffffffffffff1673ffffffffffffffffffffffffffffffffffffffff16815260200190815260200160002054600c60003373ffffffffffffffffffffffffffffffffffffffff1673ffffffffffffffffffffffffffffffffffffffff16815260200190815260200160002054836113229190612da1565b61132c9190612cff565b6113369190612d70565b601360003373ffffffffffffffffffffffffffffffffffffffff1673ffffffffffffffffffffffffffffffffffffffff168152602001908152602001600020819055506113c1601360003373ffffffffffffffffffffffffffffffffffffffff1673ffffffffffffffffffffffffffffffffffffffff1681526020019081526020016000205461285c565b3373ffffffffffffffffffffffffffffffffffffffff166108fc601360003373ffffffffffffffffffffffffffffffffffffffff1673ffffffffffffffffffffffffffffffffffffffff16815260200190815260200160002054846114269190612ccb565b9081150290604051600060405180830381858888f19350505050158015611451573d6000803e3d6000fd5b5081600b60003373ffffffffffffffffffffffffffffffffffffffff1673ffffffffffffffffffffffffffffffffffffffff16815260200190815260200160002060008282546114a19190612da1565b925050819055506000601360003373ffffffffffffffffffffffffffffffffffffffff1673ffffffffffffffffffffffffffffffffffffffff168152602001908152602001600020819055505b5b80600c60003373ffffffffffffffffffffffffffffffffffffffff1673ffffffffffffffffffffffffffffffffffffffff16815260200190815260200160002081905550601560009054906101000a900473ffffffffffffffffffffffffffffffffffffffff1673ffffffffffffffffffffffffffffffffffffffff1663e16dd03d33846040518363ffffffff1660e01b8152600401611590929190612c73565b600060405180830381600087803b1580156115aa57600080fd5b505af11580156115be573d6000803e3d6000fd5b50505050816000803373ffffffffffffffffffffffffffffffffffffffff1673ffffffffffffffffffffffffffffffffffffffff16815260200190815260200160002060008282546116109190612da1565b92505081905550600a60076008546000803373ffffffffffffffffffffffffffffffffffffffff1673ffffffffffffffffffffffffffffffffffffffff168152602001908152602001600020546116679190612cff565b6116719190612cff565b61167b9190612d70565b601460003373ffffffffffffffffffffffffffffffffffffffff1673ffffffffffffffffffffffffffffffffffffffff1681526020019081526020016000208190555081600960008282546116d09190612da1565b925050819055506117156040518060400160405280600f81526020017f42616c616e636573204c656674203a00000000000000000000000000000000008152506128f5565b61175c6000803373ffffffffffffffffffffffffffffffffffffffff1673ffffffffffffffffffffffffffffffffffffffff1681526020019081526020016000205461285c565b3373ffffffffffffffffffffffffffffffffffffffff167f884edad9ce6fa2440d8a54cc123490eb96d2768479d49ff9c7366125a9424364836040516117a29190612a87565b60405180910390a25050565b600d6020528060005260406000206000915090505481565b6000429050611813600160003373ffffffffffffffffffffffffffffffffffffffff1673ffffffffffffffffffffffffffffffffffffffff1681526020019081526020016000205461285c565b81600160003373ffffffffffffffffffffffffffffffffffffffff1673ffffffffffffffffffffffffffffffffffffffff168152602001908152602001600020541015611895576040517f08c379a000000000000000000000000000000000000000000000000000000000815260040161188c90612e4a565b60405180910390fd5b601660009054906101000a900473ffffffffffffffffffffffffffffffffffffffff1673ffffffffffffffffffffffffffffffffffffffff1663a9059cbb33846040518363ffffffff1660e01b81526004016118f2929190612c73565b6020604051808303816000875af1158015611911573d6000803e3d6000fd5b505050506040513d601f19601f820116820180604052508101906119359190612e96565b611974576040517f08c379a000000000000000000000000000000000000000000000000000000000815260040161196b90612f0f565b60405180910390fd5b601160009054906101000a900460ff1615611c4d57620f4240600160003373ffffffffffffffffffffffffffffffffffffffff1673ffffffffffffffffffffffffffffffffffffffff16815260200190815260200160002054600f60003373ffffffffffffffffffffffffffffffffffffffff1673ffffffffffffffffffffffffffffffffffffffff1681526020019081526020016000205483611a189190612da1565b611a229190612cff565b611a2c9190612d70565b601060003373ffffffffffffffffffffffffffffffffffffffff1673ffffffffffffffffffffffffffffffffffffffff16815260200190815260200160002054611a769190612ccb565b601260003373ffffffffffffffffffffffffffffffffffffffff1673ffffffffffffffffffffffffffffffffffffffff16815260200190815260200160002081905550611b01601260003373ffffffffffffffffffffffffffffffffffffffff1673ffffffffffffffffffffffffffffffffffffffff1681526020019081526020016000205461285c565b3373ffffffffffffffffffffffffffffffffffffffff166108fc601260003373ffffffffffffffffffffffffffffffffffffffff1673ffffffffffffffffffffffffffffffffffffffff1681526020019081526020016000205484611b669190612ccb565b9081150290604051600060405180830381858888f19350505050158015611b91573d6000803e3d6000fd5b506000601260003373ffffffffffffffffffffffffffffffffffffffff1673ffffffffffffffffffffffffffffffffffffffff1681526020019081526020016000208190555081600e60003373ffffffffffffffffffffffffffffffffffffffff1673ffffffffffffffffffffffffffffffffffffffff1681526020019081526020016000206000828254611c269190612da1565b925050819055506000601160006101000a81548160ff021916908315150217905550611ebd565b601160009054906101000a900460ff16611ebc57620f4240600160003373ffffffffffffffffffffffffffffffffffffffff1673ffffffffffffffffffffffffffffffffffffffff16815260200190815260200160002054600f60003373ffffffffffffffffffffffffffffffffffffffff1673ffffffffffffffffffffffffffffffffffffffff1681526020019081526020016000205483611cf09190612da1565b611cfa9190612cff565b611d049190612d70565b601260003373ffffffffffffffffffffffffffffffffffffffff1673ffffffffffffffffffffffffffffffffffffffff16815260200190815260200160002081905550611d8f601260003373ffffffffffffffffffffffffffffffffffffffff1673ffffffffffffffffffffffffffffffffffffffff1681526020019081526020016000205461285c565b3373ffffffffffffffffffffffffffffffffffffffff166108fc601260003373ffffffffffffffffffffffffffffffffffffffff1673ffffffffffffffffffffffffffffffffffffffff1681526020019081526020016000205484611df49190612ccb565b9081150290604051600060405180830381858888f19350505050158015611e1f573d6000803e3d6000fd5b5081600e60003373ffffffffffffffffffffffffffffffffffffffff1673ffffffffffffffffffffffffffffffffffffffff1681526020019081526020016000206000828254611e6f9190612da1565b925050819055506000601260003373ffffffffffffffffffffffffffffffffffffffff1673ffffffffffffffffffffffffffffffffffffffff168152602001908152602001600020819055505b5b80600f60003373ffffffffffffffffffffffffffffffffffffffff1673ffffffffffffffffffffffffffffffffffffffff16815260200190815260200160002081905550601560009054906101000a900473ffffffffffffffffffffffffffffffffffffffff1673ffffffffffffffffffffffffffffffffffffffff1663bb818cc533846040518363ffffffff1660e01b8152600401611f5e929190612c73565b600060405180830381600087803b158015611f7857600080fd5b505af1158015611f8c573d6000803e3d6000fd5b5050505081600160003373ffffffffffffffffffffffffffffffffffffffff1673ffffffffffffffffffffffffffffffffffffffff1681526020019081526020016000206000828254611fdf9190612da1565b9250508190555081600a6000828254611ff89190612da1565b9250508190555061203d6040518060400160405280600f81526020017f42616c616e636573204c656674203a00000000000000000000000000000000008152506128f5565b612085600160003373ffffffffffffffffffffffffffffffffffffffff1673ffffffffffffffffffffffffffffffffffffffff1681526020019081526020016000205461285c565b3373ffffffffffffffffffffffffffffffffffffffff167f884edad9ce6fa2440d8a54cc123490eb96d2768479d49ff9c7366125a9424364836040516120cb9190612a87565b60405180910390a25050565b601160009054906101000a900460ff1681565b600c6020528060005260406000206000915090505481565b60026020528060005260406000206000915090505481565b600f6020528060005260406000206000915090505481565b600b6020528060005260406000206000915090505481565b60095481565b60136020528060005260406000206000915090505481565b60016020528060005260406000206000915090505481565b60046020528060005260406000206000915054906101000a900460ff1681565b60085481565b6000349050600081116121ee576040517f08c379a00000000000000000000000000000000000000000000000000000000081526004016121e590612c44565b60405180910390fd5b601660009054906101000a900473ffffffffffffffffffffffffffffffffffffffff1673ffffffffffffffffffffffffffffffffffffffff166323b872dd3330846040518463ffffffff1660e01b815260040161224d93929190612f2f565b6020604051808303816000875af115801561226c573d6000803e3d6000fd5b505050506040513d601f19601f820116820180604052508101906122909190612e96565b6122cf576040517f08c379a00000000000000000000000000000000000000000000000000000000081526004016122c690612f0f565b60405180910390fd5b601560009054906101000a900473ffffffffffffffffffffffffffffffffffffffff1673ffffffffffffffffffffffffffffffffffffffff1663e6c98c6f33836040518363ffffffff1660e01b815260040161232c929190612c73565b600060405180830381600087803b15801561234657600080fd5b505af115801561235a573d6000803e3d6000fd5b5050505080600160003373ffffffffffffffffffffffffffffffffffffffff1673ffffffffffffffffffffffffffffffffffffffff16815260200190815260200160002060008282546123ad9190612ccb565b9250508190555080600a60008282546123c69190612ccb565b9250508190555080600160003373ffffffffffffffffffffffffffffffffffffffff1673ffffffffffffffffffffffffffffffffffffffff1681526020019081526020016000205403612500576001601160006101000a81548160ff02191690831515021790555042600f60003373ffffffffffffffffffffffffffffffffffffffff1673ffffffffffffffffffffffffffffffffffffffff168152602001908152602001600020819055506000601060003373ffffffffffffffffffffffffffffffffffffffff1673ffffffffffffffffffffffffffffffffffffffff1681526020019081526020016000208190555080600e60003373ffffffffffffffffffffffffffffffffffffffff1673ffffffffffffffffffffffffffffffffffffffff16815260200190815260200160002081905550612693565b620f4240600160003373ffffffffffffffffffffffffffffffffffffffff1673ffffffffffffffffffffffffffffffffffffffff16815260200190815260200160002054600f60003373ffffffffffffffffffffffffffffffffffffffff1673ffffffffffffffffffffffffffffffffffffffff168152602001908152602001600020544261258f9190612da1565b6125999190612cff565b6125a39190612d70565b601060003373ffffffffffffffffffffffffffffffffffffffff1673ffffffffffffffffffffffffffffffffffffffff16815260200190815260200160002060008282546125f19190612ccb565b9250508190555042600f60003373ffffffffffffffffffffffffffffffffffffffff1673ffffffffffffffffffffffffffffffffffffffff1681526020019081526020016000208190555080600e60003373ffffffffffffffffffffffffffffffffffffffff1673ffffffffffffffffffffffffffffffffffffffff168152602001908152602001600020600082825461268b9190612ccb565b925050819055505b6126db600160003373ffffffffffffffffffffffffffffffffffffffff1673ffffffffffffffffffffffffffffffffffffffff1681526020019081526020016000205461285c565b612723600f60003373ffffffffffffffffffffffffffffffffffffffff1673ffffffffffffffffffffffffffffffffffffffff1681526020019081526020016000205461285c565b61276b601060003373ffffffffffffffffffffffffffffffffffffffff1673ffffffffffffffffffffffffffffffffffffffff1681526020019081526020016000205461285c565b3373ffffffffffffffffffffffffffffffffffffffff167f90890809c654f11d6e72a28fa60149770a0d11ec6c92319d6ceb2bb0a4ea1a1582836040516127b3929190612dd5565b60405180910390a27fdeaf03adaa870bd18d29c07613b960326f8b269698f66bb8c2e9efc5ae46705e33600160003373ffffffffffffffffffffffffffffffffffffffff1673ffffffffffffffffffffffffffffffffffffffff1681526020019081526020016000205460405161282b929190612c73565b60405180910390a150565b601560009054906101000a900473ffffffffffffffffffffffffffffffffffffffff1681565b6128f2816040516024016128709190612a87565b6040516020818303038152906040527ff82c50f1000000000000000000000000000000000000000000000000000000007bffffffffffffffffffffffffffffffffffffffffffffffffffffffff19166020820180517bffffffffffffffffffffffffffffffffffffffffffffffffffffffff838183161783525050505061298e565b50565b61298b816040516024016129099190612fe5565b6040516020818303038152906040527f41304fac000000000000000000000000000000000000000000000000000000007bffffffffffffffffffffffffffffffffffffffffffffffffffffffff19166020820180517bffffffffffffffffffffffffffffffffffffffffffffffffffffffff838183161783525050505061298e565b50565b6129a58161299d6129a86129c9565b63ffffffff16565b50565b60006a636f6e736f6c652e6c6f679050600080835160208501845afa505050565b6129d4819050919050565b6129dc613007565b565b600080fd5b600073ffffffffffffffffffffffffffffffffffffffff82169050919050565b6000612a0e826129e3565b9050919050565b612a1e81612a03565b8114612a2957600080fd5b50565b600081359050612a3b81612a15565b92915050565b600060208284031215612a5757612a566129de565b5b6000612a6584828501612a2c565b91505092915050565b6000819050919050565b612a8181612a6e565b82525050565b6000602082019050612a9c6000830184612a78565b92915050565b60008115159050919050565b612ab781612aa2565b82525050565b6000602082019050612ad26000830184612aae565b92915050565b6000819050919050565b6000612afd612af8612af3846129e3565b612ad8565b6129e3565b9050919050565b6000612b0f82612ae2565b9050919050565b6000612b2182612b04565b9050919050565b612b3181612b16565b82525050565b6000602082019050612b4c6000830184612b28565b92915050565b612b5b81612a6e565b8114612b6657600080fd5b50565b600081359050612b7881612b52565b92915050565b600060208284031215612b9457612b936129de565b5b6000612ba284828501612b69565b91505092915050565b6000612bb682612b04565b9050919050565b612bc681612bab565b82525050565b6000602082019050612be16000830184612bbd565b92915050565b600082825260208201905092915050565b7f416d6f756e74206d7573742062652067726561746572207468616e2030000000600082015250565b6000612c2e601d83612be7565b9150612c3982612bf8565b602082019050919050565b60006020820190508181036000830152612c5d81612c21565b9050919050565b612c6d81612a03565b82525050565b6000604082019050612c886000830185612c64565b612c956020830184612a78565b9392505050565b7f4e487b7100000000000000000000000000000000000000000000000000000000600052601160045260246000fd5b6000612cd682612a6e565b9150612ce183612a6e565b9250828201905080821115612cf957612cf8612c9c565b5b92915050565b6000612d0a82612a6e565b9150612d1583612a6e565b9250828202612d2381612a6e565b91508282048414831517612d3a57612d39612c9c565b5b5092915050565b7f4e487b7100000000000000000000000000000000000000000000000000000000600052601260045260246000fd5b6000612d7b82612a6e565b9150612d8683612a6e565b925082612d9657612d95612d41565b5b828204905092915050565b6000612dac82612a6e565b9150612db783612a6e565b9250828203905081811115612dcf57612dce612c9c565b5b92915050565b6000604082019050612dea6000830185612a78565b612df76020830184612a78565b9392505050565b7f496e73756666696369656e742062616c616e6365000000000000000000000000600082015250565b6000612e34601483612be7565b9150612e3f82612dfe565b602082019050919050565b60006020820190508181036000830152612e6381612e27565b9050919050565b612e7381612aa2565b8114612e7e57600080fd5b50565b600081519050612e9081612e6a565b92915050565b600060208284031215612eac57612eab6129de565b5b6000612eba84828501612e81565b91505092915050565b7f5472616e73666572206661696c65640000000000000000000000000000000000600082015250565b6000612ef9600f83612be7565b9150612f0482612ec3565b602082019050919050565b60006020820190508181036000830152612f2881612eec565b9050919050565b6000606082019050612f446000830186612c64565b612f516020830185612c64565b612f5e6040830184612a78565b949350505050565b600081519050919050565b60005b83811015612f8f578082015181840152602081019050612f74565b60008484015250505050565b6000601f19601f8301169050919050565b6000612fb782612f66565b612fc18185612be7565b9350612fd1818560208601612f71565b612fda81612f9b565b840191505092915050565b60006020820190508181036000830152612fff8184612fac565b905092915050565b7f4e487b7100000000000000000000000000000000000000000000000000000000600052605160045260246000fdfea26469706673582212201918987a19b603ea7defb773f2f3221d2232f3943b284fa93e968ad11bb4e62e64736f6c6343000818003360806040523480156200001157600080fd5b506040518060400160405280600f81526020017f61546f6b656e20457468657265756d00000000000000000000000000000000008152506040518060400160405280600681526020017f41546f6b656e000000000000000000000000000000000000000000000000000081525081600390816200008f9190620003a0565b508060049081620000a19190620003a0565b50505033600560006101000a81548173ffffffffffffffffffffffffffffffffffffffff021916908373ffffffffffffffffffffffffffffffffffffffff1602179055506709fdf42f6e4800006ec097ce7bc90715b34b9f10000000006200010a9190620004b6565b6006819055506804cc99bdf2ad550000600781905550620004ee565b600081519050919050565b7f4e487b7100000000000000000000000000000000000000000000000000000000600052604160045260246000fd5b7f4e487b7100000000000000000000000000000000000000000000000000000000600052602260045260246000fd5b60006002820490506001821680620001a857607f821691505b602082108103620001be57620001bd62000160565b5b50919050565b60008190508160005260206000209050919050565b60006020601f8301049050919050565b600082821b905092915050565b600060088302620002287fffffffffffffffffffffffffffffffffffffffffffffffffffffffffffffffff82620001e9565b620002348683620001e9565b95508019841693508086168417925050509392505050565b6000819050919050565b6000819050919050565b6000620002816200027b62000275846200024c565b62000256565b6200024c565b9050919050565b6000819050919050565b6200029d8362000260565b620002b5620002ac8262000288565b848454620001f6565b825550505050565b600090565b620002cc620002bd565b620002d981848462000292565b505050565b5b818110156200030157620002f5600082620002c2565b600181019050620002df565b5050565b601f82111562000350576200031a81620001c4565b6200032584620001d9565b8101602085101562000335578190505b6200034d6200034485620001d9565b830182620002de565b50505b505050565b600082821c905092915050565b6000620003756000198460080262000355565b1980831691505092915050565b600062000390838362000362565b9150826002028217905092915050565b620003ab8262000126565b67ffffffffffffffff811115620003c757620003c662000131565b5b620003d382546200018f565b620003e082828562000305565b600060209050601f83116001811462000418576000841562000403578287015190505b6200040f858262000382565b8655506200047f565b601f1984166200042886620001c4565b60005b8281101562000452578489015182556001820191506020850194506020810190506200042b565b868310156200047257848901516200046e601f89168262000362565b8355505b6001600288020188555050505b505050505050565b7f4e487b7100000000000000000000000000000000000000000000000000000000600052601260045260246000fd5b6000620004c3826200024c565b9150620004d0836200024c565b925082620004e357620004e262000487565b5b828204905092915050565b61212f80620004fe6000396000f3fe60806040526004361061011f5760003560e01c806370a08231116100a0578063a9059cbb11610064578063a9059cbb14610401578063bb818cc51461043e578063dd62ed3e14610467578063e16dd03d146104a4578063e6c98c6f146104c05761011f565b806370a08231146103085780638da5cb5b1461034557806395d89b4114610370578063a457c2d71461039b578063a4fa2774146103d85761011f565b8063313ce567116100e7578063313ce5671461021f578063395093511461024a5780633d6d142c1461028757806342e8dc89146102b25780636f0515a1146102dd5761011f565b806306fdde0314610124578063095ea7b31461014f57806318160ddd1461018c578063207ec727146101b757806323b872dd146101e2575b600080fd5b34801561013057600080fd5b506101396104e9565b604051610146919061160f565b60405180910390f35b34801561015b57600080fd5b50610176600480360381019061017191906116ca565b61057b565b6040516101839190611725565b60405180910390f35b34801561019857600080fd5b506101a161059e565b6040516101ae919061174f565b60405180910390f35b3480156101c357600080fd5b506101cc6105a8565b6040516101d9919061174f565b60405180910390f35b3480156101ee57600080fd5b506102096004803603810190610204919061176a565b6105b5565b6040516102169190611725565b60405180910390f35b34801561022b57600080fd5b506102346105e4565b60405161024191906117d9565b60405180910390f35b34801561025657600080fd5b50610271600480360381019061026c91906116ca565b6105ed565b60405161027e9190611725565b60405180910390f35b34801561029357600080fd5b5061029c610624565b6040516102a9919061174f565b60405180910390f35b3480156102be57600080fd5b506102c761062a565b6040516102d4919061174f565b60405180910390f35b3480156102e957600080fd5b506102f2610630565b6040516102ff919061174f565b60405180910390f35b34801561031457600080fd5b5061032f600480360381019061032a91906117f4565b61063c565b60405161033c919061174f565b60405180910390f35b34801561035157600080fd5b5061035a610684565b6040516103679190611830565b60405180910390f35b34801561037c57600080fd5b506103856106aa565b604051610392919061160f565b60405180910390f35b3480156103a757600080fd5b506103c260048036038101906103bd91906116ca565b61073c565b6040516103cf9190611725565b60405180910390f35b3480156103e457600080fd5b506103ff60048036038101906103fa91906116ca565b6107b3565b005b34801561040d57600080fd5b50610428600480360381019061042391906116ca565b610929565b6040516104359190611725565b60405180910390f35b34801561044a57600080fd5b50610465600480360381019061046091906116ca565b61094c565b005b34801561047357600080fd5b5061048e6004803603810190610489919061184b565b610a5f565b60405161049b919061174f565b60405180910390f35b6104be60048036038101906104b991906116ca565b610ae6565b005b3480156104cc57600080fd5b506104e760048036038101906104e291906116ca565b610c51565b005b6060600380546104f8906118ba565b80601f0160208091040260200160405190810160405280929190818152602001828054610524906118ba565b80156105715780601f1061054657610100808354040283529160200191610571565b820191906000526020600020905b81548152906001019060200180831161055457829003601f168201915b5050505050905090565b600080610586610d64565b9050610593818585610d6c565b600191505092915050565b6000600254905090565b6804cc99bdf2ad55000081565b6000806105c0610d64565b90506105cd858285610f35565b6105d8858585610fc1565b60019150509392505050565b60006012905090565b6000806105f8610d64565b905061061981858561060a8589610a5f565b610614919061191a565b610d6c565b600191505092915050565b60065481565b60075481565b6709fdf42f6e48000081565b60008060008373ffffffffffffffffffffffffffffffffffffffff1673ffffffffffffffffffffffffffffffffffffffff168152602001908152602001600020549050919050565b600560009054906101000a900473ffffffffffffffffffffffffffffffffffffffff1681565b6060600480546106b9906118ba565b80601f01602080910402602001604051908101604052809291908181526020018280546106e5906118ba565b80156107325780601f1061070757610100808354040283529160200191610732565b820191906000526020600020905b81548152906001019060200180831161071557829003601f168201915b5050505050905090565b600080610747610d64565b905060006107558286610a5f565b90508381101561079a576040517f08c379a0000000000000000000000000000000000000000000000000000000008152600401610791906119c0565b60405180910390fd5b6107a78286868403610d6c565b60019250505092915050565b600560009054906101000a900473ffffffffffffffffffffffffffffffffffffffff1673ffffffffffffffffffffffffffffffffffffffff163373ffffffffffffffffffffffffffffffffffffffff1614610843576040517f08c379a000000000000000000000000000000000000000000000000000000000815260040161083a90611a2c565b60405180910390fd5b60006007546096600654846108589190611a4c565b6108629190611a4c565b61086c9190611abd565b90506108788382611240565b60006108838461063c565b90508373ffffffffffffffffffffffffffffffffffffffff167fb0750f6c39be925832beb4b2ee749481dc9e87e71e38e643dc1c7742c5f8aba2826040516108cb919061174f565b60405180910390a28373ffffffffffffffffffffffffffffffffffffffff167f2e8ac5177a616f2aec08c3048f5021e4e9743ece034e8d83ba5caf76688bb475848460405161091b929190611aee565b60405180910390a250505050565b600080610934610d64565b9050610941818585610fc1565b600191505092915050565b600560009054906101000a900473ffffffffffffffffffffffffffffffffffffffff1673ffffffffffffffffffffffffffffffffffffffff163373ffffffffffffffffffffffffffffffffffffffff16146109dc576040517f08c379a00000000000000000000000000000000000000000000000000000000081526004016109d390611b63565b60405180910390fd5b600060075466038d7ea4c68000836109f49190611a4c565b6109fe9190611abd565b9050610a0a838261139f565b8273ffffffffffffffffffffffffffffffffffffffff167fccbea4088a3b7ae9ca2d15fab9a9742a4075b4d7247768a1eecea917565aba008383604051610a52929190611aee565b60405180910390a2505050565b6000600160008473ffffffffffffffffffffffffffffffffffffffff1673ffffffffffffffffffffffffffffffffffffffff16815260200190815260200160002060008373ffffffffffffffffffffffffffffffffffffffff1673ffffffffffffffffffffffffffffffffffffffff16815260200190815260200160002054905092915050565b600560009054906101000a900473ffffffffffffffffffffffffffffffffffffffff1673ffffffffffffffffffffffffffffffffffffffff163373ffffffffffffffffffffffffffffffffffffffff1614610b76576040517f08c379a0000000000000000000000000000000000000000000000000000000008152600401610b6d90611b63565b60405180910390fd5b600060075466038d7ea4c6800060065484610b919190611a4c565b610b9b9190611a4c565b610ba59190611abd565b905080610bb18461063c565b1015610bf2576040517f08c379a0000000000000000000000000000000000000000000000000000000008152600401610be990611bcf565b60405180910390fd5b610bfc838261139f565b8273ffffffffffffffffffffffffffffffffffffffff167fccbea4088a3b7ae9ca2d15fab9a9742a4075b4d7247768a1eecea917565aba008383604051610c44929190611aee565b60405180910390a2505050565b600560009054906101000a900473ffffffffffffffffffffffffffffffffffffffff1673ffffffffffffffffffffffffffffffffffffffff163373ffffffffffffffffffffffffffffffffffffffff1614610ce1576040517f08c379a0000000000000000000000000000000000000000000000000000000008152600401610cd890611a2c565b60405180910390fd5b600060075466038d7ea4c6800083610cf99190611a4c565b610d039190611abd565b9050610d0f8382611240565b8273ffffffffffffffffffffffffffffffffffffffff167f2e8ac5177a616f2aec08c3048f5021e4e9743ece034e8d83ba5caf76688bb4758383604051610d57929190611aee565b60405180910390a2505050565b600033905090565b600073ffffffffffffffffffffffffffffffffffffffff168373ffffffffffffffffffffffffffffffffffffffff1603610ddb576040517f08c379a0000000000000000000000000000000000000000000000000000000008152600401610dd290611c61565b60405180910390fd5b600073ffffffffffffffffffffffffffffffffffffffff168273ffffffffffffffffffffffffffffffffffffffff1603610e4a576040517f08c379a0000000000000000000000000000000000000000000000000000000008152600401610e4190611cf3565b60405180910390fd5b80600160008573ffffffffffffffffffffffffffffffffffffffff1673ffffffffffffffffffffffffffffffffffffffff16815260200190815260200160002060008473ffffffffffffffffffffffffffffffffffffffff1673ffffffffffffffffffffffffffffffffffffffff168152602001908152602001600020819055508173ffffffffffffffffffffffffffffffffffffffff168373ffffffffffffffffffffffffffffffffffffffff167f8c5be1e5ebec7d5bd14f71427d1e84f3dd0314c0f7b2291e5b200ac8c7c3b92583604051610f28919061174f565b60405180910390a3505050565b6000610f418484610a5f565b90507fffffffffffffffffffffffffffffffffffffffffffffffffffffffffffffffff8114610fbb5781811015610fad576040517f08c379a0000000000000000000000000000000000000000000000000000000008152600401610fa490611d5f565b60405180910390fd5b610fba8484848403610d6c565b5b50505050565b600073ffffffffffffffffffffffffffffffffffffffff168373ffffffffffffffffffffffffffffffffffffffff1603611030576040517f08c379a000000000000000000000000000000000000000000000000000000000815260040161102790611df1565b60405180910390fd5b600073ffffffffffffffffffffffffffffffffffffffff168273ffffffffffffffffffffffffffffffffffffffff160361109f576040517f08c379a000000000000000000000000000000000000000000000000000000000815260040161109690611e83565b60405180910390fd5b6110aa838383611575565b60008060008573ffffffffffffffffffffffffffffffffffffffff1673ffffffffffffffffffffffffffffffffffffffff16815260200190815260200160002054905081811015611130576040517f08c379a000000000000000000000000000000000000000000000000000000000815260040161112790611f15565b60405180910390fd5b8181036000808673ffffffffffffffffffffffffffffffffffffffff1673ffffffffffffffffffffffffffffffffffffffff16815260200190815260200160002081905550816000808573ffffffffffffffffffffffffffffffffffffffff1673ffffffffffffffffffffffffffffffffffffffff16815260200190815260200160002060008282546111c3919061191a565b925050819055508273ffffffffffffffffffffffffffffffffffffffff168473ffffffffffffffffffffffffffffffffffffffff167fddf252ad1be2c89b69c2b068fc378daa952ba7f163c4a11628f55a4df523b3ef84604051611227919061174f565b60405180910390a361123a84848461157a565b50505050565b600073ffffffffffffffffffffffffffffffffffffffff168273ffffffffffffffffffffffffffffffffffffffff16036112af576040517f08c379a00000000000000000000000000000000000000000000000000000000081526004016112a690611f81565b60405180910390fd5b6112bb60008383611575565b80600260008282546112cd919061191a565b92505081905550806000808473ffffffffffffffffffffffffffffffffffffffff1673ffffffffffffffffffffffffffffffffffffffff1681526020019081526020016000206000828254611322919061191a565b925050819055508173ffffffffffffffffffffffffffffffffffffffff16600073ffffffffffffffffffffffffffffffffffffffff167fddf252ad1be2c89b69c2b068fc378daa952ba7f163c4a11628f55a4df523b3ef83604051611387919061174f565b60405180910390a361139b6000838361157a565b5050565b600073ffffffffffffffffffffffffffffffffffffffff168273ffffffffffffffffffffffffffffffffffffffff160361140e576040517f08c379a000000000000000000000000000000000000000000000000000000000815260040161140590612013565b60405180910390fd5b61141a82600083611575565b60008060008473ffffffffffffffffffffffffffffffffffffffff1673ffffffffffffffffffffffffffffffffffffffff168152602001908152602001600020549050818110156114a0576040517f08c379a0000000000000000000000000000000000000000000000000000000008152600401611497906120a5565b60405180910390fd5b8181036000808573ffffffffffffffffffffffffffffffffffffffff1673ffffffffffffffffffffffffffffffffffffffff1681526020019081526020016000208190555081600260008282546114f791906120c5565b92505081905550600073ffffffffffffffffffffffffffffffffffffffff168373ffffffffffffffffffffffffffffffffffffffff167fddf252ad1be2c89b69c2b068fc378daa952ba7f163c4a11628f55a4df523b3ef8460405161155c919061174f565b60405180910390a36115708360008461157a565b505050565b505050565b505050565b600081519050919050565b600082825260208201905092915050565b60005b838110156115b957808201518184015260208101905061159e565b60008484015250505050565b6000601f19601f8301169050919050565b60006115e18261157f565b6115eb818561158a565b93506115fb81856020860161159b565b611604816115c5565b840191505092915050565b6000602082019050818103600083015261162981846115d6565b905092915050565b600080fd5b600073ffffffffffffffffffffffffffffffffffffffff82169050919050565b600061166182611636565b9050919050565b61167181611656565b811461167c57600080fd5b50565b60008135905061168e81611668565b92915050565b6000819050919050565b6116a781611694565b81146116b257600080fd5b50565b6000813590506116c48161169e565b92915050565b600080604083850312156116e1576116e0611631565b5b60006116ef8582860161167f565b9250506020611700858286016116b5565b9150509250929050565b60008115159050919050565b61171f8161170a565b82525050565b600060208201905061173a6000830184611716565b92915050565b61174981611694565b82525050565b60006020820190506117646000830184611740565b92915050565b60008060006060848603121561178357611782611631565b5b60006117918682870161167f565b93505060206117a28682870161167f565b92505060406117b3868287016116b5565b9150509250925092565b600060ff82169050919050565b6117d3816117bd565b82525050565b60006020820190506117ee60008301846117ca565b92915050565b60006020828403121561180a57611809611631565b5b60006118188482850161167f565b91505092915050565b61182a81611656565b82525050565b60006020820190506118456000830184611821565b92915050565b6000806040838503121561186257611861611631565b5b60006118708582860161167f565b92505060206118818582860161167f565b9150509250929050565b7f4e487b7100000000000000000000000000000000000000000000000000000000600052602260045260246000fd5b600060028204905060018216806118d257607f821691505b6020821081036118e5576118e461188b565b5b50919050565b7f4e487b7100000000000000000000000000000000000000000000000000000000600052601160045260246000fd5b600061192582611694565b915061193083611694565b9250828201905080821115611948576119476118eb565b5b92915050565b7f45524332303a2064656372656173656420616c6c6f77616e63652062656c6f7760008201527f207a65726f000000000000000000000000000000000000000000000000000000602082015250565b60006119aa60258361158a565b91506119b58261194e565b604082019050919050565b600060208201905081810360008301526119d98161199d565b9050919050565b7f4f6e6c79206f776e65722063616e206d696e7420746f6b656e73000000000000600082015250565b6000611a16601a8361158a565b9150611a21826119e0565b602082019050919050565b60006020820190508181036000830152611a4581611a09565b9050919050565b6000611a5782611694565b9150611a6283611694565b9250828202611a7081611694565b91508282048414831517611a8757611a866118eb565b5b5092915050565b7f4e487b7100000000000000000000000000000000000000000000000000000000600052601260045260246000fd5b6000611ac882611694565b9150611ad383611694565b925082611ae357611ae2611a8e565b5b828204905092915050565b6000604082019050611b036000830185611740565b611b106020830184611740565b9392505050565b7f4f6e6c79206f776e65722063616e206275726e20746f6b656e73000000000000600082015250565b6000611b4d601a8361158a565b9150611b5882611b17565b602082019050919050565b60006020820190508181036000830152611b7c81611b40565b9050919050565b7f496e73756666696369656e742062616c616e6365000000000000000000000000600082015250565b6000611bb960148361158a565b9150611bc482611b83565b602082019050919050565b60006020820190508181036000830152611be881611bac565b9050919050565b7f45524332303a20617070726f76652066726f6d20746865207a65726f2061646460008201527f7265737300000000000000000000000000000000000000000000000000000000602082015250565b6000611c4b60248361158a565b9150611c5682611bef565b604082019050919050565b60006020820190508181036000830152611c7a81611c3e565b9050919050565b7f45524332303a20617070726f766520746f20746865207a65726f20616464726560008201527f7373000000000000000000000000000000000000000000000000000000000000602082015250565b6000611cdd60228361158a565b9150611ce882611c81565b604082019050919050565b60006020820190508181036000830152611d0c81611cd0565b9050919050565b7f45524332303a20696e73756666696369656e7420616c6c6f77616e6365000000600082015250565b6000611d49601d8361158a565b9150611d5482611d13565b602082019050919050565b60006020820190508181036000830152611d7881611d3c565b9050919050565b7f45524332303a207472616e736665722066726f6d20746865207a65726f20616460008201527f6472657373000000000000000000000000000000000000000000000000000000602082015250565b6000611ddb60258361158a565b9150611de682611d7f565b604082019050919050565b60006020820190508181036000830152611e0a81611dce565b9050919050565b7f45524332303a207472616e7366657220746f20746865207a65726f206164647260008201527f6573730000000000000000000000000000000000000000000000000000000000602082015250565b6000611e6d60238361158a565b9150611e7882611e11565b604082019050919050565b60006020820190508181036000830152611e9c81611e60565b9050919050565b7f45524332303a207472616e7366657220616d6f756e742065786365656473206260008201527f616c616e63650000000000000000000000000000000000000000000000000000602082015250565b6000611eff60268361158a565b9150611f0a82611ea3565b604082019050919050565b60006020820190508181036000830152611f2e81611ef2565b9050919050565b7f45524332303a206d696e7420746f20746865207a65726f206164647265737300600082015250565b6000611f6b601f8361158a565b9150611f7682611f35565b602082019050919050565b60006020820190508181036000830152611f9a81611f5e565b9050919050565b7f45524332303a206275726e2066726f6d20746865207a65726f2061646472657360008201527f7300000000000000000000000000000000000000000000000000000000000000602082015250565b6000611ffd60218361158a565b915061200882611fa1565b604082019050919050565b6000602082019050818103600083015261202c81611ff0565b9050919050565b7f45524332303a206275726e20616d6f756e7420657863656564732062616c616e60008201527f6365000000000000000000000000000000000000000000000000000000000000602082015250565b600061208f60228361158a565b915061209a82612033565b604082019050919050565b600060208201905081810360008301526120be81612082565b9050919050565b60006120d082611694565b91506120db83611694565b92508282039050818111156120f3576120f26118eb565b5b9291505056fea2646970667358221220ad5ccfbcb032612e6ee3f3edb740104c1fb4e774472bbc2762362913575bf14c64736f6c63430008180033",
  "linkReferences": {},
  "deployedLinkReferences": {}
}