{
  "_format": "hh-sol-artifact-1",
  "contractName": "LendingPool",
  "sourceName": "contracts/LendingPool.sol",
  "abi": [
    {
      "inputs": [],
      "stateMutability": "nonpayable",
      "type": "constructor"
    },
    {
      "anonymous": false,
      "inputs": [
        {
          "indexed": false,
          "internalType": "address",
          "name": "account",
          "type": "address"
        },
        {
          "indexed": false,
          "internalType": "uint256",
          "name": "balance",
          "type": "uint256"
        }
      ],
      "name": "BalanceAfterDeposit",
      "type": "event"
    },
    {
      "anonymous": false,
      "inputs": [
        {
          "indexed": false,
          "internalType": "address",
          "name": "account",
          "type": "address"
        },
        {
          "indexed": false,
          "internalType": "uint256",
          "name": "balance",
          "type": "uint256"
        }
      ],
      "name": "BalanceAfterWithdrawal",
      "type": "event"
    },
    {
      "anonymous": false,
      "inputs": [
        {
          "indexed": true,
          "internalType": "address",
          "name": "user",
          "type": "address"
        },
        {
          "indexed": false,
          "internalType": "uint256",
          "name": "amount",
          "type": "uint256"
        }
      ],
      "name": "Borrow",
      "type": "event"
    },
    {
      "anonymous": false,
      "inputs": [
        {
          "indexed": true,
          "internalType": "address",
          "name": "user",
          "type": "address"
        },
        {
          "indexed": false,
          "internalType": "uint256",
          "name": "amount",
          "type": "uint256"
        },
        {
          "indexed": false,
          "internalType": "uint256",
          "name": "tokensMinted",
          "type": "uint256"
        }
      ],
      "name": "Deposit",
      "type": "event"
    },
    {
      "anonymous": false,
      "inputs": [
        {
          "indexed": true,
          "internalType": "address",
          "name": "user",
          "type": "address"
        },
        {
          "indexed": false,
          "internalType": "uint256",
          "name": "amount",
          "type": "uint256"
        }
      ],
      "name": "Repay",
      "type": "event"
    },
    {
      "anonymous": false,
      "inputs": [
        {
          "indexed": true,
          "internalType": "address",
          "name": "user",
          "type": "address"
        },
        {
          "indexed": false,
          "internalType": "uint256",
          "name": "amount",
          "type": "uint256"
        }
      ],
      "name": "Withdraw",
      "type": "event"
    },
    {
      "inputs": [],
      "name": "MTC_price",
      "outputs": [
        {
          "internalType": "uint256",
          "name": "",
          "type": "uint256"
        }
      ],
      "stateMutability": "view",
      "type": "function"
    },
    {
      "inputs": [
        {
          "internalType": "address",
          "name": "",
          "type": "address"
        }
      ],
      "name": "borrowable_amount",
      "outputs": [
        {
          "internalType": "uint256",
          "name": "",
          "type": "uint256"
        }
      ],
      "stateMutability": "view",
      "type": "function"
    },
    {
      "inputs": [
        {
          "internalType": "address",
          "name": "",
          "type": "address"
        }
      ],
      "name": "borrowedAmounts",
      "outputs": [
        {
          "internalType": "uint256",
          "name": "",
          "type": "uint256"
        }
      ],
      "stateMutability": "view",
      "type": "function"
    },
    {
      "inputs": [
        {
          "internalType": "address",
          "name": "",
          "type": "address"
        }
      ],
      "name": "collateral",
      "outputs": [
        {
          "internalType": "uint256",
          "name": "",
          "type": "uint256"
        }
      ],
      "stateMutability": "view",
      "type": "function"
    },
    {
      "inputs": [],
      "name": "depositIBT",
      "outputs": [],
      "stateMutability": "payable",
      "type": "function"
    },
    {
      "inputs": [],
      "name": "depositMATIC",
      "outputs": [],
      "stateMutability": "payable",
      "type": "function"
    },
    {
      "inputs": [
        {
          "internalType": "address",
          "name": "",
          "type": "address"
        }
      ],
      "name": "ibt_accruedInterest",
      "outputs": [
        {
          "internalType": "uint256",
          "name": "",
          "type": "uint256"
        }
      ],
      "stateMutability": "view",
      "type": "function"
    },
    {
      "inputs": [
        {
          "internalType": "address",
          "name": "",
          "type": "address"
        }
      ],
      "name": "ibt_balances",
      "outputs": [
        {
          "internalType": "uint256",
          "name": "",
          "type": "uint256"
        }
      ],
      "stateMutability": "view",
      "type": "function"
    },
    {
      "inputs": [
        {
          "internalType": "address",
          "name": "",
          "type": "address"
        }
      ],
      "name": "ibt_deposit_timestamp",
      "outputs": [
        {
          "internalType": "uint256",
          "name": "",
          "type": "uint256"
        }
      ],
      "stateMutability": "view",
      "type": "function"
    },
    {
      "inputs": [
        {
          "internalType": "address",
          "name": "",
          "type": "address"
        }
      ],
      "name": "ibt_interest_balances",
      "outputs": [
        {
          "internalType": "uint256",
          "name": "",
          "type": "uint256"
        }
      ],
      "stateMutability": "view",
      "type": "function"
    },
    {
      "inputs": [],
      "name": "ibt_isFirstWithdraw",
      "outputs": [
        {
          "internalType": "bool",
          "name": "",
          "type": "bool"
        }
      ],
      "stateMutability": "view",
      "type": "function"
    },
    {
      "inputs": [],
      "name": "ibt_totalDeposits",
      "outputs": [
        {
          "internalType": "uint256",
          "name": "",
          "type": "uint256"
        }
      ],
      "stateMutability": "view",
      "type": "function"
    },
    {
      "inputs": [
        {
          "internalType": "address",
          "name": "",
          "type": "address"
        }
      ],
      "name": "ibt_withdrawInterest",
      "outputs": [
        {
          "internalType": "uint256",
          "name": "",
          "type": "uint256"
        }
      ],
      "stateMutability": "view",
      "type": "function"
    },
    {
      "inputs": [
        {
          "internalType": "address",
          "name": "",
          "type": "address"
        }
      ],
      "name": "isBorrower",
      "outputs": [
        {
          "internalType": "bool",
          "name": "",
          "type": "bool"
        }
      ],
      "stateMutability": "view",
      "type": "function"
    },
    {
      "inputs": [
        {
          "internalType": "address",
          "name": "",
          "type": "address"
        }
      ],
      "name": "isFirstRepay",
      "outputs": [
        {
          "internalType": "bool",
          "name": "",
          "type": "bool"
        }
      ],
      "stateMutability": "view",
      "type": "function"
    },
    {
      "inputs": [
        {
          "internalType": "address",
          "name": "",
          "type": "address"
        }
      ],
      "name": "matic_accruedInterest",
      "outputs": [
        {
          "internalType": "uint256",
          "name": "",
          "type": "uint256"
        }
      ],
      "stateMutability": "view",
      "type": "function"
    },
    {
      "inputs": [
        {
          "internalType": "address",
          "name": "",
          "type": "address"
        }
      ],
      "name": "matic_balances",
      "outputs": [
        {
          "internalType": "uint256",
          "name": "",
          "type": "uint256"
        }
      ],
      "stateMutability": "view",
      "type": "function"
    },
    {
      "inputs": [
        {
          "internalType": "address",
          "name": "",
          "type": "address"
        }
      ],
      "name": "matic_deposit_timestamp",
      "outputs": [
        {
          "internalType": "uint256",
          "name": "",
          "type": "uint256"
        }
      ],
      "stateMutability": "view",
      "type": "function"
    },
    {
      "inputs": [
        {
          "internalType": "address",
          "name": "",
          "type": "address"
        }
      ],
      "name": "matic_interest_balances",
      "outputs": [
        {
          "internalType": "uint256",
          "name": "",
          "type": "uint256"
        }
      ],
      "stateMutability": "view",
      "type": "function"
    },
    {
      "inputs": [],
      "name": "matic_isFirstWithdraw",
      "outputs": [
        {
          "internalType": "bool",
          "name": "",
          "type": "bool"
        }
      ],
      "stateMutability": "view",
      "type": "function"
    },
    {
      "inputs": [],
      "name": "matic_totalDeposits",
      "outputs": [
        {
          "internalType": "uint256",
          "name": "",
          "type": "uint256"
        }
      ],
      "stateMutability": "view",
      "type": "function"
    },
    {
      "inputs": [
        {
          "internalType": "address",
          "name": "",
          "type": "address"
        }
      ],
      "name": "matic_withdrawInterest",
      "outputs": [
        {
          "internalType": "uint256",
          "name": "",
          "type": "uint256"
        }
      ],
      "stateMutability": "view",
      "type": "function"
    },
    {
      "inputs": [
        {
          "internalType": "address",
          "name": "",
          "type": "address"
        }
      ],
      "name": "repayable_interest",
      "outputs": [
        {
          "internalType": "uint256",
          "name": "",
          "type": "uint256"
        }
      ],
      "stateMutability": "view",
      "type": "function"
    },
    {
      "inputs": [
        {
          "internalType": "address",
          "name": "",
          "type": "address"
        }
      ],
      "name": "timestamp_borrow",
      "outputs": [
        {
          "internalType": "uint256",
          "name": "",
          "type": "uint256"
        }
      ],
      "stateMutability": "view",
      "type": "function"
    },
    {
      "inputs": [],
      "name": "token",
      "outputs": [
        {
          "internalType": "contract AToken",
          "name": "",
          "type": "address"
        }
      ],
      "stateMutability": "view",
      "type": "function"
    },
    {
      "inputs": [
        {
          "internalType": "uint256",
          "name": "_amount",
          "type": "uint256"
        }
      ],
      "name": "withdrawIBT",
      "outputs": [],
      "stateMutability": "nonpayable",
      "type": "function"
    },
    {
      "inputs": [
        {
          "internalType": "uint256",
          "name": "_amount",
          "type": "uint256"
        }
      ],
      "name": "withdrawMATIC",
      "outputs": [],
      "stateMutability": "nonpayable",
      "type": "function"
    }
  ],
  "bytecode": "0x60806040523480156200001157600080fd5b50604051620000209062000084565b604051809103906000f0801580156200003d573d6000803e3d6000fd5b50601560006101000a81548173ffffffffffffffffffffffffffffffffffffffff021916908373ffffffffffffffffffffffffffffffffffffffff16021790555062000092565b61262d806200306683390190565b612fc480620000a26000396000f3fe60806040526004361061019c5760003560e01c8063818e1777116100ec578063c21c8add1161008a578063eaf6e48311610064578063eaf6e48314610679578063f2954d6a146106b6578063f5e8ba27146106e1578063fc0c546a146106eb5761019c565b8063c21c8add146105d4578063e90f98ab146105ff578063ea10a2451461063c5761019c565b8063a02579e2116100c6578063a02579e2146104e0578063a5fdc5de1461051d578063bc041dad1461055a578063beae4b89146105975761019c565b8063818e17771461044f57806384bd3a041461048c57806388c564ad146104b55761019c565b806350fc56f711610159578063749667821161013357806374966782146103935780637d69e5f8146103d05780637e51013c146103fb578063816837e3146104265761019c565b806350fc56f7146102dc57806369307fcc146103195780636ae8b8f6146103565761019c565b8063062a2a5d146101a15780631d9053e0146101de57806320ec5ea0146101e857806324427c6a1461022557806333352b5114610262578063478230f71461029f575b600080fd5b3480156101ad57600080fd5b506101c860048036038101906101c391906129d5565b610716565b6040516101d59190612a1b565b60405180910390f35b6101e661072e565b005b3480156101f457600080fd5b5061020f600480360381019061020a91906129d5565b610d8e565b60405161021c9190612a1b565b60405180910390f35b34801561023157600080fd5b5061024c600480360381019061024791906129d5565b610da6565b6040516102599190612a1b565b60405180910390f35b34801561026e57600080fd5b50610289600480360381019061028491906129d5565b610dbe565b6040516102969190612a51565b60405180910390f35b3480156102ab57600080fd5b506102c660048036038101906102c191906129d5565b610dde565b6040516102d39190612a1b565b60405180910390f35b3480156102e857600080fd5b5061030360048036038101906102fe91906129d5565b610df6565b6040516103109190612a1b565b60405180910390f35b34801561032557600080fd5b50610340600480360381019061033b91906129d5565b610e0e565b60405161034d9190612a1b565b60405180910390f35b34801561036257600080fd5b5061037d600480360381019061037891906129d5565b610e26565b60405161038a9190612a1b565b60405180910390f35b34801561039f57600080fd5b506103ba60048036038101906103b591906129d5565b610e3e565b6040516103c79190612a1b565b60405180910390f35b3480156103dc57600080fd5b506103e5610e56565b6040516103f29190612a51565b60405180910390f35b34801561040757600080fd5b50610410610e69565b60405161041d9190612a1b565b60405180910390f35b34801561043257600080fd5b5061044d60048036038101906104489190612a98565b610e6f565b005b34801561045b57600080fd5b50610476600480360381019061047191906129d5565b611742565b6040516104839190612a1b565b60405180910390f35b34801561049857600080fd5b506104b360048036038101906104ae9190612a98565b61175a565b005b3480156104c157600080fd5b506104ca61206b565b6040516104d79190612a51565b60405180910390f35b3480156104ec57600080fd5b50610507600480360381019061050291906129d5565b61207e565b6040516105149190612a1b565b60405180910390f35b34801561052957600080fd5b50610544600480360381019061053f91906129d5565b612096565b6040516105519190612a1b565b60405180910390f35b34801561056657600080fd5b50610581600480360381019061057c91906129d5565b6120ae565b60405161058e9190612a1b565b60405180910390f35b3480156105a357600080fd5b506105be60048036038101906105b991906129d5565b6120c6565b6040516105cb9190612a1b565b60405180910390f35b3480156105e057600080fd5b506105e96120de565b6040516105f69190612a1b565b60405180910390f35b34801561060b57600080fd5b50610626600480360381019061062191906129d5565b6120e4565b6040516106339190612a1b565b60405180910390f35b34801561064857600080fd5b50610663600480360381019061065e91906129d5565b6120fc565b6040516106709190612a1b565b60405180910390f35b34801561068557600080fd5b506106a0600480360381019061069b91906129d5565b612114565b6040516106ad9190612a51565b60405180910390f35b3480156106c257600080fd5b506106cb612134565b6040516106d89190612a1b565b60405180910390f35b6106e961213a565b005b3480156106f757600080fd5b506107006127ca565b60405161070d9190612b24565b60405180910390f35b60056020528060005260406000206000915090505481565b60003490506709fdf42f6e48000060088190555060008111610785576040517f08c379a000000000000000000000000000000000000000000000000000000000815260040161077c90612b9c565b60405180910390fd5b601560009054906101000a900473ffffffffffffffffffffffffffffffffffffffff1673ffffffffffffffffffffffffffffffffffffffff1663a4fa277433836040518363ffffffff1660e01b81526004016107e2929190612bcb565b600060405180830381600087803b1580156107fc57600080fd5b505af1158015610810573d6000803e3d6000fd5b50505050806000803373ffffffffffffffffffffffffffffffffffffffff1673ffffffffffffffffffffffffffffffffffffffff16815260200190815260200160002060008282546108629190612c23565b92505081905550600a60085460076000803373ffffffffffffffffffffffffffffffffffffffff1673ffffffffffffffffffffffffffffffffffffffff168152602001908152602001600020546108b99190612c57565b6108c39190612c57565b6108cd9190612cc8565b601460003373ffffffffffffffffffffffffffffffffffffffff1673ffffffffffffffffffffffffffffffffffffffff1681526020019081526020016000208190555080600960008282546109229190612c23565b92505081905550806000803373ffffffffffffffffffffffffffffffffffffffff1673ffffffffffffffffffffffffffffffffffffffff1681526020019081526020016000205403610a5b576001601160016101000a81548160ff02191690831515021790555042600c60003373ffffffffffffffffffffffffffffffffffffffff1673ffffffffffffffffffffffffffffffffffffffff168152602001908152602001600020819055506000600d60003373ffffffffffffffffffffffffffffffffffffffff1673ffffffffffffffffffffffffffffffffffffffff1681526020019081526020016000208190555080600b60003373ffffffffffffffffffffffffffffffffffffffff1673ffffffffffffffffffffffffffffffffffffffff16815260200190815260200160002081905550610bed565b620f42406000803373ffffffffffffffffffffffffffffffffffffffff1673ffffffffffffffffffffffffffffffffffffffff16815260200190815260200160002054600c60003373ffffffffffffffffffffffffffffffffffffffff1673ffffffffffffffffffffffffffffffffffffffff1681526020019081526020016000205442610ae99190612cf9565b610af39190612c57565b610afd9190612cc8565b600d60003373ffffffffffffffffffffffffffffffffffffffff1673ffffffffffffffffffffffffffffffffffffffff1681526020019081526020016000206000828254610b4b9190612c23565b9250508190555042600c60003373ffffffffffffffffffffffffffffffffffffffff1673ffffffffffffffffffffffffffffffffffffffff1681526020019081526020016000208190555080600b60003373ffffffffffffffffffffffffffffffffffffffff1673ffffffffffffffffffffffffffffffffffffffff1681526020019081526020016000206000828254610be59190612c23565b925050819055505b610c346000803373ffffffffffffffffffffffffffffffffffffffff1673ffffffffffffffffffffffffffffffffffffffff168152602001908152602001600020546127f0565b610c7c600c60003373ffffffffffffffffffffffffffffffffffffffff1673ffffffffffffffffffffffffffffffffffffffff168152602001908152602001600020546127f0565b610cc4600d60003373ffffffffffffffffffffffffffffffffffffffff1673ffffffffffffffffffffffffffffffffffffffff168152602001908152602001600020546127f0565b3373ffffffffffffffffffffffffffffffffffffffff167f90890809c654f11d6e72a28fa60149770a0d11ec6c92319d6ceb2bb0a4ea1a158283604051610d0c929190612d2d565b60405180910390a27fdeaf03adaa870bd18d29c07613b960326f8b269698f66bb8c2e9efc5ae46705e336000803373ffffffffffffffffffffffffffffffffffffffff1673ffffffffffffffffffffffffffffffffffffffff16815260200190815260200160002054604051610d83929190612bcb565b60405180910390a150565b60126020528060005260406000206000915090505481565b60106020528060005260406000206000915090505481565b60066020528060005260406000206000915054906101000a900460ff1681565b60036020528060005260406000206000915090505481565b600e6020528060005260406000206000915090505481565b60006020528060005260406000206000915090505481565b60146020528060005260406000206000915090505481565b60076020528060005260406000206000915090505481565b601160019054906101000a900460ff1681565b600a5481565b6000429050610ebb6000803373ffffffffffffffffffffffffffffffffffffffff1673ffffffffffffffffffffffffffffffffffffffff168152602001908152602001600020546127f0565b816000803373ffffffffffffffffffffffffffffffffffffffff1673ffffffffffffffffffffffffffffffffffffffff168152602001908152602001600020541015610f3c576040517f08c379a0000000000000000000000000000000000000000000000000000000008152600401610f3390612da2565b60405180910390fd5b601160019054906101000a900460ff161561121457620f42406000803373ffffffffffffffffffffffffffffffffffffffff1673ffffffffffffffffffffffffffffffffffffffff16815260200190815260200160002054600c60003373ffffffffffffffffffffffffffffffffffffffff1673ffffffffffffffffffffffffffffffffffffffff1681526020019081526020016000205483610fdf9190612cf9565b610fe99190612c57565b610ff39190612cc8565b600d60003373ffffffffffffffffffffffffffffffffffffffff1673ffffffffffffffffffffffffffffffffffffffff1681526020019081526020016000205461103d9190612c23565b601360003373ffffffffffffffffffffffffffffffffffffffff1673ffffffffffffffffffffffffffffffffffffffff168152602001908152602001600020819055506110c8601360003373ffffffffffffffffffffffffffffffffffffffff1673ffffffffffffffffffffffffffffffffffffffff168152602001908152602001600020546127f0565b3373ffffffffffffffffffffffffffffffffffffffff166108fc601360003373ffffffffffffffffffffffffffffffffffffffff1673ffffffffffffffffffffffffffffffffffffffff168152602001908152602001600020548461112d9190612c23565b9081150290604051600060405180830381858888f19350505050158015611158573d6000803e3d6000fd5b506000601360003373ffffffffffffffffffffffffffffffffffffffff1673ffffffffffffffffffffffffffffffffffffffff1681526020019081526020016000208190555081600b60003373ffffffffffffffffffffffffffffffffffffffff1673ffffffffffffffffffffffffffffffffffffffff16815260200190815260200160002060008282546111ed9190612cf9565b925050819055506000601160016101000a81548160ff021916908315150217905550611483565b601160019054906101000a900460ff1661148257620f42406000803373ffffffffffffffffffffffffffffffffffffffff1673ffffffffffffffffffffffffffffffffffffffff16815260200190815260200160002054600c60003373ffffffffffffffffffffffffffffffffffffffff1673ffffffffffffffffffffffffffffffffffffffff16815260200190815260200160002054836112b69190612cf9565b6112c09190612c57565b6112ca9190612cc8565b601360003373ffffffffffffffffffffffffffffffffffffffff1673ffffffffffffffffffffffffffffffffffffffff16815260200190815260200160002081905550611355601360003373ffffffffffffffffffffffffffffffffffffffff1673ffffffffffffffffffffffffffffffffffffffff168152602001908152602001600020546127f0565b3373ffffffffffffffffffffffffffffffffffffffff166108fc601360003373ffffffffffffffffffffffffffffffffffffffff1673ffffffffffffffffffffffffffffffffffffffff16815260200190815260200160002054846113ba9190612c23565b9081150290604051600060405180830381858888f193505050501580156113e5573d6000803e3d6000fd5b5081600b60003373ffffffffffffffffffffffffffffffffffffffff1673ffffffffffffffffffffffffffffffffffffffff16815260200190815260200160002060008282546114359190612cf9565b925050819055506000601360003373ffffffffffffffffffffffffffffffffffffffff1673ffffffffffffffffffffffffffffffffffffffff168152602001908152602001600020819055505b5b80600c60003373ffffffffffffffffffffffffffffffffffffffff1673ffffffffffffffffffffffffffffffffffffffff16815260200190815260200160002081905550601560009054906101000a900473ffffffffffffffffffffffffffffffffffffffff1673ffffffffffffffffffffffffffffffffffffffff1663e16dd03d33846040518363ffffffff1660e01b8152600401611524929190612bcb565b600060405180830381600087803b15801561153e57600080fd5b505af1158015611552573d6000803e3d6000fd5b50505050816000803373ffffffffffffffffffffffffffffffffffffffff1673ffffffffffffffffffffffffffffffffffffffff16815260200190815260200160002060008282546115a49190612cf9565b92505081905550600a60076008546000803373ffffffffffffffffffffffffffffffffffffffff1673ffffffffffffffffffffffffffffffffffffffff168152602001908152602001600020546115fb9190612c57565b6116059190612c57565b61160f9190612cc8565b601460003373ffffffffffffffffffffffffffffffffffffffff1673ffffffffffffffffffffffffffffffffffffffff1681526020019081526020016000208190555081600960008282546116649190612cf9565b925050819055506116a96040518060400160405280600f81526020017f42616c616e636573204c656674203a0000000000000000000000000000000000815250612889565b6116f06000803373ffffffffffffffffffffffffffffffffffffffff1673ffffffffffffffffffffffffffffffffffffffff168152602001908152602001600020546127f0565b3373ffffffffffffffffffffffffffffffffffffffff167f884edad9ce6fa2440d8a54cc123490eb96d2768479d49ff9c7366125a9424364836040516117369190612a1b565b60405180910390a25050565b600d6020528060005260406000206000915090505481565b60004290506117a7600160003373ffffffffffffffffffffffffffffffffffffffff1673ffffffffffffffffffffffffffffffffffffffff168152602001908152602001600020546127f0565b81600160003373ffffffffffffffffffffffffffffffffffffffff1673ffffffffffffffffffffffffffffffffffffffff168152602001908152602001600020541015611829576040517f08c379a000000000000000000000000000000000000000000000000000000000815260040161182090612da2565b60405180910390fd5b601560009054906101000a900473ffffffffffffffffffffffffffffffffffffffff1673ffffffffffffffffffffffffffffffffffffffff1663a9059cbb33846040518363ffffffff1660e01b8152600401611886929190612bcb565b6020604051808303816000875af11580156118a5573d6000803e3d6000fd5b505050506040513d601f19601f820116820180604052508101906118c99190612dee565b611908576040517f08c379a00000000000000000000000000000000000000000000000000000000081526004016118ff90612e67565b60405180910390fd5b601160009054906101000a900460ff1615611be157620f4240600160003373ffffffffffffffffffffffffffffffffffffffff1673ffffffffffffffffffffffffffffffffffffffff16815260200190815260200160002054600f60003373ffffffffffffffffffffffffffffffffffffffff1673ffffffffffffffffffffffffffffffffffffffff16815260200190815260200160002054836119ac9190612cf9565b6119b69190612c57565b6119c09190612cc8565b601060003373ffffffffffffffffffffffffffffffffffffffff1673ffffffffffffffffffffffffffffffffffffffff16815260200190815260200160002054611a0a9190612c23565b601260003373ffffffffffffffffffffffffffffffffffffffff1673ffffffffffffffffffffffffffffffffffffffff16815260200190815260200160002081905550611a95601260003373ffffffffffffffffffffffffffffffffffffffff1673ffffffffffffffffffffffffffffffffffffffff168152602001908152602001600020546127f0565b3373ffffffffffffffffffffffffffffffffffffffff166108fc601260003373ffffffffffffffffffffffffffffffffffffffff1673ffffffffffffffffffffffffffffffffffffffff1681526020019081526020016000205484611afa9190612c23565b9081150290604051600060405180830381858888f19350505050158015611b25573d6000803e3d6000fd5b506000601260003373ffffffffffffffffffffffffffffffffffffffff1673ffffffffffffffffffffffffffffffffffffffff1681526020019081526020016000208190555081600e60003373ffffffffffffffffffffffffffffffffffffffff1673ffffffffffffffffffffffffffffffffffffffff1681526020019081526020016000206000828254611bba9190612cf9565b925050819055506000601160006101000a81548160ff021916908315150217905550611e51565b601160009054906101000a900460ff16611e5057620f4240600160003373ffffffffffffffffffffffffffffffffffffffff1673ffffffffffffffffffffffffffffffffffffffff16815260200190815260200160002054600f60003373ffffffffffffffffffffffffffffffffffffffff1673ffffffffffffffffffffffffffffffffffffffff1681526020019081526020016000205483611c849190612cf9565b611c8e9190612c57565b611c989190612cc8565b601260003373ffffffffffffffffffffffffffffffffffffffff1673ffffffffffffffffffffffffffffffffffffffff16815260200190815260200160002081905550611d23601260003373ffffffffffffffffffffffffffffffffffffffff1673ffffffffffffffffffffffffffffffffffffffff168152602001908152602001600020546127f0565b3373ffffffffffffffffffffffffffffffffffffffff166108fc601260003373ffffffffffffffffffffffffffffffffffffffff1673ffffffffffffffffffffffffffffffffffffffff1681526020019081526020016000205484611d889190612c23565b9081150290604051600060405180830381858888f19350505050158015611db3573d6000803e3d6000fd5b5081600e60003373ffffffffffffffffffffffffffffffffffffffff1673ffffffffffffffffffffffffffffffffffffffff1681526020019081526020016000206000828254611e039190612cf9565b925050819055506000601260003373ffffffffffffffffffffffffffffffffffffffff1673ffffffffffffffffffffffffffffffffffffffff168152602001908152602001600020819055505b5b80600f60003373ffffffffffffffffffffffffffffffffffffffff1673ffffffffffffffffffffffffffffffffffffffff16815260200190815260200160002081905550601560009054906101000a900473ffffffffffffffffffffffffffffffffffffffff1673ffffffffffffffffffffffffffffffffffffffff1663bb818cc533846040518363ffffffff1660e01b8152600401611ef2929190612bcb565b600060405180830381600087803b158015611f0c57600080fd5b505af1158015611f20573d6000803e3d6000fd5b5050505081600160003373ffffffffffffffffffffffffffffffffffffffff1673ffffffffffffffffffffffffffffffffffffffff1681526020019081526020016000206000828254611f739190612cf9565b9250508190555081600a6000828254611f8c9190612cf9565b92505081905550611fd16040518060400160405280600f81526020017f42616c616e636573204c656674203a0000000000000000000000000000000000815250612889565b612019600160003373ffffffffffffffffffffffffffffffffffffffff1673ffffffffffffffffffffffffffffffffffffffff168152602001908152602001600020546127f0565b3373ffffffffffffffffffffffffffffffffffffffff167f884edad9ce6fa2440d8a54cc123490eb96d2768479d49ff9c7366125a94243648360405161205f9190612a1b565b60405180910390a25050565b601160009054906101000a900460ff1681565b600c6020528060005260406000206000915090505481565b60026020528060005260406000206000915090505481565b600f6020528060005260406000206000915090505481565b600b6020528060005260406000206000915090505481565b60095481565b60136020528060005260406000206000915090505481565b60016020528060005260406000206000915090505481565b60046020528060005260406000206000915054906101000a900460ff1681565b60085481565b600034905060008111612182576040517f08c379a000000000000000000000000000000000000000000000000000000000815260040161217990612b9c565b60405180910390fd5b601560009054906101000a900473ffffffffffffffffffffffffffffffffffffffff1673ffffffffffffffffffffffffffffffffffffffff166323b872dd3330846040518463ffffffff1660e01b81526004016121e193929190612e87565b6020604051808303816000875af1158015612200573d6000803e3d6000fd5b505050506040513d601f19601f820116820180604052508101906122249190612dee565b612263576040517f08c379a000000000000000000000000000000000000000000000000000000000815260040161225a90612e67565b60405180910390fd5b601560009054906101000a900473ffffffffffffffffffffffffffffffffffffffff1673ffffffffffffffffffffffffffffffffffffffff1663e6c98c6f33836040518363ffffffff1660e01b81526004016122c0929190612bcb565b600060405180830381600087803b1580156122da57600080fd5b505af11580156122ee573d6000803e3d6000fd5b5050505080600160003373ffffffffffffffffffffffffffffffffffffffff1673ffffffffffffffffffffffffffffffffffffffff16815260200190815260200160002060008282546123419190612c23565b9250508190555080600a600082825461235a9190612c23565b9250508190555080600160003373ffffffffffffffffffffffffffffffffffffffff1673ffffffffffffffffffffffffffffffffffffffff1681526020019081526020016000205403612494576001601160006101000a81548160ff02191690831515021790555042600f60003373ffffffffffffffffffffffffffffffffffffffff1673ffffffffffffffffffffffffffffffffffffffff168152602001908152602001600020819055506000601060003373ffffffffffffffffffffffffffffffffffffffff1673ffffffffffffffffffffffffffffffffffffffff1681526020019081526020016000208190555080600e60003373ffffffffffffffffffffffffffffffffffffffff1673ffffffffffffffffffffffffffffffffffffffff16815260200190815260200160002081905550612627565b620f4240600160003373ffffffffffffffffffffffffffffffffffffffff1673ffffffffffffffffffffffffffffffffffffffff16815260200190815260200160002054600f60003373ffffffffffffffffffffffffffffffffffffffff1673ffffffffffffffffffffffffffffffffffffffff16815260200190815260200160002054426125239190612cf9565b61252d9190612c57565b6125379190612cc8565b601060003373ffffffffffffffffffffffffffffffffffffffff1673ffffffffffffffffffffffffffffffffffffffff16815260200190815260200160002060008282546125859190612c23565b9250508190555042600f60003373ffffffffffffffffffffffffffffffffffffffff1673ffffffffffffffffffffffffffffffffffffffff1681526020019081526020016000208190555080600e60003373ffffffffffffffffffffffffffffffffffffffff1673ffffffffffffffffffffffffffffffffffffffff168152602001908152602001600020600082825461261f9190612c23565b925050819055505b61266f600160003373ffffffffffffffffffffffffffffffffffffffff1673ffffffffffffffffffffffffffffffffffffffff168152602001908152602001600020546127f0565b6126b7600f60003373ffffffffffffffffffffffffffffffffffffffff1673ffffffffffffffffffffffffffffffffffffffff168152602001908152602001600020546127f0565b6126ff601060003373ffffffffffffffffffffffffffffffffffffffff1673ffffffffffffffffffffffffffffffffffffffff168152602001908152602001600020546127f0565b3373ffffffffffffffffffffffffffffffffffffffff167f90890809c654f11d6e72a28fa60149770a0d11ec6c92319d6ceb2bb0a4ea1a158283604051612747929190612d2d565b60405180910390a27fdeaf03adaa870bd18d29c07613b960326f8b269698f66bb8c2e9efc5ae46705e33600160003373ffffffffffffffffffffffffffffffffffffffff1673ffffffffffffffffffffffffffffffffffffffff168152602001908152602001600020546040516127bf929190612bcb565b60405180910390a150565b601560009054906101000a900473ffffffffffffffffffffffffffffffffffffffff1681565b612886816040516024016128049190612a1b565b6040516020818303038152906040527ff82c50f1000000000000000000000000000000000000000000000000000000007bffffffffffffffffffffffffffffffffffffffffffffffffffffffff19166020820180517bffffffffffffffffffffffffffffffffffffffffffffffffffffffff8381831617835250505050612922565b50565b61291f8160405160240161289d9190612f3d565b6040516020818303038152906040527f41304fac000000000000000000000000000000000000000000000000000000007bffffffffffffffffffffffffffffffffffffffffffffffffffffffff19166020820180517bffffffffffffffffffffffffffffffffffffffffffffffffffffffff8381831617835250505050612922565b50565b6129398161293161293c61295d565b63ffffffff16565b50565b60006a636f6e736f6c652e6c6f679050600080835160208501845afa505050565b612968819050919050565b612970612f5f565b565b600080fd5b600073ffffffffffffffffffffffffffffffffffffffff82169050919050565b60006129a282612977565b9050919050565b6129b281612997565b81146129bd57600080fd5b50565b6000813590506129cf816129a9565b92915050565b6000602082840312156129eb576129ea612972565b5b60006129f9848285016129c0565b91505092915050565b6000819050919050565b612a1581612a02565b82525050565b6000602082019050612a306000830184612a0c565b92915050565b60008115159050919050565b612a4b81612a36565b82525050565b6000602082019050612a666000830184612a42565b92915050565b612a7581612a02565b8114612a8057600080fd5b50565b600081359050612a9281612a6c565b92915050565b600060208284031215612aae57612aad612972565b5b6000612abc84828501612a83565b91505092915050565b6000819050919050565b6000612aea612ae5612ae084612977565b612ac5565b612977565b9050919050565b6000612afc82612acf565b9050919050565b6000612b0e82612af1565b9050919050565b612b1e81612b03565b82525050565b6000602082019050612b396000830184612b15565b92915050565b600082825260208201905092915050565b7f416d6f756e74206d7573742062652067726561746572207468616e2030000000600082015250565b6000612b86601d83612b3f565b9150612b9182612b50565b602082019050919050565b60006020820190508181036000830152612bb581612b79565b9050919050565b612bc581612997565b82525050565b6000604082019050612be06000830185612bbc565b612bed6020830184612a0c565b9392505050565b7f4e487b7100000000000000000000000000000000000000000000000000000000600052601160045260246000fd5b6000612c2e82612a02565b9150612c3983612a02565b9250828201905080821115612c5157612c50612bf4565b5b92915050565b6000612c6282612a02565b9150612c6d83612a02565b9250828202612c7b81612a02565b91508282048414831517612c9257612c91612bf4565b5b5092915050565b7f4e487b7100000000000000000000000000000000000000000000000000000000600052601260045260246000fd5b6000612cd382612a02565b9150612cde83612a02565b925082612cee57612ced612c99565b5b828204905092915050565b6000612d0482612a02565b9150612d0f83612a02565b9250828203905081811115612d2757612d26612bf4565b5b92915050565b6000604082019050612d426000830185612a0c565b612d4f6020830184612a0c565b9392505050565b7f496e73756666696369656e742062616c616e6365000000000000000000000000600082015250565b6000612d8c601483612b3f565b9150612d9782612d56565b602082019050919050565b60006020820190508181036000830152612dbb81612d7f565b9050919050565b612dcb81612a36565b8114612dd657600080fd5b50565b600081519050612de881612dc2565b92915050565b600060208284031215612e0457612e03612972565b5b6000612e1284828501612dd9565b91505092915050565b7f5472616e73666572206661696c65640000000000000000000000000000000000600082015250565b6000612e51600f83612b3f565b9150612e5c82612e1b565b602082019050919050565b60006020820190508181036000830152612e8081612e44565b9050919050565b6000606082019050612e9c6000830186612bbc565b612ea96020830185612bbc565b612eb66040830184612a0c565b949350505050565b600081519050919050565b60005b83811015612ee7578082015181840152602081019050612ecc565b60008484015250505050565b6000601f19601f8301169050919050565b6000612f0f82612ebe565b612f198185612b3f565b9350612f29818560208601612ec9565b612f3281612ef3565b840191505092915050565b60006020820190508181036000830152612f578184612f04565b905092915050565b7f4e487b7100000000000000000000000000000000000000000000000000000000600052605160045260246000fdfea26469706673582212208eac4ca3f8d79e4b4571078be8ab1746fc8c1ff4c3e19c2cc828469df6913ef364736f6c6343000818003360806040523480156200001157600080fd5b506040518060400160405280600f81526020017f61546f6b656e20457468657265756d00000000000000000000000000000000008152506040518060400160405280600681526020017f41546f6b656e000000000000000000000000000000000000000000000000000081525081600390816200008f9190620003a0565b508060049081620000a19190620003a0565b50505033600560006101000a81548173ffffffffffffffffffffffffffffffffffffffff021916908373ffffffffffffffffffffffffffffffffffffffff1602179055506709fdf42f6e4800006ec097ce7bc90715b34b9f10000000006200010a9190620004b6565b6006819055506804cc99bdf2ad550000600781905550620004ee565b600081519050919050565b7f4e487b7100000000000000000000000000000000000000000000000000000000600052604160045260246000fd5b7f4e487b7100000000000000000000000000000000000000000000000000000000600052602260045260246000fd5b60006002820490506001821680620001a857607f821691505b602082108103620001be57620001bd62000160565b5b50919050565b60008190508160005260206000209050919050565b60006020601f8301049050919050565b600082821b905092915050565b600060088302620002287fffffffffffffffffffffffffffffffffffffffffffffffffffffffffffffffff82620001e9565b620002348683620001e9565b95508019841693508086168417925050509392505050565b6000819050919050565b6000819050919050565b6000620002816200027b62000275846200024c565b62000256565b6200024c565b9050919050565b6000819050919050565b6200029d8362000260565b620002b5620002ac8262000288565b848454620001f6565b825550505050565b600090565b620002cc620002bd565b620002d981848462000292565b505050565b5b818110156200030157620002f5600082620002c2565b600181019050620002df565b5050565b601f82111562000350576200031a81620001c4565b6200032584620001d9565b8101602085101562000335578190505b6200034d6200034485620001d9565b830182620002de565b50505b505050565b600082821c905092915050565b6000620003756000198460080262000355565b1980831691505092915050565b600062000390838362000362565b9150826002028217905092915050565b620003ab8262000126565b67ffffffffffffffff811115620003c757620003c662000131565b5b620003d382546200018f565b620003e082828562000305565b600060209050601f83116001811462000418576000841562000403578287015190505b6200040f858262000382565b8655506200047f565b601f1984166200042886620001c4565b60005b8281101562000452578489015182556001820191506020850194506020810190506200042b565b868310156200047257848901516200046e601f89168262000362565b8355505b6001600288020188555050505b505050505050565b7f4e487b7100000000000000000000000000000000000000000000000000000000600052601260045260246000fd5b6000620004c3826200024c565b9150620004d0836200024c565b925082620004e357620004e262000487565b5b828204905092915050565b61212f80620004fe6000396000f3fe60806040526004361061011f5760003560e01c806370a08231116100a0578063a9059cbb11610064578063a9059cbb14610401578063bb818cc51461043e578063dd62ed3e14610467578063e16dd03d146104a4578063e6c98c6f146104c05761011f565b806370a08231146103085780638da5cb5b1461034557806395d89b4114610370578063a457c2d71461039b578063a4fa2774146103d85761011f565b8063313ce567116100e7578063313ce5671461021f578063395093511461024a5780633d6d142c1461028757806342e8dc89146102b25780636f0515a1146102dd5761011f565b806306fdde0314610124578063095ea7b31461014f57806318160ddd1461018c578063207ec727146101b757806323b872dd146101e2575b600080fd5b34801561013057600080fd5b506101396104e9565b604051610146919061160f565b60405180910390f35b34801561015b57600080fd5b50610176600480360381019061017191906116ca565b61057b565b6040516101839190611725565b60405180910390f35b34801561019857600080fd5b506101a161059e565b6040516101ae919061174f565b60405180910390f35b3480156101c357600080fd5b506101cc6105a8565b6040516101d9919061174f565b60405180910390f35b3480156101ee57600080fd5b506102096004803603810190610204919061176a565b6105b5565b6040516102169190611725565b60405180910390f35b34801561022b57600080fd5b506102346105e4565b60405161024191906117d9565b60405180910390f35b34801561025657600080fd5b50610271600480360381019061026c91906116ca565b6105ed565b60405161027e9190611725565b60405180910390f35b34801561029357600080fd5b5061029c610624565b6040516102a9919061174f565b60405180910390f35b3480156102be57600080fd5b506102c761062a565b6040516102d4919061174f565b60405180910390f35b3480156102e957600080fd5b506102f2610630565b6040516102ff919061174f565b60405180910390f35b34801561031457600080fd5b5061032f600480360381019061032a91906117f4565b61063c565b60405161033c919061174f565b60405180910390f35b34801561035157600080fd5b5061035a610684565b6040516103679190611830565b60405180910390f35b34801561037c57600080fd5b506103856106aa565b604051610392919061160f565b60405180910390f35b3480156103a757600080fd5b506103c260048036038101906103bd91906116ca565b61073c565b6040516103cf9190611725565b60405180910390f35b3480156103e457600080fd5b506103ff60048036038101906103fa91906116ca565b6107b3565b005b34801561040d57600080fd5b50610428600480360381019061042391906116ca565b610929565b6040516104359190611725565b60405180910390f35b34801561044a57600080fd5b50610465600480360381019061046091906116ca565b61094c565b005b34801561047357600080fd5b5061048e6004803603810190610489919061184b565b610a5f565b60405161049b919061174f565b60405180910390f35b6104be60048036038101906104b991906116ca565b610ae6565b005b3480156104cc57600080fd5b506104e760048036038101906104e291906116ca565b610c51565b005b6060600380546104f8906118ba565b80601f0160208091040260200160405190810160405280929190818152602001828054610524906118ba565b80156105715780601f1061054657610100808354040283529160200191610571565b820191906000526020600020905b81548152906001019060200180831161055457829003601f168201915b5050505050905090565b600080610586610d64565b9050610593818585610d6c565b600191505092915050565b6000600254905090565b6804cc99bdf2ad55000081565b6000806105c0610d64565b90506105cd858285610f35565b6105d8858585610fc1565b60019150509392505050565b60006012905090565b6000806105f8610d64565b905061061981858561060a8589610a5f565b610614919061191a565b610d6c565b600191505092915050565b60065481565b60075481565b6709fdf42f6e48000081565b60008060008373ffffffffffffffffffffffffffffffffffffffff1673ffffffffffffffffffffffffffffffffffffffff168152602001908152602001600020549050919050565b600560009054906101000a900473ffffffffffffffffffffffffffffffffffffffff1681565b6060600480546106b9906118ba565b80601f01602080910402602001604051908101604052809291908181526020018280546106e5906118ba565b80156107325780601f1061070757610100808354040283529160200191610732565b820191906000526020600020905b81548152906001019060200180831161071557829003601f168201915b5050505050905090565b600080610747610d64565b905060006107558286610a5f565b90508381101561079a576040517f08c379a0000000000000000000000000000000000000000000000000000000008152600401610791906119c0565b60405180910390fd5b6107a78286868403610d6c565b60019250505092915050565b600560009054906101000a900473ffffffffffffffffffffffffffffffffffffffff1673ffffffffffffffffffffffffffffffffffffffff163373ffffffffffffffffffffffffffffffffffffffff1614610843576040517f08c379a000000000000000000000000000000000000000000000000000000000815260040161083a90611a2c565b60405180910390fd5b60006007546096600654846108589190611a4c565b6108629190611a4c565b61086c9190611abd565b90506108788382611240565b60006108838461063c565b90508373ffffffffffffffffffffffffffffffffffffffff167fb0750f6c39be925832beb4b2ee749481dc9e87e71e38e643dc1c7742c5f8aba2826040516108cb919061174f565b60405180910390a28373ffffffffffffffffffffffffffffffffffffffff167f2e8ac5177a616f2aec08c3048f5021e4e9743ece034e8d83ba5caf76688bb475848460405161091b929190611aee565b60405180910390a250505050565b600080610934610d64565b9050610941818585610fc1565b600191505092915050565b600560009054906101000a900473ffffffffffffffffffffffffffffffffffffffff1673ffffffffffffffffffffffffffffffffffffffff163373ffffffffffffffffffffffffffffffffffffffff16146109dc576040517f08c379a00000000000000000000000000000000000000000000000000000000081526004016109d390611b63565b60405180910390fd5b600060075466038d7ea4c68000836109f49190611a4c565b6109fe9190611abd565b9050610a0a838261139f565b8273ffffffffffffffffffffffffffffffffffffffff167fccbea4088a3b7ae9ca2d15fab9a9742a4075b4d7247768a1eecea917565aba008383604051610a52929190611aee565b60405180910390a2505050565b6000600160008473ffffffffffffffffffffffffffffffffffffffff1673ffffffffffffffffffffffffffffffffffffffff16815260200190815260200160002060008373ffffffffffffffffffffffffffffffffffffffff1673ffffffffffffffffffffffffffffffffffffffff16815260200190815260200160002054905092915050565b600560009054906101000a900473ffffffffffffffffffffffffffffffffffffffff1673ffffffffffffffffffffffffffffffffffffffff163373ffffffffffffffffffffffffffffffffffffffff1614610b76576040517f08c379a0000000000000000000000000000000000000000000000000000000008152600401610b6d90611b63565b60405180910390fd5b600060075466038d7ea4c6800060065484610b919190611a4c565b610b9b9190611a4c565b610ba59190611abd565b905080610bb18461063c565b1015610bf2576040517f08c379a0000000000000000000000000000000000000000000000000000000008152600401610be990611bcf565b60405180910390fd5b610bfc838261139f565b8273ffffffffffffffffffffffffffffffffffffffff167fccbea4088a3b7ae9ca2d15fab9a9742a4075b4d7247768a1eecea917565aba008383604051610c44929190611aee565b60405180910390a2505050565b600560009054906101000a900473ffffffffffffffffffffffffffffffffffffffff1673ffffffffffffffffffffffffffffffffffffffff163373ffffffffffffffffffffffffffffffffffffffff1614610ce1576040517f08c379a0000000000000000000000000000000000000000000000000000000008152600401610cd890611a2c565b60405180910390fd5b600060075466038d7ea4c6800083610cf99190611a4c565b610d039190611abd565b9050610d0f8382611240565b8273ffffffffffffffffffffffffffffffffffffffff167f2e8ac5177a616f2aec08c3048f5021e4e9743ece034e8d83ba5caf76688bb4758383604051610d57929190611aee565b60405180910390a2505050565b600033905090565b600073ffffffffffffffffffffffffffffffffffffffff168373ffffffffffffffffffffffffffffffffffffffff1603610ddb576040517f08c379a0000000000000000000000000000000000000000000000000000000008152600401610dd290611c61565b60405180910390fd5b600073ffffffffffffffffffffffffffffffffffffffff168273ffffffffffffffffffffffffffffffffffffffff1603610e4a576040517f08c379a0000000000000000000000000000000000000000000000000000000008152600401610e4190611cf3565b60405180910390fd5b80600160008573ffffffffffffffffffffffffffffffffffffffff1673ffffffffffffffffffffffffffffffffffffffff16815260200190815260200160002060008473ffffffffffffffffffffffffffffffffffffffff1673ffffffffffffffffffffffffffffffffffffffff168152602001908152602001600020819055508173ffffffffffffffffffffffffffffffffffffffff168373ffffffffffffffffffffffffffffffffffffffff167f8c5be1e5ebec7d5bd14f71427d1e84f3dd0314c0f7b2291e5b200ac8c7c3b92583604051610f28919061174f565b60405180910390a3505050565b6000610f418484610a5f565b90507fffffffffffffffffffffffffffffffffffffffffffffffffffffffffffffffff8114610fbb5781811015610fad576040517f08c379a0000000000000000000000000000000000000000000000000000000008152600401610fa490611d5f565b60405180910390fd5b610fba8484848403610d6c565b5b50505050565b600073ffffffffffffffffffffffffffffffffffffffff168373ffffffffffffffffffffffffffffffffffffffff1603611030576040517f08c379a000000000000000000000000000000000000000000000000000000000815260040161102790611df1565b60405180910390fd5b600073ffffffffffffffffffffffffffffffffffffffff168273ffffffffffffffffffffffffffffffffffffffff160361109f576040517f08c379a000000000000000000000000000000000000000000000000000000000815260040161109690611e83565b60405180910390fd5b6110aa838383611575565b60008060008573ffffffffffffffffffffffffffffffffffffffff1673ffffffffffffffffffffffffffffffffffffffff16815260200190815260200160002054905081811015611130576040517f08c379a000000000000000000000000000000000000000000000000000000000815260040161112790611f15565b60405180910390fd5b8181036000808673ffffffffffffffffffffffffffffffffffffffff1673ffffffffffffffffffffffffffffffffffffffff16815260200190815260200160002081905550816000808573ffffffffffffffffffffffffffffffffffffffff1673ffffffffffffffffffffffffffffffffffffffff16815260200190815260200160002060008282546111c3919061191a565b925050819055508273ffffffffffffffffffffffffffffffffffffffff168473ffffffffffffffffffffffffffffffffffffffff167fddf252ad1be2c89b69c2b068fc378daa952ba7f163c4a11628f55a4df523b3ef84604051611227919061174f565b60405180910390a361123a84848461157a565b50505050565b600073ffffffffffffffffffffffffffffffffffffffff168273ffffffffffffffffffffffffffffffffffffffff16036112af576040517f08c379a00000000000000000000000000000000000000000000000000000000081526004016112a690611f81565b60405180910390fd5b6112bb60008383611575565b80600260008282546112cd919061191a565b92505081905550806000808473ffffffffffffffffffffffffffffffffffffffff1673ffffffffffffffffffffffffffffffffffffffff1681526020019081526020016000206000828254611322919061191a565b925050819055508173ffffffffffffffffffffffffffffffffffffffff16600073ffffffffffffffffffffffffffffffffffffffff167fddf252ad1be2c89b69c2b068fc378daa952ba7f163c4a11628f55a4df523b3ef83604051611387919061174f565b60405180910390a361139b6000838361157a565b5050565b600073ffffffffffffffffffffffffffffffffffffffff168273ffffffffffffffffffffffffffffffffffffffff160361140e576040517f08c379a000000000000000000000000000000000000000000000000000000000815260040161140590612013565b60405180910390fd5b61141a82600083611575565b60008060008473ffffffffffffffffffffffffffffffffffffffff1673ffffffffffffffffffffffffffffffffffffffff168152602001908152602001600020549050818110156114a0576040517f08c379a0000000000000000000000000000000000000000000000000000000008152600401611497906120a5565b60405180910390fd5b8181036000808573ffffffffffffffffffffffffffffffffffffffff1673ffffffffffffffffffffffffffffffffffffffff1681526020019081526020016000208190555081600260008282546114f791906120c5565b92505081905550600073ffffffffffffffffffffffffffffffffffffffff168373ffffffffffffffffffffffffffffffffffffffff167fddf252ad1be2c89b69c2b068fc378daa952ba7f163c4a11628f55a4df523b3ef8460405161155c919061174f565b60405180910390a36115708360008461157a565b505050565b505050565b505050565b600081519050919050565b600082825260208201905092915050565b60005b838110156115b957808201518184015260208101905061159e565b60008484015250505050565b6000601f19601f8301169050919050565b60006115e18261157f565b6115eb818561158a565b93506115fb81856020860161159b565b611604816115c5565b840191505092915050565b6000602082019050818103600083015261162981846115d6565b905092915050565b600080fd5b600073ffffffffffffffffffffffffffffffffffffffff82169050919050565b600061166182611636565b9050919050565b61167181611656565b811461167c57600080fd5b50565b60008135905061168e81611668565b92915050565b6000819050919050565b6116a781611694565b81146116b257600080fd5b50565b6000813590506116c48161169e565b92915050565b600080604083850312156116e1576116e0611631565b5b60006116ef8582860161167f565b9250506020611700858286016116b5565b9150509250929050565b60008115159050919050565b61171f8161170a565b82525050565b600060208201905061173a6000830184611716565b92915050565b61174981611694565b82525050565b60006020820190506117646000830184611740565b92915050565b60008060006060848603121561178357611782611631565b5b60006117918682870161167f565b93505060206117a28682870161167f565b92505060406117b3868287016116b5565b9150509250925092565b600060ff82169050919050565b6117d3816117bd565b82525050565b60006020820190506117ee60008301846117ca565b92915050565b60006020828403121561180a57611809611631565b5b60006118188482850161167f565b91505092915050565b61182a81611656565b82525050565b60006020820190506118456000830184611821565b92915050565b6000806040838503121561186257611861611631565b5b60006118708582860161167f565b92505060206118818582860161167f565b9150509250929050565b7f4e487b7100000000000000000000000000000000000000000000000000000000600052602260045260246000fd5b600060028204905060018216806118d257607f821691505b6020821081036118e5576118e461188b565b5b50919050565b7f4e487b7100000000000000000000000000000000000000000000000000000000600052601160045260246000fd5b600061192582611694565b915061193083611694565b9250828201905080821115611948576119476118eb565b5b92915050565b7f45524332303a2064656372656173656420616c6c6f77616e63652062656c6f7760008201527f207a65726f000000000000000000000000000000000000000000000000000000602082015250565b60006119aa60258361158a565b91506119b58261194e565b604082019050919050565b600060208201905081810360008301526119d98161199d565b9050919050565b7f4f6e6c79206f776e65722063616e206d696e7420746f6b656e73000000000000600082015250565b6000611a16601a8361158a565b9150611a21826119e0565b602082019050919050565b60006020820190508181036000830152611a4581611a09565b9050919050565b6000611a5782611694565b9150611a6283611694565b9250828202611a7081611694565b91508282048414831517611a8757611a866118eb565b5b5092915050565b7f4e487b7100000000000000000000000000000000000000000000000000000000600052601260045260246000fd5b6000611ac882611694565b9150611ad383611694565b925082611ae357611ae2611a8e565b5b828204905092915050565b6000604082019050611b036000830185611740565b611b106020830184611740565b9392505050565b7f4f6e6c79206f776e65722063616e206275726e20746f6b656e73000000000000600082015250565b6000611b4d601a8361158a565b9150611b5882611b17565b602082019050919050565b60006020820190508181036000830152611b7c81611b40565b9050919050565b7f496e73756666696369656e742062616c616e6365000000000000000000000000600082015250565b6000611bb960148361158a565b9150611bc482611b83565b602082019050919050565b60006020820190508181036000830152611be881611bac565b9050919050565b7f45524332303a20617070726f76652066726f6d20746865207a65726f2061646460008201527f7265737300000000000000000000000000000000000000000000000000000000602082015250565b6000611c4b60248361158a565b9150611c5682611bef565b604082019050919050565b60006020820190508181036000830152611c7a81611c3e565b9050919050565b7f45524332303a20617070726f766520746f20746865207a65726f20616464726560008201527f7373000000000000000000000000000000000000000000000000000000000000602082015250565b6000611cdd60228361158a565b9150611ce882611c81565b604082019050919050565b60006020820190508181036000830152611d0c81611cd0565b9050919050565b7f45524332303a20696e73756666696369656e7420616c6c6f77616e6365000000600082015250565b6000611d49601d8361158a565b9150611d5482611d13565b602082019050919050565b60006020820190508181036000830152611d7881611d3c565b9050919050565b7f45524332303a207472616e736665722066726f6d20746865207a65726f20616460008201527f6472657373000000000000000000000000000000000000000000000000000000602082015250565b6000611ddb60258361158a565b9150611de682611d7f565b604082019050919050565b60006020820190508181036000830152611e0a81611dce565b9050919050565b7f45524332303a207472616e7366657220746f20746865207a65726f206164647260008201527f6573730000000000000000000000000000000000000000000000000000000000602082015250565b6000611e6d60238361158a565b9150611e7882611e11565b604082019050919050565b60006020820190508181036000830152611e9c81611e60565b9050919050565b7f45524332303a207472616e7366657220616d6f756e742065786365656473206260008201527f616c616e63650000000000000000000000000000000000000000000000000000602082015250565b6000611eff60268361158a565b9150611f0a82611ea3565b604082019050919050565b60006020820190508181036000830152611f2e81611ef2565b9050919050565b7f45524332303a206d696e7420746f20746865207a65726f206164647265737300600082015250565b6000611f6b601f8361158a565b9150611f7682611f35565b602082019050919050565b60006020820190508181036000830152611f9a81611f5e565b9050919050565b7f45524332303a206275726e2066726f6d20746865207a65726f2061646472657360008201527f7300000000000000000000000000000000000000000000000000000000000000602082015250565b6000611ffd60218361158a565b915061200882611fa1565b604082019050919050565b6000602082019050818103600083015261202c81611ff0565b9050919050565b7f45524332303a206275726e20616d6f756e7420657863656564732062616c616e60008201527f6365000000000000000000000000000000000000000000000000000000000000602082015250565b600061208f60228361158a565b915061209a82612033565b604082019050919050565b600060208201905081810360008301526120be81612082565b9050919050565b60006120d082611694565b91506120db83611694565b92508282039050818111156120f3576120f26118eb565b5b9291505056fea2646970667358221220ad5ccfbcb032612e6ee3f3edb740104c1fb4e774472bbc2762362913575bf14c64736f6c63430008180033",
  "linkReferences": {},
  "deployedLinkReferences": {}
}