{
  "_format": "hh-sol-artifact-1",
  "contractName": "MyToken",
  "sourceName": "contracts/MyToken.sol",
  "abi": [
    {
      "inputs": [],
      "stateMutability": "nonpayable",
      "type": "constructor"
    },
    {
      "anonymous": false,
      "inputs": [
        {
          "indexed": true,
          "internalType": "address",
          "name": "owner",
          "type": "address"
        },
        {
          "indexed": true,
          "internalType": "address",
          "name": "spender",
          "type": "address"
        },
        {
          "indexed": false,
          "internalType": "uint256",
          "name": "value",
          "type": "uint256"
        }
      ],
      "name": "Approval",
      "type": "event"
    },
    {
      "anonymous": false,
      "inputs": [
        {
          "indexed": true,
          "internalType": "address",
          "name": "from",
          "type": "address"
        },
        {
          "indexed": true,
          "internalType": "address",
          "name": "to",
          "type": "address"
        },
        {
          "indexed": false,
          "internalType": "uint256",
          "name": "value",
          "type": "uint256"
        }
      ],
      "name": "Transfer",
      "type": "event"
    },
    {
      "inputs": [
        {
          "internalType": "address",
          "name": "owner",
          "type": "address"
        },
        {
          "internalType": "address",
          "name": "spender",
          "type": "address"
        }
      ],
      "name": "allowance",
      "outputs": [
        {
          "internalType": "uint256",
          "name": "",
          "type": "uint256"
        }
      ],
      "stateMutability": "view",
      "type": "function"
    },
    {
      "inputs": [
        {
          "internalType": "address",
          "name": "spender",
          "type": "address"
        },
        {
          "internalType": "uint256",
          "name": "amount",
          "type": "uint256"
        }
      ],
      "name": "approve",
      "outputs": [
        {
          "internalType": "bool",
          "name": "",
          "type": "bool"
        }
      ],
      "stateMutability": "nonpayable",
      "type": "function"
    },
    {
      "inputs": [
        {
          "internalType": "uint256",
          "name": "_tokenAmount",
          "type": "uint256"
        }
      ],
      "name": "approveLendContract",
      "outputs": [],
      "stateMutability": "nonpayable",
      "type": "function"
    },
    {
      "inputs": [
        {
          "internalType": "address",
          "name": "account",
          "type": "address"
        }
      ],
      "name": "balanceOf",
      "outputs": [
        {
          "internalType": "uint256",
          "name": "",
          "type": "uint256"
        }
      ],
      "stateMutability": "view",
      "type": "function"
    },
    {
      "inputs": [],
      "name": "decimals",
      "outputs": [
        {
          "internalType": "uint8",
          "name": "",
          "type": "uint8"
        }
      ],
      "stateMutability": "view",
      "type": "function"
    },
    {
      "inputs": [
        {
          "internalType": "address",
          "name": "spender",
          "type": "address"
        },
        {
          "internalType": "uint256",
          "name": "subtractedValue",
          "type": "uint256"
        }
      ],
      "name": "decreaseAllowance",
      "outputs": [
        {
          "internalType": "bool",
          "name": "",
          "type": "bool"
        }
      ],
      "stateMutability": "nonpayable",
      "type": "function"
    },
    {
      "inputs": [
        {
          "internalType": "address",
          "name": "spender",
          "type": "address"
        },
        {
          "internalType": "uint256",
          "name": "addedValue",
          "type": "uint256"
        }
      ],
      "name": "increaseAllowance",
      "outputs": [
        {
          "internalType": "bool",
          "name": "",
          "type": "bool"
        }
      ],
      "stateMutability": "nonpayable",
      "type": "function"
    },
    {
      "inputs": [],
      "name": "lendContractAddress",
      "outputs": [
        {
          "internalType": "address",
          "name": "",
          "type": "address"
        }
      ],
      "stateMutability": "view",
      "type": "function"
    },
    {
      "inputs": [],
      "name": "name",
      "outputs": [
        {
          "internalType": "string",
          "name": "",
          "type": "string"
        }
      ],
      "stateMutability": "view",
      "type": "function"
    },
    {
      "inputs": [
        {
          "internalType": "address",
          "name": "_lendContractAddress",
          "type": "address"
        }
      ],
      "name": "setLendContractAddress",
      "outputs": [],
      "stateMutability": "nonpayable",
      "type": "function"
    },
    {
      "inputs": [],
      "name": "symbol",
      "outputs": [
        {
          "internalType": "string",
          "name": "",
          "type": "string"
        }
      ],
      "stateMutability": "view",
      "type": "function"
    },
    {
      "inputs": [],
      "name": "totalSupply",
      "outputs": [
        {
          "internalType": "uint256",
          "name": "",
          "type": "uint256"
        }
      ],
      "stateMutability": "view",
      "type": "function"
    },
    {
      "inputs": [
        {
          "internalType": "address",
          "name": "to",
          "type": "address"
        },
        {
          "internalType": "uint256",
          "name": "amount",
          "type": "uint256"
        }
      ],
      "name": "transfer",
      "outputs": [
        {
          "internalType": "bool",
          "name": "",
          "type": "bool"
        }
      ],
      "stateMutability": "nonpayable",
      "type": "function"
    },
    {
      "inputs": [
        {
          "internalType": "address",
          "name": "from",
          "type": "address"
        },
        {
          "internalType": "address",
          "name": "to",
          "type": "address"
        },
        {
          "internalType": "uint256",
          "name": "amount",
          "type": "uint256"
        }
      ],
      "name": "transferFrom",
      "outputs": [
        {
          "internalType": "bool",
          "name": "",
          "type": "bool"
        }
      ],
      "stateMutability": "nonpayable",
      "type": "function"
    }
  ],
  "bytecode": "0x60806040523480156200001157600080fd5b506040518060400160405280600781526020017f4d79546f6b656e000000000000000000000000000000000000000000000000008152506040518060400160405280600381526020017f494254000000000000000000000000000000000000000000000000000000000081525081600390816200008f9190620004c3565b508060049081620000a19190620004c3565b505050620000c1336a52b7d2dcc80cd2e4000000620000c760201b60201c565b620006c5565b600073ffffffffffffffffffffffffffffffffffffffff168273ffffffffffffffffffffffffffffffffffffffff160362000139576040517f08c379a000000000000000000000000000000000000000000000000000000000815260040162000130906200060b565b60405180910390fd5b6200014d600083836200023f60201b60201c565b80600260008282546200016191906200065c565b92505081905550806000808473ffffffffffffffffffffffffffffffffffffffff1673ffffffffffffffffffffffffffffffffffffffff1681526020019081526020016000206000828254620001b891906200065c565b925050819055508173ffffffffffffffffffffffffffffffffffffffff16600073ffffffffffffffffffffffffffffffffffffffff167fddf252ad1be2c89b69c2b068fc378daa952ba7f163c4a11628f55a4df523b3ef836040516200021f9190620006a8565b60405180910390a36200023b600083836200024460201b60201c565b5050565b505050565b505050565b600081519050919050565b7f4e487b7100000000000000000000000000000000000000000000000000000000600052604160045260246000fd5b7f4e487b7100000000000000000000000000000000000000000000000000000000600052602260045260246000fd5b60006002820490506001821680620002cb57607f821691505b602082108103620002e157620002e062000283565b5b50919050565b60008190508160005260206000209050919050565b60006020601f8301049050919050565b600082821b905092915050565b6000600883026200034b7fffffffffffffffffffffffffffffffffffffffffffffffffffffffffffffffff826200030c565b6200035786836200030c565b95508019841693508086168417925050509392505050565b6000819050919050565b6000819050919050565b6000620003a46200039e62000398846200036f565b62000379565b6200036f565b9050919050565b6000819050919050565b620003c08362000383565b620003d8620003cf82620003ab565b84845462000319565b825550505050565b600090565b620003ef620003e0565b620003fc818484620003b5565b505050565b5b81811015620004245762000418600082620003e5565b60018101905062000402565b5050565b601f82111562000473576200043d81620002e7565b6200044884620002fc565b8101602085101562000458578190505b620004706200046785620002fc565b83018262000401565b50505b505050565b600082821c905092915050565b6000620004986000198460080262000478565b1980831691505092915050565b6000620004b3838362000485565b9150826002028217905092915050565b620004ce8262000249565b67ffffffffffffffff811115620004ea57620004e962000254565b5b620004f68254620002b2565b6200050382828562000428565b600060209050601f8311600181146200053b576000841562000526578287015190505b620005328582620004a5565b865550620005a2565b601f1984166200054b86620002e7565b60005b8281101562000575578489015182556001820191506020850194506020810190506200054e565b8683101562000595578489015162000591601f89168262000485565b8355505b6001600288020188555050505b505050505050565b600082825260208201905092915050565b7f45524332303a206d696e7420746f20746865207a65726f206164647265737300600082015250565b6000620005f3601f83620005aa565b91506200060082620005bb565b602082019050919050565b600060208201905081810360008301526200062681620005e4565b9050919050565b7f4e487b7100000000000000000000000000000000000000000000000000000000600052601160045260246000fd5b600062000669826200036f565b915062000676836200036f565b92508282019050808211156200069157620006906200062d565b5b92915050565b620006a2816200036f565b82525050565b6000602082019050620006bf600083018462000697565b92915050565b61156780620006d56000396000f3fe608060405234801561001057600080fd5b50600436106100ea5760003560e01c806390f0910a1161008c578063a457c2d711610066578063a457c2d71461025f578063a9059cbb1461028f578063c99e102b146102bf578063dd62ed3e146102dd576100ea565b806390f0910a14610209578063929146651461022557806395d89b4114610241576100ea565b806323b872dd116100c857806323b872dd1461015b578063313ce5671461018b57806339509351146101a957806370a08231146101d9576100ea565b806306fdde03146100ef578063095ea7b31461010d57806318160ddd1461013d575b600080fd5b6100f761030d565b6040516101049190610d15565b60405180910390f35b61012760048036038101906101229190610dd0565b61039f565b6040516101349190610e2b565b60405180910390f35b6101456103c2565b6040516101529190610e55565b60405180910390f35b61017560048036038101906101709190610e70565b6103cc565b6040516101829190610e2b565b60405180910390f35b6101936103fb565b6040516101a09190610edf565b60405180910390f35b6101c360048036038101906101be9190610dd0565b610404565b6040516101d09190610e2b565b60405180910390f35b6101f360048036038101906101ee9190610efa565b61043b565b6040516102009190610e55565b60405180910390f35b610223600480360381019061021e9190610efa565b610483565b005b61023f600480360381019061023a9190610f27565b6104c7565b005b6102496105c6565b6040516102569190610d15565b60405180910390f35b61027960048036038101906102749190610dd0565b610658565b6040516102869190610e2b565b60405180910390f35b6102a960048036038101906102a49190610dd0565b6106cf565b6040516102b69190610e2b565b60405180910390f35b6102c76106f2565b6040516102d49190610f63565b60405180910390f35b6102f760048036038101906102f29190610f7e565b610718565b6040516103049190610e55565b60405180910390f35b60606003805461031c90610fed565b80601f016020809104026020016040519081016040528092919081815260200182805461034890610fed565b80156103955780601f1061036a57610100808354040283529160200191610395565b820191906000526020600020905b81548152906001019060200180831161037857829003601f168201915b5050505050905090565b6000806103aa61079f565b90506103b78185856107a7565b600191505092915050565b6000600254905090565b6000806103d761079f565b90506103e4858285610970565b6103ef8585856109fc565b60019150509392505050565b60006012905090565b60008061040f61079f565b90506104308185856104218589610718565b61042b919061104d565b6107a7565b600191505092915050565b60008060008373ffffffffffffffffffffffffffffffffffffffff1673ffffffffffffffffffffffffffffffffffffffff168152602001908152602001600020549050919050565b80600560006101000a81548173ffffffffffffffffffffffffffffffffffffffff021916908373ffffffffffffffffffffffffffffffffffffffff16021790555050565b600073ffffffffffffffffffffffffffffffffffffffff16600560009054906101000a900473ffffffffffffffffffffffffffffffffffffffff1673ffffffffffffffffffffffffffffffffffffffff1603610558576040517f08c379a000000000000000000000000000000000000000000000000000000000815260040161054f906110cd565b60405180910390fd5b610584600560009054906101000a900473ffffffffffffffffffffffffffffffffffffffff168261039f565b6105c3576040517f08c379a00000000000000000000000000000000000000000000000000000000081526004016105ba90611139565b60405180910390fd5b50565b6060600480546105d590610fed565b80601f016020809104026020016040519081016040528092919081815260200182805461060190610fed565b801561064e5780601f106106235761010080835404028352916020019161064e565b820191906000526020600020905b81548152906001019060200180831161063157829003601f168201915b5050505050905090565b60008061066361079f565b905060006106718286610718565b9050838110156106b6576040517f08c379a00000000000000000000000000000000000000000000000000000000081526004016106ad906111cb565b60405180910390fd5b6106c382868684036107a7565b60019250505092915050565b6000806106da61079f565b90506106e78185856109fc565b600191505092915050565b600560009054906101000a900473ffffffffffffffffffffffffffffffffffffffff1681565b6000600160008473ffffffffffffffffffffffffffffffffffffffff1673ffffffffffffffffffffffffffffffffffffffff16815260200190815260200160002060008373ffffffffffffffffffffffffffffffffffffffff1673ffffffffffffffffffffffffffffffffffffffff16815260200190815260200160002054905092915050565b600033905090565b600073ffffffffffffffffffffffffffffffffffffffff168373ffffffffffffffffffffffffffffffffffffffff1603610816576040517f08c379a000000000000000000000000000000000000000000000000000000000815260040161080d9061125d565b60405180910390fd5b600073ffffffffffffffffffffffffffffffffffffffff168273ffffffffffffffffffffffffffffffffffffffff1603610885576040517f08c379a000000000000000000000000000000000000000000000000000000000815260040161087c906112ef565b60405180910390fd5b80600160008573ffffffffffffffffffffffffffffffffffffffff1673ffffffffffffffffffffffffffffffffffffffff16815260200190815260200160002060008473ffffffffffffffffffffffffffffffffffffffff1673ffffffffffffffffffffffffffffffffffffffff168152602001908152602001600020819055508173ffffffffffffffffffffffffffffffffffffffff168373ffffffffffffffffffffffffffffffffffffffff167f8c5be1e5ebec7d5bd14f71427d1e84f3dd0314c0f7b2291e5b200ac8c7c3b925836040516109639190610e55565b60405180910390a3505050565b600061097c8484610718565b90507fffffffffffffffffffffffffffffffffffffffffffffffffffffffffffffffff81146109f657818110156109e8576040517f08c379a00000000000000000000000000000000000000000000000000000000081526004016109df9061135b565b60405180910390fd5b6109f584848484036107a7565b5b50505050565b600073ffffffffffffffffffffffffffffffffffffffff168373ffffffffffffffffffffffffffffffffffffffff1603610a6b576040517f08c379a0000000000000000000000000000000000000000000000000000000008152600401610a62906113ed565b60405180910390fd5b600073ffffffffffffffffffffffffffffffffffffffff168273ffffffffffffffffffffffffffffffffffffffff1603610ada576040517f08c379a0000000000000000000000000000000000000000000000000000000008152600401610ad19061147f565b60405180910390fd5b610ae5838383610c7b565b60008060008573ffffffffffffffffffffffffffffffffffffffff1673ffffffffffffffffffffffffffffffffffffffff16815260200190815260200160002054905081811015610b6b576040517f08c379a0000000000000000000000000000000000000000000000000000000008152600401610b6290611511565b60405180910390fd5b8181036000808673ffffffffffffffffffffffffffffffffffffffff1673ffffffffffffffffffffffffffffffffffffffff16815260200190815260200160002081905550816000808573ffffffffffffffffffffffffffffffffffffffff1673ffffffffffffffffffffffffffffffffffffffff1681526020019081526020016000206000828254610bfe919061104d565b925050819055508273ffffffffffffffffffffffffffffffffffffffff168473ffffffffffffffffffffffffffffffffffffffff167fddf252ad1be2c89b69c2b068fc378daa952ba7f163c4a11628f55a4df523b3ef84604051610c629190610e55565b60405180910390a3610c75848484610c80565b50505050565b505050565b505050565b600081519050919050565b600082825260208201905092915050565b60005b83811015610cbf578082015181840152602081019050610ca4565b60008484015250505050565b6000601f19601f8301169050919050565b6000610ce782610c85565b610cf18185610c90565b9350610d01818560208601610ca1565b610d0a81610ccb565b840191505092915050565b60006020820190508181036000830152610d2f8184610cdc565b905092915050565b600080fd5b600073ffffffffffffffffffffffffffffffffffffffff82169050919050565b6000610d6782610d3c565b9050919050565b610d7781610d5c565b8114610d8257600080fd5b50565b600081359050610d9481610d6e565b92915050565b6000819050919050565b610dad81610d9a565b8114610db857600080fd5b50565b600081359050610dca81610da4565b92915050565b60008060408385031215610de757610de6610d37565b5b6000610df585828601610d85565b9250506020610e0685828601610dbb565b9150509250929050565b60008115159050919050565b610e2581610e10565b82525050565b6000602082019050610e406000830184610e1c565b92915050565b610e4f81610d9a565b82525050565b6000602082019050610e6a6000830184610e46565b92915050565b600080600060608486031215610e8957610e88610d37565b5b6000610e9786828701610d85565b9350506020610ea886828701610d85565b9250506040610eb986828701610dbb565b9150509250925092565b600060ff82169050919050565b610ed981610ec3565b82525050565b6000602082019050610ef46000830184610ed0565b92915050565b600060208284031215610f1057610f0f610d37565b5b6000610f1e84828501610d85565b91505092915050565b600060208284031215610f3d57610f3c610d37565b5b6000610f4b84828501610dbb565b91505092915050565b610f5d81610d5c565b82525050565b6000602082019050610f786000830184610f54565b92915050565b60008060408385031215610f9557610f94610d37565b5b6000610fa385828601610d85565b9250506020610fb485828601610d85565b9150509250929050565b7f4e487b7100000000000000000000000000000000000000000000000000000000600052602260045260246000fd5b6000600282049050600182168061100557607f821691505b60208210810361101857611017610fbe565b5b50919050565b7f4e487b7100000000000000000000000000000000000000000000000000000000600052601160045260246000fd5b600061105882610d9a565b915061106383610d9a565b925082820190508082111561107b5761107a61101e565b5b92915050565b7f4c656e6420636f6e74726163742061646472657373206e6f7420736574000000600082015250565b60006110b7601d83610c90565b91506110c282611081565b602082019050919050565b600060208201905081810360008301526110e6816110aa565b9050919050565b7f417070726f76616c206661696c65640000000000000000000000000000000000600082015250565b6000611123600f83610c90565b915061112e826110ed565b602082019050919050565b6000602082019050818103600083015261115281611116565b9050919050565b7f45524332303a2064656372656173656420616c6c6f77616e63652062656c6f7760008201527f207a65726f000000000000000000000000000000000000000000000000000000602082015250565b60006111b5602583610c90565b91506111c082611159565b604082019050919050565b600060208201905081810360008301526111e4816111a8565b9050919050565b7f45524332303a20617070726f76652066726f6d20746865207a65726f2061646460008201527f7265737300000000000000000000000000000000000000000000000000000000602082015250565b6000611247602483610c90565b9150611252826111eb565b604082019050919050565b600060208201905081810360008301526112768161123a565b9050919050565b7f45524332303a20617070726f766520746f20746865207a65726f20616464726560008201527f7373000000000000000000000000000000000000000000000000000000000000602082015250565b60006112d9602283610c90565b91506112e48261127d565b604082019050919050565b60006020820190508181036000830152611308816112cc565b9050919050565b7f45524332303a20696e73756666696369656e7420616c6c6f77616e6365000000600082015250565b6000611345601d83610c90565b91506113508261130f565b602082019050919050565b6000602082019050818103600083015261137481611338565b9050919050565b7f45524332303a207472616e736665722066726f6d20746865207a65726f20616460008201527f6472657373000000000000000000000000000000000000000000000000000000602082015250565b60006113d7602583610c90565b91506113e28261137b565b604082019050919050565b60006020820190508181036000830152611406816113ca565b9050919050565b7f45524332303a207472616e7366657220746f20746865207a65726f206164647260008201527f6573730000000000000000000000000000000000000000000000000000000000602082015250565b6000611469602383610c90565b91506114748261140d565b604082019050919050565b600060208201905081810360008301526114988161145c565b9050919050565b7f45524332303a207472616e7366657220616d6f756e742065786365656473206260008201527f616c616e63650000000000000000000000000000000000000000000000000000602082015250565b60006114fb602683610c90565b91506115068261149f565b604082019050919050565b6000602082019050818103600083015261152a816114ee565b905091905056fea26469706673582212201893212f46db332308cb30e1c79a6f9e2c45a09c8d489871c0e454cabaa71dca64736f6c63430008180033",
  "linkReferences": {},
  "deployedLinkReferences": {}
}