{
  "_format": "hh-sol-artifact-1",
  "contractName": "LendingPool",
  "sourceName": "contracts/LendingPool.sol",
  "abi": [
    {
      "inputs": [],
      "stateMutability": "nonpayable",
      "type": "constructor"
    },
    {
      "anonymous": false,
      "inputs": [
        {
          "indexed": false,
          "internalType": "address",
          "name": "account",
          "type": "address"
        },
        {
          "indexed": false,
          "internalType": "uint256",
          "name": "balance",
          "type": "uint256"
        }
      ],
      "name": "BalanceAfterDeposit",
      "type": "event"
    },
    {
      "anonymous": false,
      "inputs": [
        {
          "indexed": false,
          "internalType": "address",
          "name": "account",
          "type": "address"
        },
        {
          "indexed": false,
          "internalType": "uint256",
          "name": "balance",
          "type": "uint256"
        }
      ],
      "name": "BalanceAfterWithdrawal",
      "type": "event"
    },
    {
      "anonymous": false,
      "inputs": [
        {
          "indexed": true,
          "internalType": "address",
          "name": "user",
          "type": "address"
        },
        {
          "indexed": false,
          "internalType": "uint256",
          "name": "amount",
          "type": "uint256"
        }
      ],
      "name": "Borrow",
      "type": "event"
    },
    {
      "anonymous": false,
      "inputs": [
        {
          "indexed": true,
          "internalType": "address",
          "name": "user",
          "type": "address"
        },
        {
          "indexed": false,
          "internalType": "uint256",
          "name": "amount",
          "type": "uint256"
        },
        {
          "indexed": false,
          "internalType": "uint256",
          "name": "tokensMinted",
          "type": "uint256"
        }
      ],
      "name": "Deposit",
      "type": "event"
    },
    {
      "anonymous": false,
      "inputs": [
        {
          "indexed": true,
          "internalType": "address",
          "name": "user",
          "type": "address"
        },
        {
          "indexed": false,
          "internalType": "uint256",
          "name": "amount",
          "type": "uint256"
        }
      ],
      "name": "Repay",
      "type": "event"
    },
    {
      "anonymous": false,
      "inputs": [
        {
          "indexed": true,
          "internalType": "address",
          "name": "user",
          "type": "address"
        },
        {
          "indexed": false,
          "internalType": "uint256",
          "name": "amount",
          "type": "uint256"
        }
      ],
      "name": "Withdraw",
      "type": "event"
    },
    {
      "inputs": [],
      "name": "MTC_price",
      "outputs": [
        {
          "internalType": "uint256",
          "name": "",
          "type": "uint256"
        }
      ],
      "stateMutability": "view",
      "type": "function"
    },
    {
      "inputs": [
        {
          "internalType": "address",
          "name": "",
          "type": "address"
        }
      ],
      "name": "borrowable_amount",
      "outputs": [
        {
          "internalType": "uint256",
          "name": "",
          "type": "uint256"
        }
      ],
      "stateMutability": "view",
      "type": "function"
    },
    {
      "inputs": [
        {
          "internalType": "address",
          "name": "",
          "type": "address"
        }
      ],
      "name": "borrowedAmounts",
      "outputs": [
        {
          "internalType": "uint256",
          "name": "",
          "type": "uint256"
        }
      ],
      "stateMutability": "view",
      "type": "function"
    },
    {
      "inputs": [
        {
          "internalType": "address",
          "name": "",
          "type": "address"
        }
      ],
      "name": "collateral",
      "outputs": [
        {
          "internalType": "uint256",
          "name": "",
          "type": "uint256"
        }
      ],
      "stateMutability": "view",
      "type": "function"
    },
    {
      "inputs": [],
      "name": "depositIBT",
      "outputs": [],
      "stateMutability": "payable",
      "type": "function"
    },
    {
      "inputs": [],
      "name": "depositMATIC",
      "outputs": [],
      "stateMutability": "payable",
      "type": "function"
    },
    {
      "inputs": [
        {
          "internalType": "address",
          "name": "",
          "type": "address"
        }
      ],
      "name": "ibt_accruedInterest",
      "outputs": [
        {
          "internalType": "uint256",
          "name": "",
          "type": "uint256"
        }
      ],
      "stateMutability": "view",
      "type": "function"
    },
    {
      "inputs": [
        {
          "internalType": "address",
          "name": "",
          "type": "address"
        }
      ],
      "name": "ibt_balances",
      "outputs": [
        {
          "internalType": "uint256",
          "name": "",
          "type": "uint256"
        }
      ],
      "stateMutability": "view",
      "type": "function"
    },
    {
      "inputs": [
        {
          "internalType": "address",
          "name": "",
          "type": "address"
        }
      ],
      "name": "ibt_deposit_timestamp",
      "outputs": [
        {
          "internalType": "uint256",
          "name": "",
          "type": "uint256"
        }
      ],
      "stateMutability": "view",
      "type": "function"
    },
    {
      "inputs": [
        {
          "internalType": "address",
          "name": "",
          "type": "address"
        }
      ],
      "name": "ibt_interest_balances",
      "outputs": [
        {
          "internalType": "uint256",
          "name": "",
          "type": "uint256"
        }
      ],
      "stateMutability": "view",
      "type": "function"
    },
    {
      "inputs": [],
      "name": "ibt_isFirstWithdraw",
      "outputs": [
        {
          "internalType": "bool",
          "name": "",
          "type": "bool"
        }
      ],
      "stateMutability": "view",
      "type": "function"
    },
    {
      "inputs": [],
      "name": "ibt_token",
      "outputs": [
        {
          "internalType": "contract AToken",
          "name": "",
          "type": "address"
        }
      ],
      "stateMutability": "view",
      "type": "function"
    },
    {
      "inputs": [],
      "name": "ibt_totalDeposits",
      "outputs": [
        {
          "internalType": "uint256",
          "name": "",
          "type": "uint256"
        }
      ],
      "stateMutability": "view",
      "type": "function"
    },
    {
      "inputs": [
        {
          "internalType": "address",
          "name": "",
          "type": "address"
        }
      ],
      "name": "ibt_withdrawInterest",
      "outputs": [
        {
          "internalType": "uint256",
          "name": "",
          "type": "uint256"
        }
      ],
      "stateMutability": "view",
      "type": "function"
    },
    {
      "inputs": [
        {
          "internalType": "address",
          "name": "",
          "type": "address"
        }
      ],
      "name": "isBorrower",
      "outputs": [
        {
          "internalType": "bool",
          "name": "",
          "type": "bool"
        }
      ],
      "stateMutability": "view",
      "type": "function"
    },
    {
      "inputs": [
        {
          "internalType": "address",
          "name": "",
          "type": "address"
        }
      ],
      "name": "isFirstRepay",
      "outputs": [
        {
          "internalType": "bool",
          "name": "",
          "type": "bool"
        }
      ],
      "stateMutability": "view",
      "type": "function"
    },
    {
      "inputs": [
        {
          "internalType": "address",
          "name": "",
          "type": "address"
        }
      ],
      "name": "matic_accruedInterest",
      "outputs": [
        {
          "internalType": "uint256",
          "name": "",
          "type": "uint256"
        }
      ],
      "stateMutability": "view",
      "type": "function"
    },
    {
      "inputs": [
        {
          "internalType": "address",
          "name": "",
          "type": "address"
        }
      ],
      "name": "matic_balances",
      "outputs": [
        {
          "internalType": "uint256",
          "name": "",
          "type": "uint256"
        }
      ],
      "stateMutability": "view",
      "type": "function"
    },
    {
      "inputs": [
        {
          "internalType": "address",
          "name": "",
          "type": "address"
        }
      ],
      "name": "matic_deposit_timestamp",
      "outputs": [
        {
          "internalType": "uint256",
          "name": "",
          "type": "uint256"
        }
      ],
      "stateMutability": "view",
      "type": "function"
    },
    {
      "inputs": [
        {
          "internalType": "address",
          "name": "",
          "type": "address"
        }
      ],
      "name": "matic_interest_balances",
      "outputs": [
        {
          "internalType": "uint256",
          "name": "",
          "type": "uint256"
        }
      ],
      "stateMutability": "view",
      "type": "function"
    },
    {
      "inputs": [],
      "name": "matic_isFirstWithdraw",
      "outputs": [
        {
          "internalType": "bool",
          "name": "",
          "type": "bool"
        }
      ],
      "stateMutability": "view",
      "type": "function"
    },
    {
      "inputs": [],
      "name": "matic_token",
      "outputs": [
        {
          "internalType": "contract AToken",
          "name": "",
          "type": "address"
        }
      ],
      "stateMutability": "view",
      "type": "function"
    },
    {
      "inputs": [],
      "name": "matic_totalDeposits",
      "outputs": [
        {
          "internalType": "uint256",
          "name": "",
          "type": "uint256"
        }
      ],
      "stateMutability": "view",
      "type": "function"
    },
    {
      "inputs": [
        {
          "internalType": "address",
          "name": "",
          "type": "address"
        }
      ],
      "name": "matic_withdrawInterest",
      "outputs": [
        {
          "internalType": "uint256",
          "name": "",
          "type": "uint256"
        }
      ],
      "stateMutability": "view",
      "type": "function"
    },
    {
      "inputs": [],
      "name": "mytoken_address",
      "outputs": [
        {
          "internalType": "contract ERC20",
          "name": "",
          "type": "address"
        }
      ],
      "stateMutability": "view",
      "type": "function"
    },
    {
      "inputs": [
        {
          "internalType": "address",
          "name": "",
          "type": "address"
        }
      ],
      "name": "repayable_interest",
      "outputs": [
        {
          "internalType": "uint256",
          "name": "",
          "type": "uint256"
        }
      ],
      "stateMutability": "view",
      "type": "function"
    },
    {
      "inputs": [
        {
          "internalType": "address",
          "name": "",
          "type": "address"
        }
      ],
      "name": "timestamp_borrow",
      "outputs": [
        {
          "internalType": "uint256",
          "name": "",
          "type": "uint256"
        }
      ],
      "stateMutability": "view",
      "type": "function"
    },
    {
      "inputs": [
        {
          "internalType": "uint256",
          "name": "_amount",
          "type": "uint256"
        }
      ],
      "name": "withdrawIBT",
      "outputs": [],
      "stateMutability": "nonpayable",
      "type": "function"
    },
    {
      "inputs": [
        {
          "internalType": "uint256",
          "name": "_amount",
          "type": "uint256"
        }
      ],
      "name": "withdrawMATIC",
      "outputs": [],
      "stateMutability": "nonpayable",
      "type": "function"
    }
  ],
  "bytecode": "0x60806040523480156200001157600080fd5b50604051620000209062000145565b604051809103906000f0801580156200003d573d6000803e3d6000fd5b50601560006101000a81548173ffffffffffffffffffffffffffffffffffffffff021916908373ffffffffffffffffffffffffffffffffffffffff1602179055506040516200008c9062000145565b604051809103906000f080158015620000a9573d6000803e3d6000fd5b50601660006101000a81548173ffffffffffffffffffffffffffffffffffffffff021916908373ffffffffffffffffffffffffffffffffffffffff16021790555073a7385b18bd0609551be8bc4be1af38d54c6c1720601760006101000a81548173ffffffffffffffffffffffffffffffffffffffff021916908373ffffffffffffffffffffffffffffffffffffffff16021790555062000153565b61262d806200322b83390190565b6130c880620001636000396000f3fe6080604052600436106101c25760003560e01c8063818e1777116100f7578063beae4b8911610095578063ea10a24511610064578063ea10a245146106e3578063eaf6e48314610720578063f2954d6a1461075d578063f5e8ba2714610788576101c2565b8063beae4b8914610613578063c21c8add14610650578063c24389951461067b578063e90f98ab146106a6576101c2565b8063a02579e2116100d1578063a02579e214610531578063a5fdc5de1461056e578063bc041dad146105ab578063bc32ddfa146105e8576101c2565b8063818e1777146104a057806384bd3a04146104dd57806388c564ad14610506576101c2565b8063570aa5c511610164578063749667821161013e57806374966782146103e45780637d69e5f8146104215780637e51013c1461044c578063816837e314610477576101c2565b8063570aa5c51461033f57806369307fcc1461036a5780636ae8b8f6146103a7576101c2565b806324427c6a116101a057806324427c6a1461024b57806333352b5114610288578063478230f7146102c557806350fc56f714610302576101c2565b8063062a2a5d146101c75780631d9053e01461020457806320ec5ea01461020e575b600080fd5b3480156101d357600080fd5b506101ee60048036038101906101e99190612a9d565b610792565b6040516101fb9190612ae3565b60405180910390f35b61020c6107aa565b005b34801561021a57600080fd5b5061023560048036038101906102309190612a9d565b610e0a565b6040516102429190612ae3565b60405180910390f35b34801561025757600080fd5b50610272600480360381019061026d9190612a9d565b610e22565b60405161027f9190612ae3565b60405180910390f35b34801561029457600080fd5b506102af60048036038101906102aa9190612a9d565b610e3a565b6040516102bc9190612b19565b60405180910390f35b3480156102d157600080fd5b506102ec60048036038101906102e79190612a9d565b610e5a565b6040516102f99190612ae3565b60405180910390f35b34801561030e57600080fd5b5061032960048036038101906103249190612a9d565b610e72565b6040516103369190612ae3565b60405180910390f35b34801561034b57600080fd5b50610354610e8a565b6040516103619190612b93565b60405180910390f35b34801561037657600080fd5b50610391600480360381019061038c9190612a9d565b610eb0565b60405161039e9190612ae3565b60405180910390f35b3480156103b357600080fd5b506103ce60048036038101906103c99190612a9d565b610ec8565b6040516103db9190612ae3565b60405180910390f35b3480156103f057600080fd5b5061040b60048036038101906104069190612a9d565b610ee0565b6040516104189190612ae3565b60405180910390f35b34801561042d57600080fd5b50610436610ef8565b6040516104439190612b19565b60405180910390f35b34801561045857600080fd5b50610461610f0b565b60405161046e9190612ae3565b60405180910390f35b34801561048357600080fd5b5061049e60048036038101906104999190612bda565b610f11565b005b3480156104ac57600080fd5b506104c760048036038101906104c29190612a9d565b6117e4565b6040516104d49190612ae3565b60405180910390f35b3480156104e957600080fd5b5061050460048036038101906104ff9190612bda565b6117fc565b005b34801561051257600080fd5b5061051b61210d565b6040516105289190612b19565b60405180910390f35b34801561053d57600080fd5b5061055860048036038101906105539190612a9d565b612120565b6040516105659190612ae3565b60405180910390f35b34801561057a57600080fd5b5061059560048036038101906105909190612a9d565b612138565b6040516105a29190612ae3565b60405180910390f35b3480156105b757600080fd5b506105d260048036038101906105cd9190612a9d565b612150565b6040516105df9190612ae3565b60405180910390f35b3480156105f457600080fd5b506105fd612168565b60405161060a9190612c28565b60405180910390f35b34801561061f57600080fd5b5061063a60048036038101906106359190612a9d565b61218e565b6040516106479190612ae3565b60405180910390f35b34801561065c57600080fd5b506106656121a6565b6040516106729190612ae3565b60405180910390f35b34801561068757600080fd5b506106906121ac565b60405161069d9190612c28565b60405180910390f35b3480156106b257600080fd5b506106cd60048036038101906106c89190612a9d565b6121d2565b6040516106da9190612ae3565b60405180910390f35b3480156106ef57600080fd5b5061070a60048036038101906107059190612a9d565b6121ea565b6040516107179190612ae3565b60405180910390f35b34801561072c57600080fd5b5061074760048036038101906107429190612a9d565b612202565b6040516107549190612b19565b60405180910390f35b34801561076957600080fd5b50610772612222565b60405161077f9190612ae3565b60405180910390f35b610790612228565b005b60056020528060005260406000206000915090505481565b60003490506709fdf42f6e48000060088190555060008111610801576040517f08c379a00000000000000000000000000000000000000000000000000000000081526004016107f890612ca0565b60405180910390fd5b601560009054906101000a900473ffffffffffffffffffffffffffffffffffffffff1673ffffffffffffffffffffffffffffffffffffffff1663a4fa277433836040518363ffffffff1660e01b815260040161085e929190612ccf565b600060405180830381600087803b15801561087857600080fd5b505af115801561088c573d6000803e3d6000fd5b50505050806000803373ffffffffffffffffffffffffffffffffffffffff1673ffffffffffffffffffffffffffffffffffffffff16815260200190815260200160002060008282546108de9190612d27565b92505081905550600a60085460076000803373ffffffffffffffffffffffffffffffffffffffff1673ffffffffffffffffffffffffffffffffffffffff168152602001908152602001600020546109359190612d5b565b61093f9190612d5b565b6109499190612dcc565b601460003373ffffffffffffffffffffffffffffffffffffffff1673ffffffffffffffffffffffffffffffffffffffff16815260200190815260200160002081905550806009600082825461099e9190612d27565b92505081905550806000803373ffffffffffffffffffffffffffffffffffffffff1673ffffffffffffffffffffffffffffffffffffffff1681526020019081526020016000205403610ad7576001601160016101000a81548160ff02191690831515021790555042600c60003373ffffffffffffffffffffffffffffffffffffffff1673ffffffffffffffffffffffffffffffffffffffff168152602001908152602001600020819055506000600d60003373ffffffffffffffffffffffffffffffffffffffff1673ffffffffffffffffffffffffffffffffffffffff1681526020019081526020016000208190555080600b60003373ffffffffffffffffffffffffffffffffffffffff1673ffffffffffffffffffffffffffffffffffffffff16815260200190815260200160002081905550610c69565b620f42406000803373ffffffffffffffffffffffffffffffffffffffff1673ffffffffffffffffffffffffffffffffffffffff16815260200190815260200160002054600c60003373ffffffffffffffffffffffffffffffffffffffff1673ffffffffffffffffffffffffffffffffffffffff1681526020019081526020016000205442610b659190612dfd565b610b6f9190612d5b565b610b799190612dcc565b600d60003373ffffffffffffffffffffffffffffffffffffffff1673ffffffffffffffffffffffffffffffffffffffff1681526020019081526020016000206000828254610bc79190612d27565b9250508190555042600c60003373ffffffffffffffffffffffffffffffffffffffff1673ffffffffffffffffffffffffffffffffffffffff1681526020019081526020016000208190555080600b60003373ffffffffffffffffffffffffffffffffffffffff1673ffffffffffffffffffffffffffffffffffffffff1681526020019081526020016000206000828254610c619190612d27565b925050819055505b610cb06000803373ffffffffffffffffffffffffffffffffffffffff1673ffffffffffffffffffffffffffffffffffffffff168152602001908152602001600020546128b8565b610cf8600c60003373ffffffffffffffffffffffffffffffffffffffff1673ffffffffffffffffffffffffffffffffffffffff168152602001908152602001600020546128b8565b610d40600d60003373ffffffffffffffffffffffffffffffffffffffff1673ffffffffffffffffffffffffffffffffffffffff168152602001908152602001600020546128b8565b3373ffffffffffffffffffffffffffffffffffffffff167f90890809c654f11d6e72a28fa60149770a0d11ec6c92319d6ceb2bb0a4ea1a158283604051610d88929190612e31565b60405180910390a27fdeaf03adaa870bd18d29c07613b960326f8b269698f66bb8c2e9efc5ae46705e336000803373ffffffffffffffffffffffffffffffffffffffff1673ffffffffffffffffffffffffffffffffffffffff16815260200190815260200160002054604051610dff929190612ccf565b60405180910390a150565b60126020528060005260406000206000915090505481565b60106020528060005260406000206000915090505481565b60066020528060005260406000206000915054906101000a900460ff1681565b60036020528060005260406000206000915090505481565b600e6020528060005260406000206000915090505481565b601760009054906101000a900473ffffffffffffffffffffffffffffffffffffffff1681565b60006020528060005260406000206000915090505481565b60146020528060005260406000206000915090505481565b60076020528060005260406000206000915090505481565b601160019054906101000a900460ff1681565b600a5481565b6000429050610f5d6000803373ffffffffffffffffffffffffffffffffffffffff1673ffffffffffffffffffffffffffffffffffffffff168152602001908152602001600020546128b8565b816000803373ffffffffffffffffffffffffffffffffffffffff1673ffffffffffffffffffffffffffffffffffffffff168152602001908152602001600020541015610fde576040517f08c379a0000000000000000000000000000000000000000000000000000000008152600401610fd590612ea6565b60405180910390fd5b601160019054906101000a900460ff16156112b657620f42406000803373ffffffffffffffffffffffffffffffffffffffff1673ffffffffffffffffffffffffffffffffffffffff16815260200190815260200160002054600c60003373ffffffffffffffffffffffffffffffffffffffff1673ffffffffffffffffffffffffffffffffffffffff16815260200190815260200160002054836110819190612dfd565b61108b9190612d5b565b6110959190612dcc565b600d60003373ffffffffffffffffffffffffffffffffffffffff1673ffffffffffffffffffffffffffffffffffffffff168152602001908152602001600020546110df9190612d27565b601360003373ffffffffffffffffffffffffffffffffffffffff1673ffffffffffffffffffffffffffffffffffffffff1681526020019081526020016000208190555061116a601360003373ffffffffffffffffffffffffffffffffffffffff1673ffffffffffffffffffffffffffffffffffffffff168152602001908152602001600020546128b8565b3373ffffffffffffffffffffffffffffffffffffffff166108fc601360003373ffffffffffffffffffffffffffffffffffffffff1673ffffffffffffffffffffffffffffffffffffffff16815260200190815260200160002054846111cf9190612d27565b9081150290604051600060405180830381858888f193505050501580156111fa573d6000803e3d6000fd5b506000601360003373ffffffffffffffffffffffffffffffffffffffff1673ffffffffffffffffffffffffffffffffffffffff1681526020019081526020016000208190555081600b60003373ffffffffffffffffffffffffffffffffffffffff1673ffffffffffffffffffffffffffffffffffffffff168152602001908152602001600020600082825461128f9190612dfd565b925050819055506000601160016101000a81548160ff021916908315150217905550611525565b601160019054906101000a900460ff1661152457620f42406000803373ffffffffffffffffffffffffffffffffffffffff1673ffffffffffffffffffffffffffffffffffffffff16815260200190815260200160002054600c60003373ffffffffffffffffffffffffffffffffffffffff1673ffffffffffffffffffffffffffffffffffffffff16815260200190815260200160002054836113589190612dfd565b6113629190612d5b565b61136c9190612dcc565b601360003373ffffffffffffffffffffffffffffffffffffffff1673ffffffffffffffffffffffffffffffffffffffff168152602001908152602001600020819055506113f7601360003373ffffffffffffffffffffffffffffffffffffffff1673ffffffffffffffffffffffffffffffffffffffff168152602001908152602001600020546128b8565b3373ffffffffffffffffffffffffffffffffffffffff166108fc601360003373ffffffffffffffffffffffffffffffffffffffff1673ffffffffffffffffffffffffffffffffffffffff168152602001908152602001600020548461145c9190612d27565b9081150290604051600060405180830381858888f19350505050158015611487573d6000803e3d6000fd5b5081600b60003373ffffffffffffffffffffffffffffffffffffffff1673ffffffffffffffffffffffffffffffffffffffff16815260200190815260200160002060008282546114d79190612dfd565b925050819055506000601360003373ffffffffffffffffffffffffffffffffffffffff1673ffffffffffffffffffffffffffffffffffffffff168152602001908152602001600020819055505b5b80600c60003373ffffffffffffffffffffffffffffffffffffffff1673ffffffffffffffffffffffffffffffffffffffff16815260200190815260200160002081905550601560009054906101000a900473ffffffffffffffffffffffffffffffffffffffff1673ffffffffffffffffffffffffffffffffffffffff1663e16dd03d33846040518363ffffffff1660e01b81526004016115c6929190612ccf565b600060405180830381600087803b1580156115e057600080fd5b505af11580156115f4573d6000803e3d6000fd5b50505050816000803373ffffffffffffffffffffffffffffffffffffffff1673ffffffffffffffffffffffffffffffffffffffff16815260200190815260200160002060008282546116469190612dfd565b92505081905550600a60076008546000803373ffffffffffffffffffffffffffffffffffffffff1673ffffffffffffffffffffffffffffffffffffffff1681526020019081526020016000205461169d9190612d5b565b6116a79190612d5b565b6116b19190612dcc565b601460003373ffffffffffffffffffffffffffffffffffffffff1673ffffffffffffffffffffffffffffffffffffffff1681526020019081526020016000208190555081600960008282546117069190612dfd565b9250508190555061174b6040518060400160405280600f81526020017f42616c616e636573204c656674203a0000000000000000000000000000000000815250612951565b6117926000803373ffffffffffffffffffffffffffffffffffffffff1673ffffffffffffffffffffffffffffffffffffffff168152602001908152602001600020546128b8565b3373ffffffffffffffffffffffffffffffffffffffff167f884edad9ce6fa2440d8a54cc123490eb96d2768479d49ff9c7366125a9424364836040516117d89190612ae3565b60405180910390a25050565b600d6020528060005260406000206000915090505481565b6000429050611849600160003373ffffffffffffffffffffffffffffffffffffffff1673ffffffffffffffffffffffffffffffffffffffff168152602001908152602001600020546128b8565b81600160003373ffffffffffffffffffffffffffffffffffffffff1673ffffffffffffffffffffffffffffffffffffffff1681526020019081526020016000205410156118cb576040517f08c379a00000000000000000000000000000000000000000000000000000000081526004016118c290612ea6565b60405180910390fd5b601760009054906101000a900473ffffffffffffffffffffffffffffffffffffffff1673ffffffffffffffffffffffffffffffffffffffff1663a9059cbb33846040518363ffffffff1660e01b8152600401611928929190612ccf565b6020604051808303816000875af1158015611947573d6000803e3d6000fd5b505050506040513d601f19601f8201168201806040525081019061196b9190612ef2565b6119aa576040517f08c379a00000000000000000000000000000000000000000000000000000000081526004016119a190612f6b565b60405180910390fd5b601160009054906101000a900460ff1615611c8357620f4240600160003373ffffffffffffffffffffffffffffffffffffffff1673ffffffffffffffffffffffffffffffffffffffff16815260200190815260200160002054600f60003373ffffffffffffffffffffffffffffffffffffffff1673ffffffffffffffffffffffffffffffffffffffff1681526020019081526020016000205483611a4e9190612dfd565b611a589190612d5b565b611a629190612dcc565b601060003373ffffffffffffffffffffffffffffffffffffffff1673ffffffffffffffffffffffffffffffffffffffff16815260200190815260200160002054611aac9190612d27565b601260003373ffffffffffffffffffffffffffffffffffffffff1673ffffffffffffffffffffffffffffffffffffffff16815260200190815260200160002081905550611b37601260003373ffffffffffffffffffffffffffffffffffffffff1673ffffffffffffffffffffffffffffffffffffffff168152602001908152602001600020546128b8565b3373ffffffffffffffffffffffffffffffffffffffff166108fc601260003373ffffffffffffffffffffffffffffffffffffffff1673ffffffffffffffffffffffffffffffffffffffff1681526020019081526020016000205484611b9c9190612d27565b9081150290604051600060405180830381858888f19350505050158015611bc7573d6000803e3d6000fd5b506000601260003373ffffffffffffffffffffffffffffffffffffffff1673ffffffffffffffffffffffffffffffffffffffff1681526020019081526020016000208190555081600e60003373ffffffffffffffffffffffffffffffffffffffff1673ffffffffffffffffffffffffffffffffffffffff1681526020019081526020016000206000828254611c5c9190612dfd565b925050819055506000601160006101000a81548160ff021916908315150217905550611ef3565b601160009054906101000a900460ff16611ef257620f4240600160003373ffffffffffffffffffffffffffffffffffffffff1673ffffffffffffffffffffffffffffffffffffffff16815260200190815260200160002054600f60003373ffffffffffffffffffffffffffffffffffffffff1673ffffffffffffffffffffffffffffffffffffffff1681526020019081526020016000205483611d269190612dfd565b611d309190612d5b565b611d3a9190612dcc565b601260003373ffffffffffffffffffffffffffffffffffffffff1673ffffffffffffffffffffffffffffffffffffffff16815260200190815260200160002081905550611dc5601260003373ffffffffffffffffffffffffffffffffffffffff1673ffffffffffffffffffffffffffffffffffffffff168152602001908152602001600020546128b8565b3373ffffffffffffffffffffffffffffffffffffffff166108fc601260003373ffffffffffffffffffffffffffffffffffffffff1673ffffffffffffffffffffffffffffffffffffffff1681526020019081526020016000205484611e2a9190612d27565b9081150290604051600060405180830381858888f19350505050158015611e55573d6000803e3d6000fd5b5081600e60003373ffffffffffffffffffffffffffffffffffffffff1673ffffffffffffffffffffffffffffffffffffffff1681526020019081526020016000206000828254611ea59190612dfd565b925050819055506000601260003373ffffffffffffffffffffffffffffffffffffffff1673ffffffffffffffffffffffffffffffffffffffff168152602001908152602001600020819055505b5b80600f60003373ffffffffffffffffffffffffffffffffffffffff1673ffffffffffffffffffffffffffffffffffffffff16815260200190815260200160002081905550601660009054906101000a900473ffffffffffffffffffffffffffffffffffffffff1673ffffffffffffffffffffffffffffffffffffffff1663bb818cc533846040518363ffffffff1660e01b8152600401611f94929190612ccf565b600060405180830381600087803b158015611fae57600080fd5b505af1158015611fc2573d6000803e3d6000fd5b5050505081600160003373ffffffffffffffffffffffffffffffffffffffff1673ffffffffffffffffffffffffffffffffffffffff16815260200190815260200160002060008282546120159190612dfd565b9250508190555081600a600082825461202e9190612dfd565b925050819055506120736040518060400160405280600f81526020017f42616c616e636573204c656674203a0000000000000000000000000000000000815250612951565b6120bb600160003373ffffffffffffffffffffffffffffffffffffffff1673ffffffffffffffffffffffffffffffffffffffff168152602001908152602001600020546128b8565b3373ffffffffffffffffffffffffffffffffffffffff167f884edad9ce6fa2440d8a54cc123490eb96d2768479d49ff9c7366125a9424364836040516121019190612ae3565b60405180910390a25050565b601160009054906101000a900460ff1681565b600c6020528060005260406000206000915090505481565b60026020528060005260406000206000915090505481565b600f6020528060005260406000206000915090505481565b601560009054906101000a900473ffffffffffffffffffffffffffffffffffffffff1681565b600b6020528060005260406000206000915090505481565b60095481565b601660009054906101000a900473ffffffffffffffffffffffffffffffffffffffff1681565b60136020528060005260406000206000915090505481565b60016020528060005260406000206000915090505481565b60046020528060005260406000206000915054906101000a900460ff1681565b60085481565b600034905060008111612270576040517f08c379a000000000000000000000000000000000000000000000000000000000815260040161226790612ca0565b60405180910390fd5b601760009054906101000a900473ffffffffffffffffffffffffffffffffffffffff1673ffffffffffffffffffffffffffffffffffffffff166323b872dd3330846040518463ffffffff1660e01b81526004016122cf93929190612f8b565b6020604051808303816000875af11580156122ee573d6000803e3d6000fd5b505050506040513d601f19601f820116820180604052508101906123129190612ef2565b612351576040517f08c379a000000000000000000000000000000000000000000000000000000000815260040161234890612f6b565b60405180910390fd5b601660009054906101000a900473ffffffffffffffffffffffffffffffffffffffff1673ffffffffffffffffffffffffffffffffffffffff1663e6c98c6f33836040518363ffffffff1660e01b81526004016123ae929190612ccf565b600060405180830381600087803b1580156123c857600080fd5b505af11580156123dc573d6000803e3d6000fd5b5050505080600160003373ffffffffffffffffffffffffffffffffffffffff1673ffffffffffffffffffffffffffffffffffffffff168152602001908152602001600020600082825461242f9190612d27565b9250508190555080600a60008282546124489190612d27565b9250508190555080600160003373ffffffffffffffffffffffffffffffffffffffff1673ffffffffffffffffffffffffffffffffffffffff1681526020019081526020016000205403612582576001601160006101000a81548160ff02191690831515021790555042600f60003373ffffffffffffffffffffffffffffffffffffffff1673ffffffffffffffffffffffffffffffffffffffff168152602001908152602001600020819055506000601060003373ffffffffffffffffffffffffffffffffffffffff1673ffffffffffffffffffffffffffffffffffffffff1681526020019081526020016000208190555080600e60003373ffffffffffffffffffffffffffffffffffffffff1673ffffffffffffffffffffffffffffffffffffffff16815260200190815260200160002081905550612715565b620f4240600160003373ffffffffffffffffffffffffffffffffffffffff1673ffffffffffffffffffffffffffffffffffffffff16815260200190815260200160002054600f60003373ffffffffffffffffffffffffffffffffffffffff1673ffffffffffffffffffffffffffffffffffffffff16815260200190815260200160002054426126119190612dfd565b61261b9190612d5b565b6126259190612dcc565b601060003373ffffffffffffffffffffffffffffffffffffffff1673ffffffffffffffffffffffffffffffffffffffff16815260200190815260200160002060008282546126739190612d27565b9250508190555042600f60003373ffffffffffffffffffffffffffffffffffffffff1673ffffffffffffffffffffffffffffffffffffffff1681526020019081526020016000208190555080600e60003373ffffffffffffffffffffffffffffffffffffffff1673ffffffffffffffffffffffffffffffffffffffff168152602001908152602001600020600082825461270d9190612d27565b925050819055505b61275d600160003373ffffffffffffffffffffffffffffffffffffffff1673ffffffffffffffffffffffffffffffffffffffff168152602001908152602001600020546128b8565b6127a5600f60003373ffffffffffffffffffffffffffffffffffffffff1673ffffffffffffffffffffffffffffffffffffffff168152602001908152602001600020546128b8565b6127ed601060003373ffffffffffffffffffffffffffffffffffffffff1673ffffffffffffffffffffffffffffffffffffffff168152602001908152602001600020546128b8565b3373ffffffffffffffffffffffffffffffffffffffff167f90890809c654f11d6e72a28fa60149770a0d11ec6c92319d6ceb2bb0a4ea1a158283604051612835929190612e31565b60405180910390a27fdeaf03adaa870bd18d29c07613b960326f8b269698f66bb8c2e9efc5ae46705e33600160003373ffffffffffffffffffffffffffffffffffffffff1673ffffffffffffffffffffffffffffffffffffffff168152602001908152602001600020546040516128ad929190612ccf565b60405180910390a150565b61294e816040516024016128cc9190612ae3565b6040516020818303038152906040527ff82c50f1000000000000000000000000000000000000000000000000000000007bffffffffffffffffffffffffffffffffffffffffffffffffffffffff19166020820180517bffffffffffffffffffffffffffffffffffffffffffffffffffffffff83818316178352505050506129ea565b50565b6129e7816040516024016129659190613041565b6040516020818303038152906040527f41304fac000000000000000000000000000000000000000000000000000000007bffffffffffffffffffffffffffffffffffffffffffffffffffffffff19166020820180517bffffffffffffffffffffffffffffffffffffffffffffffffffffffff83818316178352505050506129ea565b50565b612a01816129f9612a04612a25565b63ffffffff16565b50565b60006a636f6e736f6c652e6c6f679050600080835160208501845afa505050565b612a30819050919050565b612a38613063565b565b600080fd5b600073ffffffffffffffffffffffffffffffffffffffff82169050919050565b6000612a6a82612a3f565b9050919050565b612a7a81612a5f565b8114612a8557600080fd5b50565b600081359050612a9781612a71565b92915050565b600060208284031215612ab357612ab2612a3a565b5b6000612ac184828501612a88565b91505092915050565b6000819050919050565b612add81612aca565b82525050565b6000602082019050612af86000830184612ad4565b92915050565b60008115159050919050565b612b1381612afe565b82525050565b6000602082019050612b2e6000830184612b0a565b92915050565b6000819050919050565b6000612b59612b54612b4f84612a3f565b612b34565b612a3f565b9050919050565b6000612b6b82612b3e565b9050919050565b6000612b7d82612b60565b9050919050565b612b8d81612b72565b82525050565b6000602082019050612ba86000830184612b84565b92915050565b612bb781612aca565b8114612bc257600080fd5b50565b600081359050612bd481612bae565b92915050565b600060208284031215612bf057612bef612a3a565b5b6000612bfe84828501612bc5565b91505092915050565b6000612c1282612b60565b9050919050565b612c2281612c07565b82525050565b6000602082019050612c3d6000830184612c19565b92915050565b600082825260208201905092915050565b7f416d6f756e74206d7573742062652067726561746572207468616e2030000000600082015250565b6000612c8a601d83612c43565b9150612c9582612c54565b602082019050919050565b60006020820190508181036000830152612cb981612c7d565b9050919050565b612cc981612a5f565b82525050565b6000604082019050612ce46000830185612cc0565b612cf16020830184612ad4565b9392505050565b7f4e487b7100000000000000000000000000000000000000000000000000000000600052601160045260246000fd5b6000612d3282612aca565b9150612d3d83612aca565b9250828201905080821115612d5557612d54612cf8565b5b92915050565b6000612d6682612aca565b9150612d7183612aca565b9250828202612d7f81612aca565b91508282048414831517612d9657612d95612cf8565b5b5092915050565b7f4e487b7100000000000000000000000000000000000000000000000000000000600052601260045260246000fd5b6000612dd782612aca565b9150612de283612aca565b925082612df257612df1612d9d565b5b828204905092915050565b6000612e0882612aca565b9150612e1383612aca565b9250828203905081811115612e2b57612e2a612cf8565b5b92915050565b6000604082019050612e466000830185612ad4565b612e536020830184612ad4565b9392505050565b7f496e73756666696369656e742062616c616e6365000000000000000000000000600082015250565b6000612e90601483612c43565b9150612e9b82612e5a565b602082019050919050565b60006020820190508181036000830152612ebf81612e83565b9050919050565b612ecf81612afe565b8114612eda57600080fd5b50565b600081519050612eec81612ec6565b92915050565b600060208284031215612f0857612f07612a3a565b5b6000612f1684828501612edd565b91505092915050565b7f5472616e73666572206661696c65640000000000000000000000000000000000600082015250565b6000612f55600f83612c43565b9150612f6082612f1f565b602082019050919050565b60006020820190508181036000830152612f8481612f48565b9050919050565b6000606082019050612fa06000830186612cc0565b612fad6020830185612cc0565b612fba6040830184612ad4565b949350505050565b600081519050919050565b60005b83811015612feb578082015181840152602081019050612fd0565b60008484015250505050565b6000601f19601f8301169050919050565b600061301382612fc2565b61301d8185612c43565b935061302d818560208601612fcd565b61303681612ff7565b840191505092915050565b6000602082019050818103600083015261305b8184613008565b905092915050565b7f4e487b7100000000000000000000000000000000000000000000000000000000600052605160045260246000fdfea26469706673582212201fe76778d24c03c6e228ae2475d2c12ee408a7304dab9315e51029503b91ddec64736f6c6343000818003360806040523480156200001157600080fd5b506040518060400160405280600f81526020017f61546f6b656e20457468657265756d00000000000000000000000000000000008152506040518060400160405280600681526020017f41546f6b656e000000000000000000000000000000000000000000000000000081525081600390816200008f9190620003a0565b508060049081620000a19190620003a0565b50505033600560006101000a81548173ffffffffffffffffffffffffffffffffffffffff021916908373ffffffffffffffffffffffffffffffffffffffff1602179055506709fdf42f6e4800006ec097ce7bc90715b34b9f10000000006200010a9190620004b6565b6006819055506804cc99bdf2ad550000600781905550620004ee565b600081519050919050565b7f4e487b7100000000000000000000000000000000000000000000000000000000600052604160045260246000fd5b7f4e487b7100000000000000000000000000000000000000000000000000000000600052602260045260246000fd5b60006002820490506001821680620001a857607f821691505b602082108103620001be57620001bd62000160565b5b50919050565b60008190508160005260206000209050919050565b60006020601f8301049050919050565b600082821b905092915050565b600060088302620002287fffffffffffffffffffffffffffffffffffffffffffffffffffffffffffffffff82620001e9565b620002348683620001e9565b95508019841693508086168417925050509392505050565b6000819050919050565b6000819050919050565b6000620002816200027b62000275846200024c565b62000256565b6200024c565b9050919050565b6000819050919050565b6200029d8362000260565b620002b5620002ac8262000288565b848454620001f6565b825550505050565b600090565b620002cc620002bd565b620002d981848462000292565b505050565b5b818110156200030157620002f5600082620002c2565b600181019050620002df565b5050565b601f82111562000350576200031a81620001c4565b6200032584620001d9565b8101602085101562000335578190505b6200034d6200034485620001d9565b830182620002de565b50505b505050565b600082821c905092915050565b6000620003756000198460080262000355565b1980831691505092915050565b600062000390838362000362565b9150826002028217905092915050565b620003ab8262000126565b67ffffffffffffffff811115620003c757620003c662000131565b5b620003d382546200018f565b620003e082828562000305565b600060209050601f83116001811462000418576000841562000403578287015190505b6200040f858262000382565b8655506200047f565b601f1984166200042886620001c4565b60005b8281101562000452578489015182556001820191506020850194506020810190506200042b565b868310156200047257848901516200046e601f89168262000362565b8355505b6001600288020188555050505b505050505050565b7f4e487b7100000000000000000000000000000000000000000000000000000000600052601260045260246000fd5b6000620004c3826200024c565b9150620004d0836200024c565b925082620004e357620004e262000487565b5b828204905092915050565b61212f80620004fe6000396000f3fe60806040526004361061011f5760003560e01c806370a08231116100a0578063a9059cbb11610064578063a9059cbb14610401578063bb818cc51461043e578063dd62ed3e14610467578063e16dd03d146104a4578063e6c98c6f146104c05761011f565b806370a08231146103085780638da5cb5b1461034557806395d89b4114610370578063a457c2d71461039b578063a4fa2774146103d85761011f565b8063313ce567116100e7578063313ce5671461021f578063395093511461024a5780633d6d142c1461028757806342e8dc89146102b25780636f0515a1146102dd5761011f565b806306fdde0314610124578063095ea7b31461014f57806318160ddd1461018c578063207ec727146101b757806323b872dd146101e2575b600080fd5b34801561013057600080fd5b506101396104e9565b604051610146919061160f565b60405180910390f35b34801561015b57600080fd5b50610176600480360381019061017191906116ca565b61057b565b6040516101839190611725565b60405180910390f35b34801561019857600080fd5b506101a161059e565b6040516101ae919061174f565b60405180910390f35b3480156101c357600080fd5b506101cc6105a8565b6040516101d9919061174f565b60405180910390f35b3480156101ee57600080fd5b506102096004803603810190610204919061176a565b6105b5565b6040516102169190611725565b60405180910390f35b34801561022b57600080fd5b506102346105e4565b60405161024191906117d9565b60405180910390f35b34801561025657600080fd5b50610271600480360381019061026c91906116ca565b6105ed565b60405161027e9190611725565b60405180910390f35b34801561029357600080fd5b5061029c610624565b6040516102a9919061174f565b60405180910390f35b3480156102be57600080fd5b506102c761062a565b6040516102d4919061174f565b60405180910390f35b3480156102e957600080fd5b506102f2610630565b6040516102ff919061174f565b60405180910390f35b34801561031457600080fd5b5061032f600480360381019061032a91906117f4565b61063c565b60405161033c919061174f565b60405180910390f35b34801561035157600080fd5b5061035a610684565b6040516103679190611830565b60405180910390f35b34801561037c57600080fd5b506103856106aa565b604051610392919061160f565b60405180910390f35b3480156103a757600080fd5b506103c260048036038101906103bd91906116ca565b61073c565b6040516103cf9190611725565b60405180910390f35b3480156103e457600080fd5b506103ff60048036038101906103fa91906116ca565b6107b3565b005b34801561040d57600080fd5b50610428600480360381019061042391906116ca565b610929565b6040516104359190611725565b60405180910390f35b34801561044a57600080fd5b50610465600480360381019061046091906116ca565b61094c565b005b34801561047357600080fd5b5061048e6004803603810190610489919061184b565b610a5f565b60405161049b919061174f565b60405180910390f35b6104be60048036038101906104b991906116ca565b610ae6565b005b3480156104cc57600080fd5b506104e760048036038101906104e291906116ca565b610c51565b005b6060600380546104f8906118ba565b80601f0160208091040260200160405190810160405280929190818152602001828054610524906118ba565b80156105715780601f1061054657610100808354040283529160200191610571565b820191906000526020600020905b81548152906001019060200180831161055457829003601f168201915b5050505050905090565b600080610586610d64565b9050610593818585610d6c565b600191505092915050565b6000600254905090565b6804cc99bdf2ad55000081565b6000806105c0610d64565b90506105cd858285610f35565b6105d8858585610fc1565b60019150509392505050565b60006012905090565b6000806105f8610d64565b905061061981858561060a8589610a5f565b610614919061191a565b610d6c565b600191505092915050565b60065481565b60075481565b6709fdf42f6e48000081565b60008060008373ffffffffffffffffffffffffffffffffffffffff1673ffffffffffffffffffffffffffffffffffffffff168152602001908152602001600020549050919050565b600560009054906101000a900473ffffffffffffffffffffffffffffffffffffffff1681565b6060600480546106b9906118ba565b80601f01602080910402602001604051908101604052809291908181526020018280546106e5906118ba565b80156107325780601f1061070757610100808354040283529160200191610732565b820191906000526020600020905b81548152906001019060200180831161071557829003601f168201915b5050505050905090565b600080610747610d64565b905060006107558286610a5f565b90508381101561079a576040517f08c379a0000000000000000000000000000000000000000000000000000000008152600401610791906119c0565b60405180910390fd5b6107a78286868403610d6c565b60019250505092915050565b600560009054906101000a900473ffffffffffffffffffffffffffffffffffffffff1673ffffffffffffffffffffffffffffffffffffffff163373ffffffffffffffffffffffffffffffffffffffff1614610843576040517f08c379a000000000000000000000000000000000000000000000000000000000815260040161083a90611a2c565b60405180910390fd5b60006007546096600654846108589190611a4c565b6108629190611a4c565b61086c9190611abd565b90506108788382611240565b60006108838461063c565b90508373ffffffffffffffffffffffffffffffffffffffff167fb0750f6c39be925832beb4b2ee749481dc9e87e71e38e643dc1c7742c5f8aba2826040516108cb919061174f565b60405180910390a28373ffffffffffffffffffffffffffffffffffffffff167f2e8ac5177a616f2aec08c3048f5021e4e9743ece034e8d83ba5caf76688bb475848460405161091b929190611aee565b60405180910390a250505050565b600080610934610d64565b9050610941818585610fc1565b600191505092915050565b600560009054906101000a900473ffffffffffffffffffffffffffffffffffffffff1673ffffffffffffffffffffffffffffffffffffffff163373ffffffffffffffffffffffffffffffffffffffff16146109dc576040517f08c379a00000000000000000000000000000000000000000000000000000000081526004016109d390611b63565b60405180910390fd5b600060075466038d7ea4c68000836109f49190611a4c565b6109fe9190611abd565b9050610a0a838261139f565b8273ffffffffffffffffffffffffffffffffffffffff167fccbea4088a3b7ae9ca2d15fab9a9742a4075b4d7247768a1eecea917565aba008383604051610a52929190611aee565b60405180910390a2505050565b6000600160008473ffffffffffffffffffffffffffffffffffffffff1673ffffffffffffffffffffffffffffffffffffffff16815260200190815260200160002060008373ffffffffffffffffffffffffffffffffffffffff1673ffffffffffffffffffffffffffffffffffffffff16815260200190815260200160002054905092915050565b600560009054906101000a900473ffffffffffffffffffffffffffffffffffffffff1673ffffffffffffffffffffffffffffffffffffffff163373ffffffffffffffffffffffffffffffffffffffff1614610b76576040517f08c379a0000000000000000000000000000000000000000000000000000000008152600401610b6d90611b63565b60405180910390fd5b600060075466038d7ea4c6800060065484610b919190611a4c565b610b9b9190611a4c565b610ba59190611abd565b905080610bb18461063c565b1015610bf2576040517f08c379a0000000000000000000000000000000000000000000000000000000008152600401610be990611bcf565b60405180910390fd5b610bfc838261139f565b8273ffffffffffffffffffffffffffffffffffffffff167fccbea4088a3b7ae9ca2d15fab9a9742a4075b4d7247768a1eecea917565aba008383604051610c44929190611aee565b60405180910390a2505050565b600560009054906101000a900473ffffffffffffffffffffffffffffffffffffffff1673ffffffffffffffffffffffffffffffffffffffff163373ffffffffffffffffffffffffffffffffffffffff1614610ce1576040517f08c379a0000000000000000000000000000000000000000000000000000000008152600401610cd890611a2c565b60405180910390fd5b600060075466038d7ea4c6800083610cf99190611a4c565b610d039190611abd565b9050610d0f8382611240565b8273ffffffffffffffffffffffffffffffffffffffff167f2e8ac5177a616f2aec08c3048f5021e4e9743ece034e8d83ba5caf76688bb4758383604051610d57929190611aee565b60405180910390a2505050565b600033905090565b600073ffffffffffffffffffffffffffffffffffffffff168373ffffffffffffffffffffffffffffffffffffffff1603610ddb576040517f08c379a0000000000000000000000000000000000000000000000000000000008152600401610dd290611c61565b60405180910390fd5b600073ffffffffffffffffffffffffffffffffffffffff168273ffffffffffffffffffffffffffffffffffffffff1603610e4a576040517f08c379a0000000000000000000000000000000000000000000000000000000008152600401610e4190611cf3565b60405180910390fd5b80600160008573ffffffffffffffffffffffffffffffffffffffff1673ffffffffffffffffffffffffffffffffffffffff16815260200190815260200160002060008473ffffffffffffffffffffffffffffffffffffffff1673ffffffffffffffffffffffffffffffffffffffff168152602001908152602001600020819055508173ffffffffffffffffffffffffffffffffffffffff168373ffffffffffffffffffffffffffffffffffffffff167f8c5be1e5ebec7d5bd14f71427d1e84f3dd0314c0f7b2291e5b200ac8c7c3b92583604051610f28919061174f565b60405180910390a3505050565b6000610f418484610a5f565b90507fffffffffffffffffffffffffffffffffffffffffffffffffffffffffffffffff8114610fbb5781811015610fad576040517f08c379a0000000000000000000000000000000000000000000000000000000008152600401610fa490611d5f565b60405180910390fd5b610fba8484848403610d6c565b5b50505050565b600073ffffffffffffffffffffffffffffffffffffffff168373ffffffffffffffffffffffffffffffffffffffff1603611030576040517f08c379a000000000000000000000000000000000000000000000000000000000815260040161102790611df1565b60405180910390fd5b600073ffffffffffffffffffffffffffffffffffffffff168273ffffffffffffffffffffffffffffffffffffffff160361109f576040517f08c379a000000000000000000000000000000000000000000000000000000000815260040161109690611e83565b60405180910390fd5b6110aa838383611575565b60008060008573ffffffffffffffffffffffffffffffffffffffff1673ffffffffffffffffffffffffffffffffffffffff16815260200190815260200160002054905081811015611130576040517f08c379a000000000000000000000000000000000000000000000000000000000815260040161112790611f15565b60405180910390fd5b8181036000808673ffffffffffffffffffffffffffffffffffffffff1673ffffffffffffffffffffffffffffffffffffffff16815260200190815260200160002081905550816000808573ffffffffffffffffffffffffffffffffffffffff1673ffffffffffffffffffffffffffffffffffffffff16815260200190815260200160002060008282546111c3919061191a565b925050819055508273ffffffffffffffffffffffffffffffffffffffff168473ffffffffffffffffffffffffffffffffffffffff167fddf252ad1be2c89b69c2b068fc378daa952ba7f163c4a11628f55a4df523b3ef84604051611227919061174f565b60405180910390a361123a84848461157a565b50505050565b600073ffffffffffffffffffffffffffffffffffffffff168273ffffffffffffffffffffffffffffffffffffffff16036112af576040517f08c379a00000000000000000000000000000000000000000000000000000000081526004016112a690611f81565b60405180910390fd5b6112bb60008383611575565b80600260008282546112cd919061191a565b92505081905550806000808473ffffffffffffffffffffffffffffffffffffffff1673ffffffffffffffffffffffffffffffffffffffff1681526020019081526020016000206000828254611322919061191a565b925050819055508173ffffffffffffffffffffffffffffffffffffffff16600073ffffffffffffffffffffffffffffffffffffffff167fddf252ad1be2c89b69c2b068fc378daa952ba7f163c4a11628f55a4df523b3ef83604051611387919061174f565b60405180910390a361139b6000838361157a565b5050565b600073ffffffffffffffffffffffffffffffffffffffff168273ffffffffffffffffffffffffffffffffffffffff160361140e576040517f08c379a000000000000000000000000000000000000000000000000000000000815260040161140590612013565b60405180910390fd5b61141a82600083611575565b60008060008473ffffffffffffffffffffffffffffffffffffffff1673ffffffffffffffffffffffffffffffffffffffff168152602001908152602001600020549050818110156114a0576040517f08c379a0000000000000000000000000000000000000000000000000000000008152600401611497906120a5565b60405180910390fd5b8181036000808573ffffffffffffffffffffffffffffffffffffffff1673ffffffffffffffffffffffffffffffffffffffff1681526020019081526020016000208190555081600260008282546114f791906120c5565b92505081905550600073ffffffffffffffffffffffffffffffffffffffff168373ffffffffffffffffffffffffffffffffffffffff167fddf252ad1be2c89b69c2b068fc378daa952ba7f163c4a11628f55a4df523b3ef8460405161155c919061174f565b60405180910390a36115708360008461157a565b505050565b505050565b505050565b600081519050919050565b600082825260208201905092915050565b60005b838110156115b957808201518184015260208101905061159e565b60008484015250505050565b6000601f19601f8301169050919050565b60006115e18261157f565b6115eb818561158a565b93506115fb81856020860161159b565b611604816115c5565b840191505092915050565b6000602082019050818103600083015261162981846115d6565b905092915050565b600080fd5b600073ffffffffffffffffffffffffffffffffffffffff82169050919050565b600061166182611636565b9050919050565b61167181611656565b811461167c57600080fd5b50565b60008135905061168e81611668565b92915050565b6000819050919050565b6116a781611694565b81146116b257600080fd5b50565b6000813590506116c48161169e565b92915050565b600080604083850312156116e1576116e0611631565b5b60006116ef8582860161167f565b9250506020611700858286016116b5565b9150509250929050565b60008115159050919050565b61171f8161170a565b82525050565b600060208201905061173a6000830184611716565b92915050565b61174981611694565b82525050565b60006020820190506117646000830184611740565b92915050565b60008060006060848603121561178357611782611631565b5b60006117918682870161167f565b93505060206117a28682870161167f565b92505060406117b3868287016116b5565b9150509250925092565b600060ff82169050919050565b6117d3816117bd565b82525050565b60006020820190506117ee60008301846117ca565b92915050565b60006020828403121561180a57611809611631565b5b60006118188482850161167f565b91505092915050565b61182a81611656565b82525050565b60006020820190506118456000830184611821565b92915050565b6000806040838503121561186257611861611631565b5b60006118708582860161167f565b92505060206118818582860161167f565b9150509250929050565b7f4e487b7100000000000000000000000000000000000000000000000000000000600052602260045260246000fd5b600060028204905060018216806118d257607f821691505b6020821081036118e5576118e461188b565b5b50919050565b7f4e487b7100000000000000000000000000000000000000000000000000000000600052601160045260246000fd5b600061192582611694565b915061193083611694565b9250828201905080821115611948576119476118eb565b5b92915050565b7f45524332303a2064656372656173656420616c6c6f77616e63652062656c6f7760008201527f207a65726f000000000000000000000000000000000000000000000000000000602082015250565b60006119aa60258361158a565b91506119b58261194e565b604082019050919050565b600060208201905081810360008301526119d98161199d565b9050919050565b7f4f6e6c79206f776e65722063616e206d696e7420746f6b656e73000000000000600082015250565b6000611a16601a8361158a565b9150611a21826119e0565b602082019050919050565b60006020820190508181036000830152611a4581611a09565b9050919050565b6000611a5782611694565b9150611a6283611694565b9250828202611a7081611694565b91508282048414831517611a8757611a866118eb565b5b5092915050565b7f4e487b7100000000000000000000000000000000000000000000000000000000600052601260045260246000fd5b6000611ac882611694565b9150611ad383611694565b925082611ae357611ae2611a8e565b5b828204905092915050565b6000604082019050611b036000830185611740565b611b106020830184611740565b9392505050565b7f4f6e6c79206f776e65722063616e206275726e20746f6b656e73000000000000600082015250565b6000611b4d601a8361158a565b9150611b5882611b17565b602082019050919050565b60006020820190508181036000830152611b7c81611b40565b9050919050565b7f496e73756666696369656e742062616c616e6365000000000000000000000000600082015250565b6000611bb960148361158a565b9150611bc482611b83565b602082019050919050565b60006020820190508181036000830152611be881611bac565b9050919050565b7f45524332303a20617070726f76652066726f6d20746865207a65726f2061646460008201527f7265737300000000000000000000000000000000000000000000000000000000602082015250565b6000611c4b60248361158a565b9150611c5682611bef565b604082019050919050565b60006020820190508181036000830152611c7a81611c3e565b9050919050565b7f45524332303a20617070726f766520746f20746865207a65726f20616464726560008201527f7373000000000000000000000000000000000000000000000000000000000000602082015250565b6000611cdd60228361158a565b9150611ce882611c81565b604082019050919050565b60006020820190508181036000830152611d0c81611cd0565b9050919050565b7f45524332303a20696e73756666696369656e7420616c6c6f77616e6365000000600082015250565b6000611d49601d8361158a565b9150611d5482611d13565b602082019050919050565b60006020820190508181036000830152611d7881611d3c565b9050919050565b7f45524332303a207472616e736665722066726f6d20746865207a65726f20616460008201527f6472657373000000000000000000000000000000000000000000000000000000602082015250565b6000611ddb60258361158a565b9150611de682611d7f565b604082019050919050565b60006020820190508181036000830152611e0a81611dce565b9050919050565b7f45524332303a207472616e7366657220746f20746865207a65726f206164647260008201527f6573730000000000000000000000000000000000000000000000000000000000602082015250565b6000611e6d60238361158a565b9150611e7882611e11565b604082019050919050565b60006020820190508181036000830152611e9c81611e60565b9050919050565b7f45524332303a207472616e7366657220616d6f756e742065786365656473206260008201527f616c616e63650000000000000000000000000000000000000000000000000000602082015250565b6000611eff60268361158a565b9150611f0a82611ea3565b604082019050919050565b60006020820190508181036000830152611f2e81611ef2565b9050919050565b7f45524332303a206d696e7420746f20746865207a65726f206164647265737300600082015250565b6000611f6b601f8361158a565b9150611f7682611f35565b602082019050919050565b60006020820190508181036000830152611f9a81611f5e565b9050919050565b7f45524332303a206275726e2066726f6d20746865207a65726f2061646472657360008201527f7300000000000000000000000000000000000000000000000000000000000000602082015250565b6000611ffd60218361158a565b915061200882611fa1565b604082019050919050565b6000602082019050818103600083015261202c81611ff0565b9050919050565b7f45524332303a206275726e20616d6f756e7420657863656564732062616c616e60008201527f6365000000000000000000000000000000000000000000000000000000000000602082015250565b600061208f60228361158a565b915061209a82612033565b604082019050919050565b600060208201905081810360008301526120be81612082565b9050919050565b60006120d082611694565b91506120db83611694565b92508282039050818111156120f3576120f26118eb565b5b9291505056fea2646970667358221220ad5ccfbcb032612e6ee3f3edb740104c1fb4e774472bbc2762362913575bf14c64736f6c63430008180033",
  "linkReferences": {},
  "deployedLinkReferences": {}
}