{
  "_format": "hh-sol-artifact-1",
  "contractName": "Lend",
  "sourceName": "contracts/Lend.sol",
  "abi": [
    {
      "inputs": [],
      "stateMutability": "nonpayable",
      "type": "constructor"
    },
    {
      "anonymous": false,
      "inputs": [
        {
          "indexed": false,
          "internalType": "address",
          "name": "account",
          "type": "address"
        },
        {
          "indexed": false,
          "internalType": "uint256",
          "name": "balance",
          "type": "uint256"
        }
      ],
      "name": "BalanceAfterDeposit",
      "type": "event"
    },
    {
      "anonymous": false,
      "inputs": [
        {
          "indexed": false,
          "internalType": "address",
          "name": "account",
          "type": "address"
        },
        {
          "indexed": false,
          "internalType": "uint256",
          "name": "balance",
          "type": "uint256"
        }
      ],
      "name": "BalanceAfterWithdrawal",
      "type": "event"
    },
    {
      "anonymous": false,
      "inputs": [
        {
          "indexed": true,
          "internalType": "address",
          "name": "user",
          "type": "address"
        },
        {
          "indexed": false,
          "internalType": "uint256",
          "name": "amount",
          "type": "uint256"
        }
      ],
      "name": "Borrow",
      "type": "event"
    },
    {
      "anonymous": false,
      "inputs": [
        {
          "indexed": true,
          "internalType": "address",
          "name": "user",
          "type": "address"
        },
        {
          "indexed": false,
          "internalType": "uint256",
          "name": "amount",
          "type": "uint256"
        },
        {
          "indexed": false,
          "internalType": "uint256",
          "name": "tokensMinted",
          "type": "uint256"
        }
      ],
      "name": "Deposit",
      "type": "event"
    },
    {
      "anonymous": false,
      "inputs": [
        {
          "indexed": true,
          "internalType": "address",
          "name": "user",
          "type": "address"
        },
        {
          "indexed": false,
          "internalType": "uint256",
          "name": "amount",
          "type": "uint256"
        }
      ],
      "name": "Repay",
      "type": "event"
    },
    {
      "anonymous": false,
      "inputs": [
        {
          "indexed": true,
          "internalType": "address",
          "name": "user",
          "type": "address"
        },
        {
          "indexed": false,
          "internalType": "uint256",
          "name": "amount",
          "type": "uint256"
        }
      ],
      "name": "Withdraw",
      "type": "event"
    },
    {
      "inputs": [],
      "name": "MTC_price",
      "outputs": [
        {
          "internalType": "uint256",
          "name": "",
          "type": "uint256"
        }
      ],
      "stateMutability": "view",
      "type": "function"
    },
    {
      "inputs": [
        {
          "internalType": "address",
          "name": "",
          "type": "address"
        }
      ],
      "name": "borrowable_amount",
      "outputs": [
        {
          "internalType": "uint256",
          "name": "",
          "type": "uint256"
        }
      ],
      "stateMutability": "view",
      "type": "function"
    },
    {
      "inputs": [
        {
          "internalType": "address",
          "name": "",
          "type": "address"
        }
      ],
      "name": "borrowedAmounts",
      "outputs": [
        {
          "internalType": "uint256",
          "name": "",
          "type": "uint256"
        }
      ],
      "stateMutability": "view",
      "type": "function"
    },
    {
      "inputs": [
        {
          "internalType": "address",
          "name": "",
          "type": "address"
        }
      ],
      "name": "collateral",
      "outputs": [
        {
          "internalType": "uint256",
          "name": "",
          "type": "uint256"
        }
      ],
      "stateMutability": "view",
      "type": "function"
    },
    {
      "inputs": [
        {
          "internalType": "uint256",
          "name": "_ibtamount",
          "type": "uint256"
        }
      ],
      "name": "depositIbt",
      "outputs": [],
      "stateMutability": "nonpayable",
      "type": "function"
    },
    {
      "inputs": [],
      "name": "depositMatic",
      "outputs": [],
      "stateMutability": "payable",
      "type": "function"
    },
    {
      "inputs": [],
      "name": "ibtTokenAddress",
      "outputs": [
        {
          "internalType": "address",
          "name": "",
          "type": "address"
        }
      ],
      "stateMutability": "view",
      "type": "function"
    },
    {
      "inputs": [
        {
          "internalType": "address",
          "name": "",
          "type": "address"
        }
      ],
      "name": "ibt_accruedInterest",
      "outputs": [
        {
          "internalType": "uint256",
          "name": "",
          "type": "uint256"
        }
      ],
      "stateMutability": "view",
      "type": "function"
    },
    {
      "inputs": [
        {
          "internalType": "address",
          "name": "",
          "type": "address"
        }
      ],
      "name": "ibt_balances",
      "outputs": [
        {
          "internalType": "uint256",
          "name": "",
          "type": "uint256"
        }
      ],
      "stateMutability": "view",
      "type": "function"
    },
    {
      "inputs": [
        {
          "internalType": "address",
          "name": "",
          "type": "address"
        }
      ],
      "name": "ibt_deposit_timestamp",
      "outputs": [
        {
          "internalType": "uint256",
          "name": "",
          "type": "uint256"
        }
      ],
      "stateMutability": "view",
      "type": "function"
    },
    {
      "inputs": [
        {
          "internalType": "address",
          "name": "",
          "type": "address"
        }
      ],
      "name": "ibt_interest_balances",
      "outputs": [
        {
          "internalType": "uint256",
          "name": "",
          "type": "uint256"
        }
      ],
      "stateMutability": "view",
      "type": "function"
    },
    {
      "inputs": [],
      "name": "ibt_isFirstWithdraw",
      "outputs": [
        {
          "internalType": "bool",
          "name": "",
          "type": "bool"
        }
      ],
      "stateMutability": "view",
      "type": "function"
    },
    {
      "inputs": [],
      "name": "ibt_totalDeposits",
      "outputs": [
        {
          "internalType": "uint256",
          "name": "",
          "type": "uint256"
        }
      ],
      "stateMutability": "view",
      "type": "function"
    },
    {
      "inputs": [
        {
          "internalType": "address",
          "name": "",
          "type": "address"
        }
      ],
      "name": "ibt_withdrawInterest",
      "outputs": [
        {
          "internalType": "uint256",
          "name": "",
          "type": "uint256"
        }
      ],
      "stateMutability": "view",
      "type": "function"
    },
    {
      "inputs": [
        {
          "internalType": "address",
          "name": "",
          "type": "address"
        }
      ],
      "name": "isBorrower",
      "outputs": [
        {
          "internalType": "bool",
          "name": "",
          "type": "bool"
        }
      ],
      "stateMutability": "view",
      "type": "function"
    },
    {
      "inputs": [
        {
          "internalType": "address",
          "name": "",
          "type": "address"
        }
      ],
      "name": "isFirstRepay",
      "outputs": [
        {
          "internalType": "bool",
          "name": "",
          "type": "bool"
        }
      ],
      "stateMutability": "view",
      "type": "function"
    },
    {
      "inputs": [
        {
          "internalType": "address",
          "name": "",
          "type": "address"
        }
      ],
      "name": "matic_accruedInterest",
      "outputs": [
        {
          "internalType": "uint256",
          "name": "",
          "type": "uint256"
        }
      ],
      "stateMutability": "view",
      "type": "function"
    },
    {
      "inputs": [
        {
          "internalType": "address",
          "name": "",
          "type": "address"
        }
      ],
      "name": "matic_balances",
      "outputs": [
        {
          "internalType": "uint256",
          "name": "",
          "type": "uint256"
        }
      ],
      "stateMutability": "view",
      "type": "function"
    },
    {
      "inputs": [
        {
          "internalType": "address",
          "name": "",
          "type": "address"
        }
      ],
      "name": "matic_deposit_timestamp",
      "outputs": [
        {
          "internalType": "uint256",
          "name": "",
          "type": "uint256"
        }
      ],
      "stateMutability": "view",
      "type": "function"
    },
    {
      "inputs": [
        {
          "internalType": "address",
          "name": "",
          "type": "address"
        }
      ],
      "name": "matic_interest_balances",
      "outputs": [
        {
          "internalType": "uint256",
          "name": "",
          "type": "uint256"
        }
      ],
      "stateMutability": "view",
      "type": "function"
    },
    {
      "inputs": [],
      "name": "matic_isFirstWithdraw",
      "outputs": [
        {
          "internalType": "bool",
          "name": "",
          "type": "bool"
        }
      ],
      "stateMutability": "view",
      "type": "function"
    },
    {
      "inputs": [],
      "name": "matic_totalDeposits",
      "outputs": [
        {
          "internalType": "uint256",
          "name": "",
          "type": "uint256"
        }
      ],
      "stateMutability": "view",
      "type": "function"
    },
    {
      "inputs": [
        {
          "internalType": "address",
          "name": "",
          "type": "address"
        }
      ],
      "name": "matic_withdrawInterest",
      "outputs": [
        {
          "internalType": "uint256",
          "name": "",
          "type": "uint256"
        }
      ],
      "stateMutability": "view",
      "type": "function"
    },
    {
      "inputs": [
        {
          "internalType": "address",
          "name": "",
          "type": "address"
        }
      ],
      "name": "repayable_interest",
      "outputs": [
        {
          "internalType": "uint256",
          "name": "",
          "type": "uint256"
        }
      ],
      "stateMutability": "view",
      "type": "function"
    },
    {
      "inputs": [
        {
          "internalType": "address",
          "name": "",
          "type": "address"
        }
      ],
      "name": "timestamp_borrow",
      "outputs": [
        {
          "internalType": "uint256",
          "name": "",
          "type": "uint256"
        }
      ],
      "stateMutability": "view",
      "type": "function"
    },
    {
      "inputs": [],
      "name": "token",
      "outputs": [
        {
          "internalType": "contract AToken",
          "name": "",
          "type": "address"
        }
      ],
      "stateMutability": "view",
      "type": "function"
    },
    {
      "inputs": [
        {
          "internalType": "uint256",
          "name": "amount",
          "type": "uint256"
        }
      ],
      "name": "withdrawIbt",
      "outputs": [],
      "stateMutability": "nonpayable",
      "type": "function"
    },
    {
      "inputs": [
        {
          "internalType": "uint256",
          "name": "amount",
          "type": "uint256"
        }
      ],
      "name": "withdrawMatic",
      "outputs": [],
      "stateMutability": "nonpayable",
      "type": "function"
    }
  ],
  "bytecode": "0x60806040523480156200001157600080fd5b506040516200002090620000d9565b604051809103906000f0801580156200003d573d6000803e3d6000fd5b50601560006101000a81548173ffffffffffffffffffffffffffffffffffffffff021916908373ffffffffffffffffffffffffffffffffffffffff160217905550731c1f26815308e35034d044f0d21e0f0f6b714ad1601660006101000a81548173ffffffffffffffffffffffffffffffffffffffff021916908373ffffffffffffffffffffffffffffffffffffffff160217905550620000e7565b61262d806200260f83390190565b61251880620000f76000396000f3fe6080604052600436106101b75760003560e01c806388c564ad116100ec578063e8a379b21161008a578063eaf6e48311610064578063eaf6e483146106bd578063f2954d6a146106fa578063f597985314610725578063fc0c546a14610750576101b7565b8063e8a379b21461061a578063e90f98ab14610643578063ea10a24514610680576101b7565b8063a85a434f116100c6578063a85a434f1461054c578063bc041dad14610575578063beae4b89146105b2578063c21c8add146105ef576101b7565b806388c564ad146104a7578063a02579e2146104d2578063a5fdc5de1461050f576101b7565b806350fc56f711610159578063749667821161013357806374966782146103d75780637d69e5f8146104145780637e51013c1461043f578063818e17771461046a576101b7565b806350fc56f71461032057806369307fcc1461035d5780636ae8b8f61461039a576101b7565b806320ec5ea01161019557806320ec5ea01461022c57806324427c6a1461026957806333352b51146102a6578063478230f7146102e3576101b7565b8063062a2a5d146101bc57806306369945146101f95780631881497f14610203575b600080fd5b3480156101c857600080fd5b506101e360048036038101906101de9190611d20565b61077b565b6040516101f09190611d66565b60405180910390f35b610201610793565b005b34801561020f57600080fd5b5061022a60048036038101906102259190611dad565b610df3565b005b34801561023857600080fd5b50610253600480360381019061024e9190611d20565b610f1b565b6040516102609190611d66565b60405180910390f35b34801561027557600080fd5b50610290600480360381019061028b9190611d20565b610f33565b60405161029d9190611d66565b60405180910390f35b3480156102b257600080fd5b506102cd60048036038101906102c89190611d20565b610f4b565b6040516102da9190611df5565b60405180910390f35b3480156102ef57600080fd5b5061030a60048036038101906103059190611d20565b610f6b565b6040516103179190611d66565b60405180910390f35b34801561032c57600080fd5b5061034760048036038101906103429190611d20565b610f83565b6040516103549190611d66565b60405180910390f35b34801561036957600080fd5b50610384600480360381019061037f9190611d20565b610f9b565b6040516103919190611d66565b60405180910390f35b3480156103a657600080fd5b506103c160048036038101906103bc9190611d20565b610fb3565b6040516103ce9190611d66565b60405180910390f35b3480156103e357600080fd5b506103fe60048036038101906103f99190611d20565b610fcb565b60405161040b9190611d66565b60405180910390f35b34801561042057600080fd5b50610429610fe3565b6040516104369190611df5565b60405180910390f35b34801561044b57600080fd5b50610454610ff6565b6040516104619190611d66565b60405180910390f35b34801561047657600080fd5b50610491600480360381019061048c9190611d20565b610ffc565b60405161049e9190611d66565b60405180910390f35b3480156104b357600080fd5b506104bc611014565b6040516104c99190611df5565b60405180910390f35b3480156104de57600080fd5b506104f960048036038101906104f49190611d20565b611027565b6040516105069190611d66565b60405180910390f35b34801561051b57600080fd5b5061053660048036038101906105319190611d20565b61103f565b6040516105439190611d66565b60405180910390f35b34801561055857600080fd5b50610573600480360381019061056e9190611dad565b611057565b005b34801561058157600080fd5b5061059c60048036038101906105979190611d20565b611650565b6040516105a99190611d66565b60405180910390f35b3480156105be57600080fd5b506105d960048036038101906105d49190611d20565b611668565b6040516105e69190611d66565b60405180910390f35b3480156105fb57600080fd5b50610604611680565b6040516106119190611d66565b60405180910390f35b34801561062657600080fd5b50610641600480360381019061063c9190611dad565b611686565b005b34801561064f57600080fd5b5061066a60048036038101906106659190611d20565b6117a6565b6040516106779190611d66565b60405180910390f35b34801561068c57600080fd5b506106a760048036038101906106a29190611d20565b6117be565b6040516106b49190611d66565b60405180910390f35b3480156106c957600080fd5b506106e460048036038101906106df9190611d20565b6117d6565b6040516106f19190611df5565b60405180910390f35b34801561070657600080fd5b5061070f6117f6565b60405161071c9190611d66565b60405180910390f35b34801561073157600080fd5b5061073a6117fc565b6040516107479190611e1f565b60405180910390f35b34801561075c57600080fd5b50610765611822565b6040516107729190611e99565b60405180910390f35b60056020528060005260406000206000915090505481565b60003490506709fdf42f6e480000600881905550600081116107ea576040517f08c379a00000000000000000000000000000000000000000000000000000000081526004016107e190611f11565b60405180910390fd5b601560009054906101000a900473ffffffffffffffffffffffffffffffffffffffff1673ffffffffffffffffffffffffffffffffffffffff1663a4fa277433836040518363ffffffff1660e01b8152600401610847929190611f31565b600060405180830381600087803b15801561086157600080fd5b505af1158015610875573d6000803e3d6000fd5b50505050806000803373ffffffffffffffffffffffffffffffffffffffff1673ffffffffffffffffffffffffffffffffffffffff16815260200190815260200160002060008282546108c79190611f89565b92505081905550600a60085460076000803373ffffffffffffffffffffffffffffffffffffffff1673ffffffffffffffffffffffffffffffffffffffff1681526020019081526020016000205461091e9190611fbd565b6109289190611fbd565b610932919061202e565b601460003373ffffffffffffffffffffffffffffffffffffffff1673ffffffffffffffffffffffffffffffffffffffff1681526020019081526020016000208190555080600960008282546109879190611f89565b92505081905550806000803373ffffffffffffffffffffffffffffffffffffffff1673ffffffffffffffffffffffffffffffffffffffff1681526020019081526020016000205403610ac0576001601160016101000a81548160ff02191690831515021790555042600c60003373ffffffffffffffffffffffffffffffffffffffff1673ffffffffffffffffffffffffffffffffffffffff168152602001908152602001600020819055506000600d60003373ffffffffffffffffffffffffffffffffffffffff1673ffffffffffffffffffffffffffffffffffffffff1681526020019081526020016000208190555080600b60003373ffffffffffffffffffffffffffffffffffffffff1673ffffffffffffffffffffffffffffffffffffffff16815260200190815260200160002081905550610c52565b620f42406000803373ffffffffffffffffffffffffffffffffffffffff1673ffffffffffffffffffffffffffffffffffffffff16815260200190815260200160002054600c60003373ffffffffffffffffffffffffffffffffffffffff1673ffffffffffffffffffffffffffffffffffffffff1681526020019081526020016000205442610b4e919061205f565b610b589190611fbd565b610b62919061202e565b600d60003373ffffffffffffffffffffffffffffffffffffffff1673ffffffffffffffffffffffffffffffffffffffff1681526020019081526020016000206000828254610bb09190611f89565b9250508190555042600c60003373ffffffffffffffffffffffffffffffffffffffff1673ffffffffffffffffffffffffffffffffffffffff1681526020019081526020016000208190555080600b60003373ffffffffffffffffffffffffffffffffffffffff1673ffffffffffffffffffffffffffffffffffffffff1681526020019081526020016000206000828254610c4a9190611f89565b925050819055505b610c996000803373ffffffffffffffffffffffffffffffffffffffff1673ffffffffffffffffffffffffffffffffffffffff16815260200190815260200160002054611848565b610ce1600c60003373ffffffffffffffffffffffffffffffffffffffff1673ffffffffffffffffffffffffffffffffffffffff16815260200190815260200160002054611848565b610d29600d60003373ffffffffffffffffffffffffffffffffffffffff1673ffffffffffffffffffffffffffffffffffffffff16815260200190815260200160002054611848565b3373ffffffffffffffffffffffffffffffffffffffff167f90890809c654f11d6e72a28fa60149770a0d11ec6c92319d6ceb2bb0a4ea1a158283604051610d71929190612093565b60405180910390a27fdeaf03adaa870bd18d29c07613b960326f8b269698f66bb8c2e9efc5ae46705e336000803373ffffffffffffffffffffffffffffffffffffffff1673ffffffffffffffffffffffffffffffffffffffff16815260200190815260200160002054604051610de8929190611f31565b60405180910390a150565b80600160003373ffffffffffffffffffffffffffffffffffffffff1673ffffffffffffffffffffffffffffffffffffffff168152602001908152602001600020541015610e75576040517f08c379a0000000000000000000000000000000000000000000000000000000008152600401610e6c90612108565b60405180910390fd5b80600160003373ffffffffffffffffffffffffffffffffffffffff1673ffffffffffffffffffffffffffffffffffffffff1681526020019081526020016000206000828254610ec4919061205f565b92505081905550610f183382601660009054906101000a900473ffffffffffffffffffffffffffffffffffffffff1673ffffffffffffffffffffffffffffffffffffffff166118e19092919063ffffffff16565b50565b60126020528060005260406000206000915090505481565b60106020528060005260406000206000915090505481565b60066020528060005260406000206000915054906101000a900460ff1681565b60036020528060005260406000206000915090505481565b600e6020528060005260406000206000915090505481565b60006020528060005260406000206000915090505481565b60146020528060005260406000206000915090505481565b60076020528060005260406000206000915090505481565b601160019054906101000a900460ff1681565b600a5481565b600d6020528060005260406000206000915090505481565b601160009054906101000a900460ff1681565b600c6020528060005260406000206000915090505481565b60026020528060005260406000206000915090505481565b6000811161109a576040517f08c379a000000000000000000000000000000000000000000000000000000000815260040161109190611f11565b60405180910390fd5b6110e9333083601660009054906101000a900473ffffffffffffffffffffffffffffffffffffffff1673ffffffffffffffffffffffffffffffffffffffff16611967909392919063ffffffff16565b601560009054906101000a900473ffffffffffffffffffffffffffffffffffffffff1673ffffffffffffffffffffffffffffffffffffffff1663e6c98c6f33836040518363ffffffff1660e01b8152600401611146929190611f31565b600060405180830381600087803b15801561116057600080fd5b505af1158015611174573d6000803e3d6000fd5b5050505080600160003373ffffffffffffffffffffffffffffffffffffffff1673ffffffffffffffffffffffffffffffffffffffff16815260200190815260200160002060008282546111c79190611f89565b9250508190555080600a60008282546111e09190611f89565b9250508190555080600160003373ffffffffffffffffffffffffffffffffffffffff1673ffffffffffffffffffffffffffffffffffffffff168152602001908152602001600020540361131a576001601160006101000a81548160ff02191690831515021790555042600f60003373ffffffffffffffffffffffffffffffffffffffff1673ffffffffffffffffffffffffffffffffffffffff168152602001908152602001600020819055506000601060003373ffffffffffffffffffffffffffffffffffffffff1673ffffffffffffffffffffffffffffffffffffffff1681526020019081526020016000208190555080600e60003373ffffffffffffffffffffffffffffffffffffffff1673ffffffffffffffffffffffffffffffffffffffff168152602001908152602001600020819055506114ad565b620f4240600160003373ffffffffffffffffffffffffffffffffffffffff1673ffffffffffffffffffffffffffffffffffffffff16815260200190815260200160002054600f60003373ffffffffffffffffffffffffffffffffffffffff1673ffffffffffffffffffffffffffffffffffffffff16815260200190815260200160002054426113a9919061205f565b6113b39190611fbd565b6113bd919061202e565b601060003373ffffffffffffffffffffffffffffffffffffffff1673ffffffffffffffffffffffffffffffffffffffff168152602001908152602001600020600082825461140b9190611f89565b9250508190555042600f60003373ffffffffffffffffffffffffffffffffffffffff1673ffffffffffffffffffffffffffffffffffffffff1681526020019081526020016000208190555080600e60003373ffffffffffffffffffffffffffffffffffffffff1673ffffffffffffffffffffffffffffffffffffffff16815260200190815260200160002060008282546114a59190611f89565b925050819055505b6114f5600160003373ffffffffffffffffffffffffffffffffffffffff1673ffffffffffffffffffffffffffffffffffffffff16815260200190815260200160002054611848565b61153d600f60003373ffffffffffffffffffffffffffffffffffffffff1673ffffffffffffffffffffffffffffffffffffffff16815260200190815260200160002054611848565b611585601060003373ffffffffffffffffffffffffffffffffffffffff1673ffffffffffffffffffffffffffffffffffffffff16815260200190815260200160002054611848565b3373ffffffffffffffffffffffffffffffffffffffff167f90890809c654f11d6e72a28fa60149770a0d11ec6c92319d6ceb2bb0a4ea1a1582836040516115cd929190612093565b60405180910390a27fdeaf03adaa870bd18d29c07613b960326f8b269698f66bb8c2e9efc5ae46705e33600160003373ffffffffffffffffffffffffffffffffffffffff1673ffffffffffffffffffffffffffffffffffffffff16815260200190815260200160002054604051611645929190611f31565b60405180910390a150565b600f6020528060005260406000206000915090505481565b600b6020528060005260406000206000915090505481565b60095481565b806000803373ffffffffffffffffffffffffffffffffffffffff1673ffffffffffffffffffffffffffffffffffffffff168152602001908152602001600020541015611707576040517f08c379a00000000000000000000000000000000000000000000000000000000081526004016116fe90612174565b60405180910390fd5b806000803373ffffffffffffffffffffffffffffffffffffffff1673ffffffffffffffffffffffffffffffffffffffff1681526020019081526020016000206000828254611755919061205f565b925050819055503373ffffffffffffffffffffffffffffffffffffffff166108fc829081150290604051600060405180830381858888f193505050501580156117a2573d6000803e3d6000fd5b5050565b60136020528060005260406000206000915090505481565b60016020528060005260406000206000915090505481565b60046020528060005260406000206000915054906101000a900460ff1681565b60085481565b601660009054906101000a900473ffffffffffffffffffffffffffffffffffffffff1681565b601560009054906101000a900473ffffffffffffffffffffffffffffffffffffffff1681565b6118de8160405160240161185c9190611d66565b6040516020818303038152906040527ff82c50f1000000000000000000000000000000000000000000000000000000007bffffffffffffffffffffffffffffffffffffffffffffffffffffffff19166020820180517bffffffffffffffffffffffffffffffffffffffffffffffffffffffff83818316178352505050506119f0565b50565b6119628363a9059cbb60e01b8484604051602401611900929190611f31565b604051602081830303815290604052907bffffffffffffffffffffffffffffffffffffffffffffffffffffffff19166020820180517bffffffffffffffffffffffffffffffffffffffffffffffffffffffff8381831617835250505050611a0a565b505050565b6119ea846323b872dd60e01b85858560405160240161198893929190612194565b604051602081830303815290604052907bffffffffffffffffffffffffffffffffffffffffffffffffffffffff19166020820180517bffffffffffffffffffffffffffffffffffffffffffffffffffffffff8381831617835250505050611a0a565b50505050565b611a07816119ff611ad1611af2565b63ffffffff16565b50565b6000611a6c826040518060400160405280602081526020017f5361666545524332303a206c6f772d6c6576656c2063616c6c206661696c65648152508573ffffffffffffffffffffffffffffffffffffffff16611afd9092919063ffffffff16565b9050600081511115611acc5780806020019051810190611a8c91906121f7565b611acb576040517f08c379a0000000000000000000000000000000000000000000000000000000008152600401611ac290612296565b60405180910390fd5b5b505050565b60006a636f6e736f6c652e6c6f679050600080835160208501845afa505050565b611cb3819050919050565b6060611b0c8484600085611b15565b90509392505050565b606082471015611b5a576040517f08c379a0000000000000000000000000000000000000000000000000000000008152600401611b5190612328565b60405180910390fd5b611b6385611c29565b611ba2576040517f08c379a0000000000000000000000000000000000000000000000000000000008152600401611b9990612394565b60405180910390fd5b6000808673ffffffffffffffffffffffffffffffffffffffff168587604051611bcb9190612425565b60006040518083038185875af1925050503d8060008114611c08576040519150601f19603f3d011682016040523d82523d6000602084013e611c0d565b606091505b5091509150611c1d828286611c4c565b92505050949350505050565b6000808273ffffffffffffffffffffffffffffffffffffffff163b119050919050565b60608315611c5c57829050611cac565b600083511115611c6f5782518084602001fd5b816040517f08c379a0000000000000000000000000000000000000000000000000000000008152600401611ca39190612491565b60405180910390fd5b9392505050565b611cbb6124b3565b565b600080fd5b600073ffffffffffffffffffffffffffffffffffffffff82169050919050565b6000611ced82611cc2565b9050919050565b611cfd81611ce2565b8114611d0857600080fd5b50565b600081359050611d1a81611cf4565b92915050565b600060208284031215611d3657611d35611cbd565b5b6000611d4484828501611d0b565b91505092915050565b6000819050919050565b611d6081611d4d565b82525050565b6000602082019050611d7b6000830184611d57565b92915050565b611d8a81611d4d565b8114611d9557600080fd5b50565b600081359050611da781611d81565b92915050565b600060208284031215611dc357611dc2611cbd565b5b6000611dd184828501611d98565b91505092915050565b60008115159050919050565b611def81611dda565b82525050565b6000602082019050611e0a6000830184611de6565b92915050565b611e1981611ce2565b82525050565b6000602082019050611e346000830184611e10565b92915050565b6000819050919050565b6000611e5f611e5a611e5584611cc2565b611e3a565b611cc2565b9050919050565b6000611e7182611e44565b9050919050565b6000611e8382611e66565b9050919050565b611e9381611e78565b82525050565b6000602082019050611eae6000830184611e8a565b92915050565b600082825260208201905092915050565b7f416d6f756e74206d7573742062652067726561746572207468616e2030000000600082015250565b6000611efb601d83611eb4565b9150611f0682611ec5565b602082019050919050565b60006020820190508181036000830152611f2a81611eee565b9050919050565b6000604082019050611f466000830185611e10565b611f536020830184611d57565b9392505050565b7f4e487b7100000000000000000000000000000000000000000000000000000000600052601160045260246000fd5b6000611f9482611d4d565b9150611f9f83611d4d565b9250828201905080821115611fb757611fb6611f5a565b5b92915050565b6000611fc882611d4d565b9150611fd383611d4d565b9250828202611fe181611d4d565b91508282048414831517611ff857611ff7611f5a565b5b5092915050565b7f4e487b7100000000000000000000000000000000000000000000000000000000600052601260045260246000fd5b600061203982611d4d565b915061204483611d4d565b92508261205457612053611fff565b5b828204905092915050565b600061206a82611d4d565b915061207583611d4d565b925082820390508181111561208d5761208c611f5a565b5b92915050565b60006040820190506120a86000830185611d57565b6120b56020830184611d57565b9392505050565b7f496e73756666696369656e74204942542062616c616e63650000000000000000600082015250565b60006120f2601883611eb4565b91506120fd826120bc565b602082019050919050565b60006020820190508181036000830152612121816120e5565b9050919050565b7f496e73756666696369656e74204d415449432062616c616e6365000000000000600082015250565b600061215e601a83611eb4565b915061216982612128565b602082019050919050565b6000602082019050818103600083015261218d81612151565b9050919050565b60006060820190506121a96000830186611e10565b6121b66020830185611e10565b6121c36040830184611d57565b949350505050565b6121d481611dda565b81146121df57600080fd5b50565b6000815190506121f1816121cb565b92915050565b60006020828403121561220d5761220c611cbd565b5b600061221b848285016121e2565b91505092915050565b7f5361666545524332303a204552433230206f7065726174696f6e20646964206e60008201527f6f74207375636365656400000000000000000000000000000000000000000000602082015250565b6000612280602a83611eb4565b915061228b82612224565b604082019050919050565b600060208201905081810360008301526122af81612273565b9050919050565b7f416464726573733a20696e73756666696369656e742062616c616e636520666f60008201527f722063616c6c0000000000000000000000000000000000000000000000000000602082015250565b6000612312602683611eb4565b915061231d826122b6565b604082019050919050565b6000602082019050818103600083015261234181612305565b9050919050565b7f416464726573733a2063616c6c20746f206e6f6e2d636f6e7472616374000000600082015250565b600061237e601d83611eb4565b915061238982612348565b602082019050919050565b600060208201905081810360008301526123ad81612371565b9050919050565b600081519050919050565b600081905092915050565b60005b838110156123e85780820151818401526020810190506123cd565b60008484015250505050565b60006123ff826123b4565b61240981856123bf565b93506124198185602086016123ca565b80840191505092915050565b600061243182846123f4565b915081905092915050565b600081519050919050565b6000601f19601f8301169050919050565b60006124638261243c565b61246d8185611eb4565b935061247d8185602086016123ca565b61248681612447565b840191505092915050565b600060208201905081810360008301526124ab8184612458565b905092915050565b7f4e487b7100000000000000000000000000000000000000000000000000000000600052605160045260246000fdfea2646970667358221220d21fcebde1abdcbf7c02661593fa75720a9f593fe25edd05b243ba4788db4e1764736f6c6343000818003360806040523480156200001157600080fd5b506040518060400160405280600f81526020017f61546f6b656e20457468657265756d00000000000000000000000000000000008152506040518060400160405280600681526020017f41546f6b656e000000000000000000000000000000000000000000000000000081525081600390816200008f9190620003a0565b508060049081620000a19190620003a0565b50505033600560006101000a81548173ffffffffffffffffffffffffffffffffffffffff021916908373ffffffffffffffffffffffffffffffffffffffff1602179055506709fdf42f6e4800006ec097ce7bc90715b34b9f10000000006200010a9190620004b6565b6006819055506804cc99bdf2ad550000600781905550620004ee565b600081519050919050565b7f4e487b7100000000000000000000000000000000000000000000000000000000600052604160045260246000fd5b7f4e487b7100000000000000000000000000000000000000000000000000000000600052602260045260246000fd5b60006002820490506001821680620001a857607f821691505b602082108103620001be57620001bd62000160565b5b50919050565b60008190508160005260206000209050919050565b60006020601f8301049050919050565b600082821b905092915050565b600060088302620002287fffffffffffffffffffffffffffffffffffffffffffffffffffffffffffffffff82620001e9565b620002348683620001e9565b95508019841693508086168417925050509392505050565b6000819050919050565b6000819050919050565b6000620002816200027b62000275846200024c565b62000256565b6200024c565b9050919050565b6000819050919050565b6200029d8362000260565b620002b5620002ac8262000288565b848454620001f6565b825550505050565b600090565b620002cc620002bd565b620002d981848462000292565b505050565b5b818110156200030157620002f5600082620002c2565b600181019050620002df565b5050565b601f82111562000350576200031a81620001c4565b6200032584620001d9565b8101602085101562000335578190505b6200034d6200034485620001d9565b830182620002de565b50505b505050565b600082821c905092915050565b6000620003756000198460080262000355565b1980831691505092915050565b600062000390838362000362565b9150826002028217905092915050565b620003ab8262000126565b67ffffffffffffffff811115620003c757620003c662000131565b5b620003d382546200018f565b620003e082828562000305565b600060209050601f83116001811462000418576000841562000403578287015190505b6200040f858262000382565b8655506200047f565b601f1984166200042886620001c4565b60005b8281101562000452578489015182556001820191506020850194506020810190506200042b565b868310156200047257848901516200046e601f89168262000362565b8355505b6001600288020188555050505b505050505050565b7f4e487b7100000000000000000000000000000000000000000000000000000000600052601260045260246000fd5b6000620004c3826200024c565b9150620004d0836200024c565b925082620004e357620004e262000487565b5b828204905092915050565b61212f80620004fe6000396000f3fe60806040526004361061011f5760003560e01c806370a08231116100a0578063a9059cbb11610064578063a9059cbb14610401578063bb818cc51461043e578063dd62ed3e14610467578063e16dd03d146104a4578063e6c98c6f146104c05761011f565b806370a08231146103085780638da5cb5b1461034557806395d89b4114610370578063a457c2d71461039b578063a4fa2774146103d85761011f565b8063313ce567116100e7578063313ce5671461021f578063395093511461024a5780633d6d142c1461028757806342e8dc89146102b25780636f0515a1146102dd5761011f565b806306fdde0314610124578063095ea7b31461014f57806318160ddd1461018c578063207ec727146101b757806323b872dd146101e2575b600080fd5b34801561013057600080fd5b506101396104e9565b604051610146919061160f565b60405180910390f35b34801561015b57600080fd5b50610176600480360381019061017191906116ca565b61057b565b6040516101839190611725565b60405180910390f35b34801561019857600080fd5b506101a161059e565b6040516101ae919061174f565b60405180910390f35b3480156101c357600080fd5b506101cc6105a8565b6040516101d9919061174f565b60405180910390f35b3480156101ee57600080fd5b506102096004803603810190610204919061176a565b6105b5565b6040516102169190611725565b60405180910390f35b34801561022b57600080fd5b506102346105e4565b60405161024191906117d9565b60405180910390f35b34801561025657600080fd5b50610271600480360381019061026c91906116ca565b6105ed565b60405161027e9190611725565b60405180910390f35b34801561029357600080fd5b5061029c610624565b6040516102a9919061174f565b60405180910390f35b3480156102be57600080fd5b506102c761062a565b6040516102d4919061174f565b60405180910390f35b3480156102e957600080fd5b506102f2610630565b6040516102ff919061174f565b60405180910390f35b34801561031457600080fd5b5061032f600480360381019061032a91906117f4565b61063c565b60405161033c919061174f565b60405180910390f35b34801561035157600080fd5b5061035a610684565b6040516103679190611830565b60405180910390f35b34801561037c57600080fd5b506103856106aa565b604051610392919061160f565b60405180910390f35b3480156103a757600080fd5b506103c260048036038101906103bd91906116ca565b61073c565b6040516103cf9190611725565b60405180910390f35b3480156103e457600080fd5b506103ff60048036038101906103fa91906116ca565b6107b3565b005b34801561040d57600080fd5b50610428600480360381019061042391906116ca565b610929565b6040516104359190611725565b60405180910390f35b34801561044a57600080fd5b50610465600480360381019061046091906116ca565b61094c565b005b34801561047357600080fd5b5061048e6004803603810190610489919061184b565b610a5f565b60405161049b919061174f565b60405180910390f35b6104be60048036038101906104b991906116ca565b610ae6565b005b3480156104cc57600080fd5b506104e760048036038101906104e291906116ca565b610c51565b005b6060600380546104f8906118ba565b80601f0160208091040260200160405190810160405280929190818152602001828054610524906118ba565b80156105715780601f1061054657610100808354040283529160200191610571565b820191906000526020600020905b81548152906001019060200180831161055457829003601f168201915b5050505050905090565b600080610586610d64565b9050610593818585610d6c565b600191505092915050565b6000600254905090565b6804cc99bdf2ad55000081565b6000806105c0610d64565b90506105cd858285610f35565b6105d8858585610fc1565b60019150509392505050565b60006012905090565b6000806105f8610d64565b905061061981858561060a8589610a5f565b610614919061191a565b610d6c565b600191505092915050565b60065481565b60075481565b6709fdf42f6e48000081565b60008060008373ffffffffffffffffffffffffffffffffffffffff1673ffffffffffffffffffffffffffffffffffffffff168152602001908152602001600020549050919050565b600560009054906101000a900473ffffffffffffffffffffffffffffffffffffffff1681565b6060600480546106b9906118ba565b80601f01602080910402602001604051908101604052809291908181526020018280546106e5906118ba565b80156107325780601f1061070757610100808354040283529160200191610732565b820191906000526020600020905b81548152906001019060200180831161071557829003601f168201915b5050505050905090565b600080610747610d64565b905060006107558286610a5f565b90508381101561079a576040517f08c379a0000000000000000000000000000000000000000000000000000000008152600401610791906119c0565b60405180910390fd5b6107a78286868403610d6c565b60019250505092915050565b600560009054906101000a900473ffffffffffffffffffffffffffffffffffffffff1673ffffffffffffffffffffffffffffffffffffffff163373ffffffffffffffffffffffffffffffffffffffff1614610843576040517f08c379a000000000000000000000000000000000000000000000000000000000815260040161083a90611a2c565b60405180910390fd5b60006007546096600654846108589190611a4c565b6108629190611a4c565b61086c9190611abd565b90506108788382611240565b60006108838461063c565b90508373ffffffffffffffffffffffffffffffffffffffff167fb0750f6c39be925832beb4b2ee749481dc9e87e71e38e643dc1c7742c5f8aba2826040516108cb919061174f565b60405180910390a28373ffffffffffffffffffffffffffffffffffffffff167f2e8ac5177a616f2aec08c3048f5021e4e9743ece034e8d83ba5caf76688bb475848460405161091b929190611aee565b60405180910390a250505050565b600080610934610d64565b9050610941818585610fc1565b600191505092915050565b600560009054906101000a900473ffffffffffffffffffffffffffffffffffffffff1673ffffffffffffffffffffffffffffffffffffffff163373ffffffffffffffffffffffffffffffffffffffff16146109dc576040517f08c379a00000000000000000000000000000000000000000000000000000000081526004016109d390611b63565b60405180910390fd5b600060075466038d7ea4c68000836109f49190611a4c565b6109fe9190611abd565b9050610a0a838261139f565b8273ffffffffffffffffffffffffffffffffffffffff167fccbea4088a3b7ae9ca2d15fab9a9742a4075b4d7247768a1eecea917565aba008383604051610a52929190611aee565b60405180910390a2505050565b6000600160008473ffffffffffffffffffffffffffffffffffffffff1673ffffffffffffffffffffffffffffffffffffffff16815260200190815260200160002060008373ffffffffffffffffffffffffffffffffffffffff1673ffffffffffffffffffffffffffffffffffffffff16815260200190815260200160002054905092915050565b600560009054906101000a900473ffffffffffffffffffffffffffffffffffffffff1673ffffffffffffffffffffffffffffffffffffffff163373ffffffffffffffffffffffffffffffffffffffff1614610b76576040517f08c379a0000000000000000000000000000000000000000000000000000000008152600401610b6d90611b63565b60405180910390fd5b600060075466038d7ea4c6800060065484610b919190611a4c565b610b9b9190611a4c565b610ba59190611abd565b905080610bb18461063c565b1015610bf2576040517f08c379a0000000000000000000000000000000000000000000000000000000008152600401610be990611bcf565b60405180910390fd5b610bfc838261139f565b8273ffffffffffffffffffffffffffffffffffffffff167fccbea4088a3b7ae9ca2d15fab9a9742a4075b4d7247768a1eecea917565aba008383604051610c44929190611aee565b60405180910390a2505050565b600560009054906101000a900473ffffffffffffffffffffffffffffffffffffffff1673ffffffffffffffffffffffffffffffffffffffff163373ffffffffffffffffffffffffffffffffffffffff1614610ce1576040517f08c379a0000000000000000000000000000000000000000000000000000000008152600401610cd890611a2c565b60405180910390fd5b600060075466038d7ea4c6800083610cf99190611a4c565b610d039190611abd565b9050610d0f8382611240565b8273ffffffffffffffffffffffffffffffffffffffff167f2e8ac5177a616f2aec08c3048f5021e4e9743ece034e8d83ba5caf76688bb4758383604051610d57929190611aee565b60405180910390a2505050565b600033905090565b600073ffffffffffffffffffffffffffffffffffffffff168373ffffffffffffffffffffffffffffffffffffffff1603610ddb576040517f08c379a0000000000000000000000000000000000000000000000000000000008152600401610dd290611c61565b60405180910390fd5b600073ffffffffffffffffffffffffffffffffffffffff168273ffffffffffffffffffffffffffffffffffffffff1603610e4a576040517f08c379a0000000000000000000000000000000000000000000000000000000008152600401610e4190611cf3565b60405180910390fd5b80600160008573ffffffffffffffffffffffffffffffffffffffff1673ffffffffffffffffffffffffffffffffffffffff16815260200190815260200160002060008473ffffffffffffffffffffffffffffffffffffffff1673ffffffffffffffffffffffffffffffffffffffff168152602001908152602001600020819055508173ffffffffffffffffffffffffffffffffffffffff168373ffffffffffffffffffffffffffffffffffffffff167f8c5be1e5ebec7d5bd14f71427d1e84f3dd0314c0f7b2291e5b200ac8c7c3b92583604051610f28919061174f565b60405180910390a3505050565b6000610f418484610a5f565b90507fffffffffffffffffffffffffffffffffffffffffffffffffffffffffffffffff8114610fbb5781811015610fad576040517f08c379a0000000000000000000000000000000000000000000000000000000008152600401610fa490611d5f565b60405180910390fd5b610fba8484848403610d6c565b5b50505050565b600073ffffffffffffffffffffffffffffffffffffffff168373ffffffffffffffffffffffffffffffffffffffff1603611030576040517f08c379a000000000000000000000000000000000000000000000000000000000815260040161102790611df1565b60405180910390fd5b600073ffffffffffffffffffffffffffffffffffffffff168273ffffffffffffffffffffffffffffffffffffffff160361109f576040517f08c379a000000000000000000000000000000000000000000000000000000000815260040161109690611e83565b60405180910390fd5b6110aa838383611575565b60008060008573ffffffffffffffffffffffffffffffffffffffff1673ffffffffffffffffffffffffffffffffffffffff16815260200190815260200160002054905081811015611130576040517f08c379a000000000000000000000000000000000000000000000000000000000815260040161112790611f15565b60405180910390fd5b8181036000808673ffffffffffffffffffffffffffffffffffffffff1673ffffffffffffffffffffffffffffffffffffffff16815260200190815260200160002081905550816000808573ffffffffffffffffffffffffffffffffffffffff1673ffffffffffffffffffffffffffffffffffffffff16815260200190815260200160002060008282546111c3919061191a565b925050819055508273ffffffffffffffffffffffffffffffffffffffff168473ffffffffffffffffffffffffffffffffffffffff167fddf252ad1be2c89b69c2b068fc378daa952ba7f163c4a11628f55a4df523b3ef84604051611227919061174f565b60405180910390a361123a84848461157a565b50505050565b600073ffffffffffffffffffffffffffffffffffffffff168273ffffffffffffffffffffffffffffffffffffffff16036112af576040517f08c379a00000000000000000000000000000000000000000000000000000000081526004016112a690611f81565b60405180910390fd5b6112bb60008383611575565b80600260008282546112cd919061191a565b92505081905550806000808473ffffffffffffffffffffffffffffffffffffffff1673ffffffffffffffffffffffffffffffffffffffff1681526020019081526020016000206000828254611322919061191a565b925050819055508173ffffffffffffffffffffffffffffffffffffffff16600073ffffffffffffffffffffffffffffffffffffffff167fddf252ad1be2c89b69c2b068fc378daa952ba7f163c4a11628f55a4df523b3ef83604051611387919061174f565b60405180910390a361139b6000838361157a565b5050565b600073ffffffffffffffffffffffffffffffffffffffff168273ffffffffffffffffffffffffffffffffffffffff160361140e576040517f08c379a000000000000000000000000000000000000000000000000000000000815260040161140590612013565b60405180910390fd5b61141a82600083611575565b60008060008473ffffffffffffffffffffffffffffffffffffffff1673ffffffffffffffffffffffffffffffffffffffff168152602001908152602001600020549050818110156114a0576040517f08c379a0000000000000000000000000000000000000000000000000000000008152600401611497906120a5565b60405180910390fd5b8181036000808573ffffffffffffffffffffffffffffffffffffffff1673ffffffffffffffffffffffffffffffffffffffff1681526020019081526020016000208190555081600260008282546114f791906120c5565b92505081905550600073ffffffffffffffffffffffffffffffffffffffff168373ffffffffffffffffffffffffffffffffffffffff167fddf252ad1be2c89b69c2b068fc378daa952ba7f163c4a11628f55a4df523b3ef8460405161155c919061174f565b60405180910390a36115708360008461157a565b505050565b505050565b505050565b600081519050919050565b600082825260208201905092915050565b60005b838110156115b957808201518184015260208101905061159e565b60008484015250505050565b6000601f19601f8301169050919050565b60006115e18261157f565b6115eb818561158a565b93506115fb81856020860161159b565b611604816115c5565b840191505092915050565b6000602082019050818103600083015261162981846115d6565b905092915050565b600080fd5b600073ffffffffffffffffffffffffffffffffffffffff82169050919050565b600061166182611636565b9050919050565b61167181611656565b811461167c57600080fd5b50565b60008135905061168e81611668565b92915050565b6000819050919050565b6116a781611694565b81146116b257600080fd5b50565b6000813590506116c48161169e565b92915050565b600080604083850312156116e1576116e0611631565b5b60006116ef8582860161167f565b9250506020611700858286016116b5565b9150509250929050565b60008115159050919050565b61171f8161170a565b82525050565b600060208201905061173a6000830184611716565b92915050565b61174981611694565b82525050565b60006020820190506117646000830184611740565b92915050565b60008060006060848603121561178357611782611631565b5b60006117918682870161167f565b93505060206117a28682870161167f565b92505060406117b3868287016116b5565b9150509250925092565b600060ff82169050919050565b6117d3816117bd565b82525050565b60006020820190506117ee60008301846117ca565b92915050565b60006020828403121561180a57611809611631565b5b60006118188482850161167f565b91505092915050565b61182a81611656565b82525050565b60006020820190506118456000830184611821565b92915050565b6000806040838503121561186257611861611631565b5b60006118708582860161167f565b92505060206118818582860161167f565b9150509250929050565b7f4e487b7100000000000000000000000000000000000000000000000000000000600052602260045260246000fd5b600060028204905060018216806118d257607f821691505b6020821081036118e5576118e461188b565b5b50919050565b7f4e487b7100000000000000000000000000000000000000000000000000000000600052601160045260246000fd5b600061192582611694565b915061193083611694565b9250828201905080821115611948576119476118eb565b5b92915050565b7f45524332303a2064656372656173656420616c6c6f77616e63652062656c6f7760008201527f207a65726f000000000000000000000000000000000000000000000000000000602082015250565b60006119aa60258361158a565b91506119b58261194e565b604082019050919050565b600060208201905081810360008301526119d98161199d565b9050919050565b7f4f6e6c79206f776e65722063616e206d696e7420746f6b656e73000000000000600082015250565b6000611a16601a8361158a565b9150611a21826119e0565b602082019050919050565b60006020820190508181036000830152611a4581611a09565b9050919050565b6000611a5782611694565b9150611a6283611694565b9250828202611a7081611694565b91508282048414831517611a8757611a866118eb565b5b5092915050565b7f4e487b7100000000000000000000000000000000000000000000000000000000600052601260045260246000fd5b6000611ac882611694565b9150611ad383611694565b925082611ae357611ae2611a8e565b5b828204905092915050565b6000604082019050611b036000830185611740565b611b106020830184611740565b9392505050565b7f4f6e6c79206f776e65722063616e206275726e20746f6b656e73000000000000600082015250565b6000611b4d601a8361158a565b9150611b5882611b17565b602082019050919050565b60006020820190508181036000830152611b7c81611b40565b9050919050565b7f496e73756666696369656e742062616c616e6365000000000000000000000000600082015250565b6000611bb960148361158a565b9150611bc482611b83565b602082019050919050565b60006020820190508181036000830152611be881611bac565b9050919050565b7f45524332303a20617070726f76652066726f6d20746865207a65726f2061646460008201527f7265737300000000000000000000000000000000000000000000000000000000602082015250565b6000611c4b60248361158a565b9150611c5682611bef565b604082019050919050565b60006020820190508181036000830152611c7a81611c3e565b9050919050565b7f45524332303a20617070726f766520746f20746865207a65726f20616464726560008201527f7373000000000000000000000000000000000000000000000000000000000000602082015250565b6000611cdd60228361158a565b9150611ce882611c81565b604082019050919050565b60006020820190508181036000830152611d0c81611cd0565b9050919050565b7f45524332303a20696e73756666696369656e7420616c6c6f77616e6365000000600082015250565b6000611d49601d8361158a565b9150611d5482611d13565b602082019050919050565b60006020820190508181036000830152611d7881611d3c565b9050919050565b7f45524332303a207472616e736665722066726f6d20746865207a65726f20616460008201527f6472657373000000000000000000000000000000000000000000000000000000602082015250565b6000611ddb60258361158a565b9150611de682611d7f565b604082019050919050565b60006020820190508181036000830152611e0a81611dce565b9050919050565b7f45524332303a207472616e7366657220746f20746865207a65726f206164647260008201527f6573730000000000000000000000000000000000000000000000000000000000602082015250565b6000611e6d60238361158a565b9150611e7882611e11565b604082019050919050565b60006020820190508181036000830152611e9c81611e60565b9050919050565b7f45524332303a207472616e7366657220616d6f756e742065786365656473206260008201527f616c616e63650000000000000000000000000000000000000000000000000000602082015250565b6000611eff60268361158a565b9150611f0a82611ea3565b604082019050919050565b60006020820190508181036000830152611f2e81611ef2565b9050919050565b7f45524332303a206d696e7420746f20746865207a65726f206164647265737300600082015250565b6000611f6b601f8361158a565b9150611f7682611f35565b602082019050919050565b60006020820190508181036000830152611f9a81611f5e565b9050919050565b7f45524332303a206275726e2066726f6d20746865207a65726f2061646472657360008201527f7300000000000000000000000000000000000000000000000000000000000000602082015250565b6000611ffd60218361158a565b915061200882611fa1565b604082019050919050565b6000602082019050818103600083015261202c81611ff0565b9050919050565b7f45524332303a206275726e20616d6f756e7420657863656564732062616c616e60008201527f6365000000000000000000000000000000000000000000000000000000000000602082015250565b600061208f60228361158a565b915061209a82612033565b604082019050919050565b600060208201905081810360008301526120be81612082565b9050919050565b60006120d082611694565b91506120db83611694565b92508282039050818111156120f3576120f26118eb565b5b9291505056fea2646970667358221220ad5ccfbcb032612e6ee3f3edb740104c1fb4e774472bbc2762362913575bf14c64736f6c63430008180033",
  "linkReferences": {},
  "deployedLinkReferences": {}
}